:100000000C9462000C948A000C948A000C948A0070
:100010000C948A000C948A000C948A000C94C909F0
:100020000C948A000C948A000C948A000C94130D92
:100030000C948A000C948A000C948A000C948A0018
:100040000C94CB150C948A000C945B230C948C2399
:100050000C948A000C948A000C948A000C948A00F8
:100060000C948A000C948A000000000024002700F1
:100070002A0000000000250028002B0000000000DE
:1000800023002600290004040404040404040202DA
:100090000202020203030303030301020408102007
:1000A0004080010204081020010204081020000012
:1000B0000007000201000003040600000000000029
:1000C0000000E72411241FBECFEFD8E0DEBFCDBF74
:1000D00013E0A0E0B1E0EAE2F3E502C005900D9282
:1000E000A631B107D9F713E0A6E1B3E001C01D9234
:1000F000AC3EB107E1F710E0C4ECD0E004C02297B9
:10010000FE010E94A625C23CD107C9F70E94BB0D83
:100110000C9493290C940000DC0112962C911297F8
:10012000213079F0213028F0223099F0243001F587
:1001300018C0DC01ED91FC910280F381E02D09955E
:100140000895DC01ED91FC9111970480F581E02D7B
:1001500006C0DC01ED91FC910680F781E02D099548
:100160000895DC01ED91FC910084F185E02D099565
:100170000895CF93DF93EC016F85788989899A89F7
:1001800020E030E0A9010E94A31118161CF4EBA195
:10019000FCA102C0EDA1FEA10995DF91CF910895C8
:1001A000CF93DF93EC01613071F0613028F0623061
:1001B000C9F0633071F51DC08B8161E00E940417A6
:1001C0008C8160E006C08B8160E00E9404178C8106
:1001D00061E00E9404178D8161E00E9404178E8106
:1001E00060E015C08B8160E00E9404178C8161E0A3
:1001F00006C08B8161E00E9404178C8160E00E9440
:1002000004178D8160E00E9404178E8161E00E94D6
:100210000417DF91CF910895CF93DF93EC01613004
:1002200051F0613028F0623069F06330B1F40DC0F4
:100230008B8160E002C08B8161E00E9404178C8199
:1002400061E009C08B8161E002C08B8160E00E94A7
:1002500004178C8160E00E940417DF91CF9108950C
:100260001F93CF93DF93EC0111E06F857889898923
:100270009A8920E030E0A9010E94A31118160CF021
:1002800010E08C81612F0E9404178B8161E00E9435
:10029000041781E090E00E946E168B8160E00E945E
:1002A0000417DF91CF911F910895AF92BF92CF9223
:1002B000DF92EF92FF920F931F93CF93DF93EC01A6
:1002C0006B857C858D859E852F81388549855A85EE
:1002D000621B730B840B950B09F4D9C01616170615
:1002E000180619068CF40E9433129B01AC010E947F
:1002F0006D0F2F89388D498D5A8D0E94CB0F0E942A
:10030000AE257B018C011BC0909580957095619501
:100310007F4F8F4F9F4F0E9433129B01AC010E9471
:100320006D0F2F89388D498D5A8D0E94CB0F0E94F9
:10033000AE257B018C0117FB109517F91095AF8442
:10034000B888C988DA88C801B701A60195010E945A
:10035000A31118160CF045C0C601B50120E030E02D
:10036000A9010E947311882359F42F89388D498D72
:100370005A8DCA01B9010E946D0F0E94AE251DC0A1
:100380006F89788D898D9A8DA60195010E94C5107F
:10039000E62EF72E082F192F20E030E0A9010E9449
:1003A000A311181624F017FB109517F91095C60124
:1003B000B501A80197010E946D0FC62EB72EA82E79
:1003C000D92EEB88FC880D891E89A80197010E940F
:1003D000A31118160CF465C0EC2CFB2C0A2D1D2D56
:1003E00060C0C801B701A60195010E94031287FFF2
:1003F00058C0C601B50120E030E0A9010E94731188
:10040000882389F42F89388D498D5A8DCA01B90105
:100410000E946D0F0E94AE255B016C01D7FAD0944B
:10042000D7F8D09421C06F89788D898D9A8DA601D7
:1004300095010E94C510E62EF72E082F192F20E0F7
:1004400030E0A9010E94A311181624F017FB1095A3
:1004500017F91095C601B501A80197010E949A0FDE
:10046000A62EB72EC82ED92EEB88FC880D891E89A2
:1004700017FB109517F91095C601B501A801970152
:100480000E94031287FD0DC0860175010AC00F2E60
:10049000F0E0EF2EF0E0FF2EF0E00F2FF0E01F2F46
:1004A000F02D6E2D7F2D802F912FDF91CF911F91F9
:1004B0000F91FF90EF90DF90CF90BF90AF90089595
:1004C000AF92BF92CF92DF92EF92FF920F931F9362
:1004D000CF93DF93EC010E9413165B016C018B8DAF
:1004E0009C8DAD8DBE8D2F8D38A149A15AA1820F53
:1004F000931FA41FB51F8A159B05AC05BD05C0F54C
:10050000EF84F88809891A89C801B70120E030E032
:10051000A9010E94A311181644F48F819885A9851A
:10052000BA850196A11DB11D10C0C801B70120E018
:1005300030E0A9010E94031287FF0BC08F819885CC
:10054000A985BA850197A109B1098F839887A987E1
:10055000BA87E881F9816F8163700190F081E02DA5
:10056000CE010995AF8EB8A2C9A2DAA281E001C07E
:1005700080E0DF91CF911F910F91FF90EF90DF907E
:10058000CF90BF90AF900895FC01238534854585B9
:10059000568587819085A185B285281B390B4A0B2A
:1005A0005B0BB901CA010895FC01638574858585DB
:1005B00096850895FC0167817085818592850895EF
:1005C000FC0147835087618772870895FC0184E0AE
:1005D00091E09183808312821782108611861286A1
:1005E000138614861586168680E090E0DC018787E6
:1005F000908BA18BB28B80E090E0A0E8BFE3838B6F
:10060000948BA58BB68B878B908FA18FB28F138E17
:10061000148E158E168E178E10A211A212A213829E
:1006200014821582168274A363A356A345A308956A
:10063000AF92BF92CF92DF92EF92FF920F931F93F0
:10064000CF93DF93EC019A01AB012F87388B498B55
:100650005A8B60E070E08AE794E40E94C5107B0149
:100660008C015B016C0120E030E0A9010E94A31124
:1006700018161CF4B701C80103C0C601B501905893
:100680000E94F70D6B8F7C8F8D8F9E8FDF91CF91A6
:100690001F910F91FF90EF90DF90CF90BF90AF90A0
:1006A0000895CF93DF93EC01E881F9810284F3850B
:1006B000E02D0995AB01BC01CE010E941803DF912A
:1006C000CF910895FC01478B508F618F728F0E94EC
:1006D00051030895FC01438B548B658B768B0E94EC
:1006E00051030895CF93DF93EC012B853C854D8515
:1006F0005E858F819885A985BA85281739074A07AD
:100700005B0749F0CE010E946002882331F0CE01E0
:100710000E94510302C080E001C081E0DF91CF91CF
:100720000895FC0143875487658776870E945103AB
:1007300008950F931F93FC01078110852185328551
:10074000400F511F621F731F438754876587768749
:100750000E9451031F910F910895FC015785408914
:1007600031892289652F742F832F922F0895CF937B
:10077000DF93EC018A81882399F08B8160E00E94ED
:1007800004178C8160E00E9404178A81843041F450
:100790008D8160E00E9404178E8160E00E94041742
:1007A000DF91CF910895CF93DF93EC018A81882365
:1007B00099F08B8161E00E94E0168C8161E00E94DB
:1007C000E0168A81843041F48D8161E00E94E01658
:1007D0008E8161E00E94E016DF91CF910895EF9243
:1007E0000F93FC0184E091E0918380836283178200
:1007F000108611861286138614861586168680E06A
:1008000090E0DC018787908BA18BB28B80E090E039
:10081000A0E8BFE3838B948BA58BB68B878B908FDF
:10082000A18FB28F138E148E158E168E178E10A276
:1008300011A212A2438324830583E682CF010E9482
:10084000D3030F91EF900895CF93DF93EC01CE0186
:100850000E9472038823D9F7DF91CF910895FC019C
:100860006385748585859685278130854185528588
:10087000621773078407950721F0CF010E94600279
:10088000089580E00895CF93DF93EC014B875C8758
:100890006D877E870E945103CE010E942404DF9160
:1008A000CF910895EF92FF920F931F93DF93CF9311
:1008B0000F92CDB7DEB77C01162F042FFC016083A9
:1008C0007183862F61E059830E94E016812F61E0D9
:1008D0000E940417F701028359815383802F61E03E
:1008E0000E94E016802F61E00E9404170F90CF91C4
:1008F000DF911F910F91FF90EF9008950F931F9339
:10090000CF93DF93EC018B0177FD07C08A8160E014
:100910000E9404178881602F07C08A8161E00E94CD
:100920000417602F6150888140E00E94990ADF918E
:10093000CF911F910F91089580E00E94500A089571
:100940006F927F928F92AF92CF92EF92FF920F931E
:100950001F93DF93CF9300D00F92CDB7DEB73C014A
:1009600085E190E02B834A8369830E94781FF82EEB
:10097000192F69814A812B810E94A607F301F08219
:1009800011838F2D912F6A2D482D20E00E94F006B3
:10099000F301808191810E94E8060F900F900F90E3
:1009A000CF91DF911F910F91FF90EF90CF90AF907B
:1009B0008F907F906F9008950F931F93CF93DF9345
:1009C000EC018B01888199810E94E80688819981D8
:1009D00060E040E00E94B20688819981B8010E94DF
:1009E000EC1FDF91CF911F910F910895AF92BF92AD
:1009F000CF92DF92EF92FF920F931F93CF93DF93EB
:100A0000EC016B015A017901888199810E94E80605
:100A10008881998160E040E00E94B20688819981D6
:100A200060E171E00E941F2088819981B6014AE04F
:100A300050E00E94B1218881998169E040E00E94E4
:100A4000B2068881998166E171E00E941F20888149
:100A50009981B5014AE050E00E94B12188819981D5
:100A600060E041E00E94B206888199816BE171E00B
:100A70000E941F2088819981B7014AE050E00E94BE
:100A8000B1218881998169E041E00E94B2068881A4
:100A9000998161E271E00E941F2088819981B801EB
:100AA0004AE050E00E94B121DF91CF911F910F9158
:100AB000FF90EF90DF90CF90BF90AF900895CF93CD
:100AC000DF93EC018E8160E00E94041781E090E0EA
:100AD0000E946E168E8161E00E94041781E090E012
:100AE0000E946E168E8160E00E94041784E690E0FA
:100AF0000E946E16DF91CF910895AF92BF92CF9270
:100B0000DF92EF92FF920F931F93CF93DF937C01BD
:100B10008C01095F1F4FC0E0D0E0A62EBB24680106
:100B2000F80181918F0161E00E94E016B5010C2E61
:100B300002C0759567950A94E2F76170F6018081AD
:100B40000E9404172196C430D10549F7C7010E94BD
:100B50005F05DF91CF911F910F91FF90EF90DF9094
:100B6000CF90BF90AF900895AF92BF92CF92DF9297
:100B7000EF92FF920F931F93CF93DF937C018C0131
:100B8000095F1F4FC0E0D0E0A62EBB246801F8012A
:100B900081918F0161E00E94E016B5010C2E02C028
:100BA000759567950A94E2F76170F60180810E945D
:100BB00004172196C830D10549F7C7010E945F0587
:100BC000DF91CF911F910F91FF90EF90DF90CF9029
:100BD000BF90AF9008951F93CF93DF93EC01162F32
:100BE0008C81642F0E9404178D818F3F19F060E083
:100BF0000E9404178F8584FF05C0CE01612F0E94DB
:100C0000B4050FC0212F30E084E0359527958A95F3
:100C1000E1F7CE01622F0E947D05CE01612F0E9477
:100C20007D05DF91CF911F91089541E00E94EB0572
:100C300081E090E0089540E00E94EB050895CF9296
:100C4000DF92EF92FF920F931F93DF93CF9300D029
:100C5000CDB7DEB76C016770660F660F660F606414
:100C600049835A830E941B0649815A81E42EF52E3E
:100C700000E010E0D7016D917D01D601ED91FC916E
:100C80000190F081E02DC60109950F5F1F4F0830DC
:100C9000110581F70F900F90CF91DF911F910F9168
:100CA000FF90EF90DF90CF900895FC0161896E7FF7
:100CB000618B64600E941B060895FC016189262FE8
:100CC0002160218B65600E941B060895FC016189EB
:100CD0006D7F618B64600E941B060895FC01618931
:100CE000262F2260218B66600E941B0608956CE10E
:100CF0000E941B06089568E10E941B060895FC01EE
:100D00006089262F2160208B69600E941B06089550
:100D1000FC0160896E7F608B68600E941B060895ED
:100D2000FC016089262F2260208B6A600E941B06CE
:100D30000895FC0160896D7F608B68600E941B06CE
:100D40000895FC016089262F2460208B6C600E942E
:100D50001B060895FC0160896B7F608B68600E94B0
:100D60001B060895DF93CF93CDB7DEB728970FB654
:100D7000F894DEBF0FBECDBFFE013196ADE2B1E00B
:100D800028E00D9001922150E1F7FC0123894217E0
:100D900010F0422F4150E42FF0E0EE0FFF1FEC0F58
:100DA000FD1F2181260F2068622F0E941B062896B6
:100DB0000FB6F894DEBF0FBECDBFCF91DF9108957F
:100DC00062E00E941B0680ED97E00E946E16089577
:100DD00061E00E941B0680ED97E00E946E16089568
:100DE000CF93DF93EC01423018F08F8588608F87B6
:100DF0004B8B1C8A222329F0413019F48F858460A3
:100E00008F8780E593EC0E946E168C8160E00E94D3
:100E100004178E8160E00E9404178D818F3F19F0C6
:100E200060E00E9404176F8564FD1DC0CE0163E081
:100E30000E947D0584E991E10E946E16CE0163E077
:100E40000E947D0584E991E10E946E16CE0163E067
:100E50000E947D0586E990E00E946E16CE0162E058
:100E60000E947D0516C06062CE010E941B0684E9C7
:100E700091E10E946E166F856062CE010E941B0692
:100E800086E990E00E946E166F856062CE010E9436
:100E90001B066F856062CE010E941B0684E0888B72
:100EA000CE010E94A106CE010E94E80682E0898B55
:100EB000CE0166E00E941B06DF91CF9108956F92EC
:100EC0007F928F92AF92CF92EF920F931F93DF9307
:100ED000CF93CDB7DEB73C01162F842FF3014483A7
:100EE00025830683E782C086A18682869D859387B7
:100EF0009E8594879F8595879889968761E00E9453
:100F0000E016F30185818F3F19F061E00E94E01641
:100F1000F301868161E00E94E016112319F0F301CC
:100F2000178603C080E1F3018787C30160E141E0D8
:100F300020E00E94F006CF91DF911F910F91EF907A
:100F4000CF90AF908F907F906F9008958F92AF92D7
:100F5000CF92EF920F93CF93DF93A62F742F522F40
:100F6000302FAE2C8C2CEC011B821A82E9E2F1E0CE
:100F7000F983E88300D000D0EDB7FEB73196CDB746
:100F8000DEB7198211821282138261E04A2F2FEF9D
:100F9000072FE52EC32E0E945F070F900F900F9032
:100FA0000F90DF91CF910F91EF90CF90AF908F90F6
:100FB00008958F92AF92CF92EF920F931F93CF939A
:100FC000DF93162FF42FE22F702F5E2D3C2D8A2CED
:100FD000DC0113961C921E921297C9E2D1E0CD93C8
:100FE000DC9300D000D0CDB7DEB72196ADB7BEB749
:100FF00011961C9219821A821B8261E0412F2F2FB9
:101000000E2FE72EC52EA32E0E945F070F900F9084
:101010000F900F90DF91CF911F910F91EF90CF9094
:10102000AF908F9008958F92AF92CF92EF92FF92F0
:101030000F931F93DF93CF93CDB7DEB7F62EF42F28
:10104000E22F702F5E2D3C2DDC0113961C921E9218
:10105000129709E211E00D931C9300D000D00DB758
:101060001EB70F5F1F4FADB7BEB71196AC92D80138
:1010700011968C9211972C8512962C9312972D8590
:1010800013962C9360E04F2D2FEF0F2FEE2EC72ECF
:10109000A52E832E0E945F070F900F900F900F9048
:1010A000CF91DF911F910F91FF90EF90CF90AF9074
:1010B0008F9008958F92AF92CF92DF92EF92FF922E
:1010C0000F931F93DF93CF93CDB7DEB7A62FF42EE8
:1010D000D22E702F5E2D3C2DBA2DFC011382128270
:1010E00009E211E01183008300D000D00DB71EB7D4
:1010F0000F5F1F4FEDB7FEB781822D85F801218369
:101100002E8522832F85238360E04A2F2F2D0D2DDE
:10111000E72EC52EA32E8B2E0E945F070F900F90F7
:101120000F900F90CF91DF911F910F91FF90EF9053
:10113000DF90CF90AF908F9008952AEF30E0FC01C0
:10114000318F208F08956F927F928F929F92AF92EE
:10115000BF92CF92DF92EF92FF920F931F93CF93A4
:10116000DF93EC017A018B01488359836A837B8387
:10117000688579858A859B85A80197010E949A0FC9
:10118000288939894A895B890E94CB0F5B016C01F0
:10119000C801B7012C853D854E855F850E949A0F59
:1011A0002C893D894E895F890E94CB0F9B01AC0140
:1011B000C601B5010E946D0FD62EC72EB82EA92EDE
:1011C000A6019501852F942FA32FB22F8C839D8389
:1011D000AE83BF836E8C7F8C88A099A0652F742FFF
:1011E000832F922FA40193010E94A311181684F05B
:1011F0006A8C7B8C8C8C9D8CA6019501652F742F3D
:10120000832F922FA40193010E94031287FF04C031
:101210006C827D828E829F82EC86FD860E871F8780
:10122000DF91CF911F910F91FF90EF90DF90CF90C2
:10123000BF90AF909F908F907F906F900895AF92E6
:10124000BF92CF92DF92EF92FF920F931F93CF93B3
:10125000DF93EC015A016B0178018901688D798D6A
:10126000882777FD8095982F0E94331220E030E088
:101270004AE754E40E94C510562F472F382F292FD4
:10128000A88AB98ACA8ADB8AC801B701DA01F901DA
:101290002B2F3A2F4F2F5E2F0E94C5106C8B7D8B0A
:1012A0008E8B9F8BDF91CF911F910F91FF90EF90CD
:1012B000DF90CF90BF90AF9008956F927F928F9202
:1012C0009F92AF92BF92CF92DF92EF92FF920F93D5
:1012D0001F93CF93DF93EC015A016B0178018901D1
:1012E000CB01BA01A80197010E94A31118162CF195
:1012F000AA8EBB8ECC8EDD8EEE8EFF8E08A319A338
:101300006C807D808E809F80C401B301A80197010D
:101310000E94A31118162CF4EC82FD820E831F8309
:101320000CC0C401B301A60195010E94031287FFFE
:1013300004C0AC82BD82CE82DF82DF91CF911F914B
:101340000F91FF90EF90DF90CF90BF90AF909F9064
:101350008F907F906F900895F89410928000E1E84C
:10136000F0E01082109285001092840089E09DE3E5
:101370009093890080938800808188608083808139
:1013800084608083EFE6F0E08081826080837894DF
:1013900008951F920F920FB60F9211242F933F932F
:1013A0004F935F936F938F939F93AF93BF93EF93FD
:1013B000FF93809135018F5F8093350180913501D6
:1013C000882319F0E7E1F3E040C0E8E1F3E066814B
:1013D000662319F487818823F9F0848190E02581C0
:1013E00030E0AC01421B530B1416150644F466237F
:1013F000A1F0260F311D281739077CF40BC04115C9
:10140000510559F04781442341F0241B31098217CB
:1014100093071CF4C90101C08481858385818823D9
:1014200071F09081A181B2818381992321F49C91F3
:10143000982B9C9304C09C91809589238C9339961A
:1014400083E0EA32F80719F6BDCF808187FD13C02B
:10145000809135019681981771F48181A281B381C1
:101460009481882329F42C91892F8095822302C0AE
:101470008C91892B8C93399683E0E932F80729F710
:10148000FF91EF91BF91AF919F918F916F915F917C
:101490004F913F912F910F900FBE0F901F90189575
:1014A00091E097BB92E09093B1009093B00022E856
:1014B0002093B300E0E7F0E0908390819FEF90935A
:1014C00017031092180310921A0310921903109226
:1014D0001E0310921F039093200310922103109279
:1014E0002303109222031092270310922803809363
:1014F0001603089591E0662309F490E030911703F4
:101500002091200387FF06C008C09093180387FF2F
:101510000AC00CC0381739F4F8CF37FFF6CF06C031
:10152000909321030895281719F4FACF27FFF8CFD5
:1015300008951F93182F442329F01092B2008FEFC3
:1015400080933501E7E1F3E090E08FEF208117FF12
:1015500003C027FF03C005C0211719F4658317FFD7
:101560004DC08F3F19F4208127FD892F9F5F399649
:10157000923061F717FD42C08F3F09F43FC09927B1
:1015800087FD9095DC0123E0AA0FBB1F2A95E1F7A8
:10159000A80FB91FA95EBC4F1C938091160311962A
:1015A0008C931197212F332727FD3095F901EA57A6
:1015B000FF4FE491F0E0EE0FFF1FEE58FF4F459113
:1015C000549112964C93129713965C931397265648
:1015D0003F4FF901249114962C93149715966C9310
:1015E0001597882319F4812F60E002C0812F61E0F4
:1015F0000E940417812F61E00E94E0161F91089558
:10160000E82F8FEF689FB0011124CB0164E670E0F2
:101610000E9424258E2F0E94990A08950F931F93EC
:10162000CF93DF93182FC7E1D3E00FEF888117FF27
:1016300003C087FF03C00BC0811749F4888161E0B4
:101640000E940417888160E00E94E01608832996B2
:1016500083E0C932D80751F7DF91CF911F910F91E5
:1016600008952F923F924F925F926F927F928F9246
:101670009F92AF92BF92CF92DF92EF92FF921F9311
:10168000DF93CF9300D000D0CDB7DEB7182F4B013A
:101690005A0127E133E02A016624772440EFC42E63
:1016A0004FE0D42EE12CF12CCB01A0E0B0E08983F7
:1016B0009A83AB83BC831901D1018C9117FF03C0BE
:1016C00087FF03C026C0811721F58114910451F0D2
:1016D000C701B60129813A814B815C810E944B256B
:1016E000C90102C080E090E0F1018783A114B10438
:1016F00041F0C701B601A30192010E944B25C90127
:1017000002C080E090E0D10118968C93189717FFE3
:1017100009C0E9E0F0E02E0E3F1EF9E22F16F3E0DB
:101720003F0651F60F900F900F900F90CF91DF91E1
:101730001F91FF90EF90DF90CF90BF90AF909F9060
:101740008F907F906F905F904F903F902F90089573
:10175000EF920F93CF93DF93EC010E94EF038AE3A4
:1017600091E099838883DF91CF910F91EF90089555
:10177000EF92FF920F931F93CF93DF937C01EB01C6
:101780000E94DA02AB01BC018E01222717FD2095D1
:10179000322F400F511F621F731FC7010E94910318
:1017A000DF91CF911F910F91FF90EF900895CF930C
:1017B000DF93EC01882777FD8095982F0E943312E4
:1017C000AB01BC01CE010E941803DF91CF910895B7
:1017D0008F92AF92CF92DF92EF92FF920F931F936F
:1017E000CF93DF93C9ECD3E0CE0140E855E260E04F
:1017F00070E00E94122464E670E080E090E00E94B5
:101800004716CE0166E471E00E94702082E090E00D
:101810000E94781F182FF92E6CE04BE025E004E0C1
:10182000F3E0EF2EE2E0CE2E70E1A72E52E0852EFF
:101830000E94A00410932D03F0922E0364E670E042
:1018400080E090E00E944716CE0165E571E00E94BD
:1018500070200E949C0464E670E080E090E00E94AA
:101860004716CE0164E671E00E94702084E090E0AB
:101870000E94781F8C0161E170E04EE050E00E9410
:10188000520400932F031093300384E090E00E94F1
:10189000781F8C0162E170E043E150E00E94520445
:1018A000009331031093320364E670E080E090E02F
:1018B0000E944716CE0168E771E00E94702087E21F
:1018C00090E00E94781FF82E192F64E048E029E08C
:1018D00006E037E0E32E0E94A80BF092330310934A
:1018E00034038F2D912F40E050E06AEF73E40E94A3
:1018F0006A03809133039091340340E050E068E440
:1019000073E40E94620364E670E080E090E00E946D
:101910004716CE0161E971E00E94702082E290E0FA
:101920000E94781F8C010E949D0810932A03009347
:1019300029030F2EF0E0CF2EF0E0DF2EF0E7EF2EA0
:10194000F2E4FF2EF02DF801C086D186E286F38600
:10195000C80140E050E060EC70E40AE017ED23EAD3
:101960003BE30E941F098091290390912A0340E0E4
:1019700050E06FE773EC00E010E02FE733E40E94E3
:101980005D0964E670E080E090E00E944716CE01B9
:1019900065EA71E00E94702082E290E00E94781F68
:1019A0008C010E949D0810932C0300932B03F801D7
:1019B000C086D186E286F386C80143E353E363E73A
:1019C00070E40CEA15EC27E237E30E941F098091CE
:1019D0002B0390912C0340E050E06FE773EC00E0A4
:1019E00010E02FE733E40E945D0964E670E080E0D8
:1019F00090E00E944716CE016AEB71E00E947020D1
:101A00000E94AC0964E670E080E090E00E94471616
:101A1000DF91CF911F910F91FF90EF90DF90CF90CA
:101A2000AF908F9008951F920F920FB60F921124CE
:101A30002F933F934F935F936F937F938F939F93D6
:101A4000AF93BF93CF93DF93EF93FF93C09129039D
:101A5000D0912A0381E00E944A159C01B901882790
:101A600077FD8095982F0E943312AB01BC01CE0107
:101A70000E94A308C0912B03D0912C0382E00E9406
:101A80004A159C01B901882777FD8095982F0E94FF
:101A90003312AB01BC01CE010E94A308C0912F03F9
:101AA000D0913003E0912903F0912A03648175817C
:101AB0008681978190580E9493129B01AC01CE01C0
:101AC000B9010E947E04C0913103D0913203E091AC
:101AD0002B03F0912C0364817581868197810E948C
:101AE00093129B01AC01CE01B9010E947E04FF91CB
:101AF000EF91DF91CF91BF91AF919F918F917F91A6
:101B00006F915F914F913F912F910F900FBE0F906A
:101B10001F901895EF92FF920F931F93DF93CF932F
:101B2000CDB7DEB727970FB6F894DEBF0FBECDBF97
:101B3000E0902D03F0902E038E010F5F1F4FC80120
:101B40006EEC71E00E94D817C701B8010E94DC0456
:101B5000C8010E94661780913303909134036CE0B2
:101B60007EEF0E94D70B80913303909134030E9443
:101B70006002F9CF08950F931F930E9478160E9478
:101B8000E80B80912D0390912E0360E070E040E01F
:101B900050E020E030E000E010E00E94F604809188
:101BA00033039091340360E971E00E94B80B809197
:101BB0003303909134030E9472038823C1F780910C
:101BC0003503909136030196909336038093350345
:101BD00068EE73E080E090E00E9447166091350364
:101BE0007091360380912D0390912E03D0CFEF9208
:101BF000FF920F931F937B018C0120E030E040E0C7
:101C00005FE40E94D31187FD11C0C801B70120E035
:101C100030E040E05FE40E949A0F0E9493129B0123
:101C2000AC01205030404040504806C0C801B701C8
:101C30000E9493129B01AC01B901CA011F910F913F
:101C4000FF90EF900895A0E0B0E0E9E2FEE00C9490
:101C50007125FC01EA018081823008F438C1DB0182
:101C60009C91923008F430C1843059F4943009F0DA
:101C70002EC1918111968C911197981709F021C16D
:101C800026C1943009F420C19230B1F4823009F0B9
:101C90001EC1CA01AF0128E0DA010D90AD01DC01DF
:101CA0000D92CD012150C1F7DB0111968C91119756
:101CB0009181892389830AC1823009F405C1C280D8
:101CC000D380DB0112966D907C901397248135812F
:101CD000468157811496ED90FD900D911C911797B8
:101CE000C601861997095C0197FF04C0AA24BB248A
:101CF000A81AB90AB0E2AB16B1040CF061C018160C
:101D000019066CF5370148010A2C04C09694879493
:101D1000779467940A94D2F781E090E0A0E0B0E075
:101D20000A2C04C0880F991FAA1FBB1F0A94D2F760
:101D30000197A109B1098E219F21A023B123EE248F
:101D4000FF248701E3940097A105B10519F4EE245F
:101D5000FF248701E628F728082919293CC00097A5
:101D6000D1F1CA0CDB1C39014A010A2C04C096943B
:101D70008794779467940A94D2F781E090E0A0E08A
:101D8000B0E00A2C04C0880F991FAA1FBB1F0A9439
:101D9000D2F70197A109B10982239323A423B52384
:101DA00021E030E040E050E00097A105B10519F4D2
:101DB00020E030E0A90126293729482959290BC0FC
:101DC0006C147D0424F4EE24FF24870104C0630115
:101DD00020E030E0A9018181FB019181891709F49C
:101DE00045C0882349F0D801C701821B930BA40B7F
:101DF000B50B9C01AD0104C02E193F09400B510BDE
:101E000057FD04C01982DB82CA820BC081E089833E
:101E1000DB82CA8250954095309521953F4F4F4FB8
:101E20005F4F2C833D834E835F830DC0880F991FC6
:101E3000AA1FBB1F8C839D83AE83BF838A819B8136
:101E400001979B838A838C819D81AE81BF819C0198
:101E5000AD0121503040404050402F3FEFEF3E0752
:101E6000EFEF4E07EFE35E0708F30BC08983DB82D9
:101E7000CA822E0D3F1D401F511F2C833D834E8370
:101E80005F8383E088832C813D814E815F8157FF92
:101E90001DC0DA01C90181709070A070B0705695B4
:101EA000479537952795822B932BA42BB52B8C83A5
:101EB0009D83AE83BF838A819B8101969B838A83A6
:101EC00005C0EEEDF1E003C0FB0101C0FE01CF0152
:101ED000CDB7DEB7EEE00C948D25A0E2B0E0E3E7ED
:101EE000FFE00C94792569837A838B839C832D830F
:101EF0003E834F83588789E0E82EF12CEC0EFD1EBF
:101F0000CE010196B7010E9485148E010F5E1F4F0E
:101F1000CE010596B8010E948514C701B801AE0133
:101F2000475E5F4F0E94230E0E94B713A096E6E023
:101F30000C949525A0E2B0E0E0EAFFE00C9479254E
:101F400069837A838B839C832D833E834F83588759
:101F50008E01075F1F4FCE010196B8010E948514C4
:101F600091E1E92EF12CEC0EFD1ECE010596B70194
:101F70000E9485148A8991E089278A8BC801B7015C
:101F8000AE01475E5F4F0E94230E0E94B713A096DA
:101F9000E6E00C949525A0E2B0E0E1EDFFE00C94C2
:101FA0006D2569837A838B839C832D833E834F8346
:101FB0005887CE010196BE01675F7F4F0E9485144E
:101FC000CE010596BE016F5E7F4F0E9485149985F4
:101FD000923078F089898230C0F0943019F48230E0
:101FE00041F4CBC0843019F4923079F4C6C09230F9
:101FF00051F481E02A859A89291709F480E08A87BB
:10200000CE010996BCC0823051F481E02A859A89BC
:10201000291709F480E08A8BCE014196B0C06D8407
:102020007E848F849888ED88FE880F89188DE0E281
:10203000F0E080E090E0DC01AA24BB24650120E010
:1020400030E0A901B3016170707061157105D1F0C4
:102050002E0D3F1D401F511F15012601280E391E50
:102060004A1E5B1E81E090E0A0E0B0E02E153F0527
:102070004007510718F080E090E0DC01820D931DCD
:10208000A41DB51DAA0CBB1CCC1CDD1C17FF09C070
:1020900061E0262E312C412C512CA228B328C428D3
:1020A000D528319749F0EE0CFF1C001F111F9694A4
:1020B000879477946794C6CF6B897C89EB85FC8580
:1020C0006E0F7F1F6E5F7F4F7C8F6B8F61E0EA85A5
:1020D0007A89E71709F460E06A8F6B8D7C8D10C0F8
:1020E000FC01E170F070309729F0569547953795CF
:1020F00027955068B695A795979587956F5F7F4F01
:10210000B7FDEECF0CC0880F991FAA1FBB1F57FD4C
:102110008160220F331F441F551F61507040803073
:10212000E0E09E07E0E0AE07E0E4BE0760F36B8FFF
:102130007C8F6FE7E62EF12C012D112DE822F9227C
:102140000A231B2360E4E616F1040105110561F47E
:1021500087FD0AC0211531054105510529F0805C34
:102160009F4FAF4FBF4F80788D8F9E8FAF8FB8A39B
:1021700083E0898FCE01499602C08EED91E00E94E6
:10218000B713A096E2E10C948925A8E1B0E0EBEC4E
:10219000F0E10C94752569837A838B839C832D836E
:1021A0003E834F8358878E01075F1F4FCE010196F4
:1021B000B8010E94851481E1E82EF12CEC0EFD1E81
:1021C000CE010596B7010E9485149985923008F4D6
:1021D00083C08989823008F47BC02A853A89232705
:1021E0002A87943011F0923021F4981709F06CC0CE
:1021F00071C0843039F41D861E861F86188A1C869D
:102200001B866AC0823019F484E0898765C08B859B
:102210009C852B893C89821B930B9C878B872D8502
:102220003E854F855889ED88FE880F89188D2E15BB
:102230003F054007510738F4220F331F441F551F35
:1022400001979C878B876FE170E0A12CB12CC12C8A
:10225000A0E4DA2E80E090E0DC012E153F05400777
:10226000510740F08A299B29AC29BD292E193F0925
:10227000400B510BD694C794B794A794220F331FE9
:10228000441F551F6150704041F76FE7E62EF12C57
:10229000012D112DE822F9220A231B2360E4E61602
:1022A000F1040105110561F487FD0AC0211531050E
:1022B0004105510529F0805C9F4FAF4FBF4F80789B
:1022C0008D879E87AF87B88B8E01075F1F4F04C035
:1022D000870102C00EED11E0C8010E94B713689695
:1022E000EAE00C949125A8E1B0E0E9E7F1E10C9473
:1022F000792569837A838B839C832D833E834F83E7
:1023000058878E01075F1F4FCE010196B8010E94CA
:10231000851481E1E82EF12CEC0EFD1ECE01059610
:10232000B7010E9485148985823040F08989823006
:1023300028F0C801B7010E94EE1401C081E0689640
:10234000E6E00C949525A8E1B0E0E9EAF1E10C940F
:10235000792569837A838B839C832D833E834F8386
:1023600058878E01075F1F4FCE010196B8010E946A
:10237000851481E1E82EF12CEC0EFD1ECE010596B0
:10238000B7010E9485148985823040F089898230A6
:1023900028F0C801B7010E94EE1401C08FEF6896C3
:1023A000E6E00C949525A8E1B0E0E9EDF1E10C94AC
:1023B000792569837A838B839C832D833E834F8326
:1023C00058878E01075F1F4FCE010196B8010E940A
:1023D000851481E1E82EF12CEC0EFD1ECE01059650
:1023E000B7010E9485148985823040F08989823046
:1023F00028F0C801B7010E94EE1401C08FEF689663
:10240000E6E00C949525A8E1B0E0E9E0F2E10C9457
:10241000792569837A838B839C832D833E834F83C5
:1024200058878E01075F1F4FCE010196B8010E94A9
:10243000851481E1E82EF12CEC0EFD1ECE010596EF
:10244000B7010E9485148985823040F089898230E5
:1024500028F0C801B7010E94EE1401C081E068961F
:10246000E6E00C949525A8E0B0E0E9E3F2E10C94F5
:1024700079257B018C0183E08983D801C7018827F6
:10248000B7FD83959927AA27BB27282F8A83E114B4
:10249000F1040105110519F482E0898337C08EE14A
:1024A00090E09C838B83222389F080E0E81680E013
:1024B000F80680E0080780E8180769F11095009594
:1024C000F094E094E11CF11C011D111DED82FE82CF
:1024D0000F831887C801B7010E945D139C0121502A
:1024E00030401216130694F4022E04C0EE0CFF1CAA
:1024F000001F111F0A94D2F7ED82FE820F83188706
:102500008EE190E0821B930B9C838B83CE0101961E
:102510000E94B71304C060E070E080E09FEC289652
:10252000E6E00C949525ACE0B0E0E9E9F2E10C942A
:102530007D2569837A838B839C83CE010196BE01BE
:102540006B5F7F4F0E9485148D81823081F18230D4
:1025500070F1843021F48E81882369F10AC02F81C3
:10256000388537FD24C06E812F3131053CF066235C
:1025700011F120E030E040E050E821C08EE190E031
:10258000821B930B29853A854B855C8504C0569543
:102590004795379527958A95D2F7662381F0509510
:1025A0004095309521953F4F4F4F5F4F08C020E039
:1025B00030E0A90104C02FEF3FEF4FEF5FE7B90113
:1025C000CA012C96E2E00C949925A8E0B0E0EBEE6D
:1025D000F2E10C9477257B018C011A82611571055B
:1025E0008105910519F482E089835FC083E08983C6
:1025F0008EE1C82ED12CDC82CB82ED82FE820F834D
:102600001887C801B7010E945D13FC013197F7FFDD
:102610003AC0AA27BB27AE1BBF0B21E030E040E049
:1026200050E00A2E04C0220F331F441F551F0A9486
:10263000D2F721503040404050402E213F214023CE
:10264000512361E070E080E090E021153105410503
:10265000510519F460E070E0CB0104C016950795B0
:10266000F794E794AA95D2F7E62AF72A082B192BB4
:10267000ED82FE820F8318878EE190E08E1B9F0B08
:102680009C838B8312C0309781F00E2E04C0EE0C19
:10269000FF1C001F111F0A94D2F7ED82FE820F83E8
:1026A0001887CE1ADF0ADC82CB82CE0101960E9407
:1026B000B7132896E8E00C949325AF92BF92CF927F
:1026C000DF92EF92FF920F931F937B018C0180E0CA
:1026D000E81680E0F80681E0080780E0180758F463
:1026E000EFEFEE16F1040105110509F090F480E01A
:1026F00090E0DC0117C0F0E0EF16F0E0FF06F0E03C
:102700000F07F1E01F0750F480E190E0A0E0B0E097
:1027100009C088E090E0A0E0B0E004C088E190E06B
:10272000A0E0B0E020E230E040E050E0281B390BB0
:102730004A0B5B0B5701680104C0D694C794B79449
:10274000A7948A95D2F7D601C5018A519E4FFC0104
:102750008081281B310941095109C9011F910F913D
:10276000FF90EF90DF90CF90BF90AF900895EF92E1
:10277000FF920F931F93CF93DF93FC012481358148
:102780004681578161818081823020F44061EFEF82
:10279000F0E0A3C0843009F49BC0823009F492C0F9
:1027A000211531054105510509F48FC00280F381DF
:1027B000E02D8FEFE238F8070CF05AC0C2E8DFEFE7
:1027C000CE1BDF0BCA31D1056CF579018A010C2EC5
:1027D00004C016950795F794E7940A94D2F781E020
:1027E00090E0A0E0B0E00C2E04C0880F991FAA1F53
:1027F000BB1F0A94D2F70197A109B1098223932341
:10280000A423B52321E030E040E050E00097A1058B
:10281000B10519F420E030E0A9012E293F29402B11
:10282000512B03C020E030E0A901DA01C9018F7704
:102830009070A070B07080349105A105B10539F495
:1028400027FF09C0205C3F4F4F4F5F4F04C0215C02
:102850003F4F4F4F5F4FE1E0F0E0203080E038071E
:1028600080E0480780E4580728F5E0E0F0E022C067
:10287000E038F1056CF5E158FF4FDA01C9018F77B7
:102880009070A070B07080349105A105B10539F445
:1028900027FF09C0205C3F4F4F4F5F4F04C0215CB2
:1028A0003F4F4F4F5F4F57FF05C0569547953795A0
:1028B0002795319687E056954795379527958A95C0
:1028C000D1F70BC0E0E0F0E005C0E0E0F0E005C0CB
:1028D000EFEFF0E020E030E0A9018E2F8795882708
:1028E0008795942F9F77679566276795E695E22EE3
:1028F000A92FA82BFE2FF62B622F732F8A2F9F2F25
:10290000CDB7DEB7E6E00C949525DC01FB012C91F8
:1029100011963C91119712968C911297482F4F77F0
:1029200050E0982F991F9927991F13966C91139730
:10293000862F880F892B90E0661F6627661F6183AC
:10294000009739F5211531054105510511F482E053
:1029500029C082E89FEF9383828367E0220F331FB1
:10296000441F551F6A95D1F783E0808309C0220F69
:10297000331F441F551F8281938101979383828364
:10298000203080E0380780E0480780E4580778F37B
:1029900020C08F3F910579F421153105410551057E
:1029A00019F484E08083089544FF03C081E08083AC
:1029B00010C010820EC08F5790409383828383E0B3
:1029C000808387E0220F331F441F551F8A95D1F75C
:1029D000506424833583468357830895FC01DB01CB
:1029E0009081923008F449C08C91823008F445C03F
:1029F000943051F461818430B1F511962C91119786
:102A000030E0261B310941C0843021F0923041F47E
:102A10008230B1F111968C9111978823A1F12DC0CC
:102A20006181823001F111968C9111976817D9F468
:102A30002281338112968D919C911397821793076F
:102A400094F028173907BCF02481358146815781DD
:102A500014968D919D910D90BC91A02D8217930796
:102A6000A407B50718F4662341F00DC028173907ED
:102A70004A075B0728F4662331F021E030E005C007
:102A800020E030E002C02FEF3FEFC90108958093AE
:102A9000EC0208958E3008F08E5087709091EC0211
:102AA0009295990F990F907C982B90937C00809130
:102AB0007A00806480937A0080917A0086FDFCCF52
:102AC0002091780030917900932F80E030E0282B1E
:102AD000392BC90108951F93CF93DF93182FEB0172
:102AE00061E00E94E016209709F44AC0CF3FD1056B
:102AF00009F449C0E12FF0E0E255FF4FE491E330E3
:102B0000C1F0E43028F4E13051F0E230B1F50CC00E
:102B1000E63019F1E73049F1E43079F514C084B5B5
:102B2000806884BDC7BD33C084B5806284BDC8BD24
:102B30002EC080918000806880938000D0938900AF
:102B4000C093880024C080918000806280938000C0
:102B5000D0938B00C0938A001AC08091B000806827
:102B60008093B000C093B30012C08091B000806227
:102B70008093B000C093B4000AC0C038D1051CF4E3
:102B8000812F60E002C0812F61E00E940417DF9175
:102B9000CF911F9108951F920F920FB60F9211249B
:102BA0002F933F938F939F93AF93BF9380913B035A
:102BB00090913C03A0913D03B0913E0330913F03BF
:102BC0000196A11DB11D232F2D5F2D3720F02D570C
:102BD0000196A11DB11D20933F0380933B03909369
:102BE0003C03A0933D03B0933E0380913703909143
:102BF0003803A0913903B0913A030196A11DB11D8C
:102C00008093370390933803A0933903B0933A032A
:102C1000BF91AF919F918F913F912F910F900FBED8
:102C20000F901F9018958FB7F89420913B03309127
:102C30003C0340913D0350913E038FBFB901CA014F
:102C400008959FB7F894209137033091380340914D
:102C5000390350913A0386B5A89B06C08F3F21F0F7
:102C60002F5F3F4F4F4F5F4F9FBF542F432F322F48
:102C70002227280F311D411D511D82E0220F331FD5
:102C8000441F551F8A95D1F7B901CA010895EF92E3
:102C9000FF920F931F93CF93DF937B018C010E94D0
:102CA0002116EB010FC00E9421166C1B7D0B83E0E7
:102CB000683E780738F00894E108F1080109110925
:102CC000C851DC4FE114F1040105110561F7DF91F2
:102CD000CF911F910F91FF90EF900895019739F0D8
:102CE000880F991F880F991F02970197F1F7089590
:102CF000789484B5826084BD84B5816084BD85B5D7
:102D0000826085BD85B5816085BDEEE6F0E080819D
:102D100081608083E1E8F0E01082808182608083BE
:102D2000808181608083E0E8F0E080818160808341
:102D3000E1EBF0E0808184608083E0EBF0E0808173
:102D400081608083EAE7F0E0808184608083808115
:102D500082608083808181608083808180688083BD
:102D60001092C1000895833071F0843028F48130CE
:102D7000A1F0823021F514C08630B1F08730D1F057
:102D80008430E9F404C0809180008F7703C0809183
:102D900080008F7D80938000089584B58F7702C076
:102DA00084B58F7D84BD08958091B0008F77809326
:102DB000B00008958091B0008F7D8093B000089599
:102DC00090E0FC01E656FF4F2491FC01EA57FF4FCB
:102DD000E491EE23C1F0F0E0EE0FFF1FE859FF4F42
:102DE00085919491DC01662341F49FB7F8948C910E
:102DF000209582238C939FBF08959FB7F8948C9160
:102E0000822B8C939FBF08950F931F93DF93CF93D3
:102E10000F92CDB7DEB7282F30E0F901E255FF4F12
:102E20008491F901E656FF4F14912A573F4FF9015B
:102E300004910023D9F0882321F069830E94B316FE
:102E40006981E02FF0E0EE0FFF1FEE58FF4F8591F4
:102E50009491DC019FB7F894662321F48C9110952E
:102E6000812302C08C91812B8C939FBF0F90CF91B7
:102E7000DF911F910F9108950F931F93282F30E03A
:102E8000F901E255FF4F8491F901E656FF4F049195
:102E90002A573F4FF9011491112391F0882311F023
:102EA0000E94B316E12FF0E0EE0FFF1FE458FF4F32
:102EB00085919491DC018C91802321E030E011F424
:102EC00020E030E0C9011F910F910895FC0180813D
:102ED00091810E94C0260895CF93DF93EC018881F1
:102EE0009981009711F00E94C026198218821D82D4
:102EF0001C821B821A82DF91CF9108950F931F933A
:102F0000CF93DF93EC018B016F5F7F4F88819981B5
:102F10000E945927009731F0998388831B830A8385
:102F200081E001C080E0DF91CF911F910F91089562
:102F3000CF93DF93EC0188819981009729F08A81F2
:102F40009B818617970778F4CE010E947E1788230D
:102F500041F08C819D81009731F4E881F9811082E4
:102F600002C080E001C081E0DF91CF910895EF922F
:102F7000FF920F931F93CF93DF93EC017B018A01A4
:102F8000BA010E949817882321F4CE010E946C1781
:102F900007C01D830C8388819981B7010E94922804
:102FA000CE01DF91CF911F910F91FF90EF90089587
:102FB000CF93DF93FC01118210821382128215825B
:102FC000148216826115710559F0EB0109900020F9
:102FD000E9F7AE0141505040461B570B0E94B7170E
:102FE000DF91CF910895EF92FF92CF93DF93EC01A1
:102FF000FB018617970761F060817181611571058A
:1030000029F0448155810E94B71702C00E946C17B5
:10301000CE01DF91CF91FF90EF900895FC011182D6
:103020001082138212821582148216820E94F31774
:1030300008950F931F938C016115710561F0DB01F9
:103040000D900020E9F7AD0141505040461B570B51
:103050000E94B71702C00E946C17C8011F910F9100
:103060000895EF92FF920F931F93DF93CF93CDB705
:10307000DEB7A1970FB6F894DEBF0FBECDBF7C01BF
:10308000CB01BA01F70111821082138212821582DC
:10309000148216828E010F5F1F4FA80130E00E943C
:1030A0004529C701B8010E941918A1960FB6F894D6
:1030B000DEBF0FBECDBFCF91DF911F910F91FF906B
:1030C000EF900895EF92FF920F931F93DF93CF93AA
:1030D000CDB7DEB7A2970FB6F894DEBF0FBECDBF57
:1030E0007C01CB01BA01F701118210821382128296
:1030F0001582148216828E010F5F1F4FA80130E0E7
:103100000E94FC28C701B8010E941918A2960FB6A8
:10311000F894DEBF0FBECDBFCF91DF911F910F910D
:10312000FF90EF900895EF92FF920F931F93DF931C
:10313000CF93CDB7DEB761970FB6F894DEBF0FBE61
:10314000CDBF7C01CB01F701118210821382128264
:103150001582148216828E010F5F1F4FB80150E056
:103160000E946A29C701B8010E94191861960FB61A
:10317000F894DEBF0FBECDBFCF91DF911F910F91AD
:10318000FF90EF900895EF92FF920F931F93DF93BC
:10319000CF93CDB7DEB762970FB6F894DEBF0FBE00
:1031A000CDBF7C01CB01F701118210821382128204
:1031B0001582148216828E010F5F1F4FB80150E0F6
:1031C0000E94DB28C701B8010E94191862960FB649
:1031D000F894DEBF0FBECDBFCF91DF911F910F914D
:1031E000FF90EF900895EF92FF920F931F93DF935C
:1031F000CF93CDB7DEB729970FB6F894DEBF0FBED9
:10320000CDBF7C01862FF7011182108213821282BA
:1032100015821482168290E08E010F5F1F4FB80155
:1032200050E00E946A29C701B8010E941918299626
:103230000FB6F894DEBF0FBECDBFCF91DF911F91C7
:103240000F91FF90EF900895DF93CF9300D0CDB70B
:10325000DEB7FC0111821082138212821582148261
:10326000168269831A82BE016F5F7F4F0E94191810
:103270000F900F90CF91DF910895EF92FF920F93EF
:103280001F93CF93DF93EC017B010C811D816115AE
:103290007105B9F04115510591F0040F151FB801E2
:1032A0000E949817882369F0288139818C819D813B
:1032B000820F931FB7010E9492281D830C8381E027
:1032C00001C080E0DF91CF911F910F91FF90EF90AF
:1032D0000895FB0160817181448155810E943D19EF
:1032E00008956115710561F0DB010D900020E9F78B
:1032F000AD0141505040461B570B0E943D190895A7
:1033000080E00895DF93CF9300D0CDB7DEB7698317
:103310001A82BE016F5F7F4F41E050E00E943D196D
:103320000F900F90CF91DF910895EF92FF920F933E
:103330001F93DF93CF9300D000D0CDB7DEB77C01D1
:10334000862F90E08E010F5F1F4FB8014AE050E0DA
:103350000E94DB28F80101900020E9F7AF014150FD
:103360005040401B510BC701B8010E943D190F90FE
:103370000F900F900F90CF91DF911F910F91FF90C1
:10338000EF900895EF92FF920F931F93DF93CF93E7
:10339000CDB7DEB727970FB6F894DEBF0FBECDBF0F
:1033A0007C01CB018E010F5F1F4FB8014AE050E056
:1033B0000E94DB28F80101900020E9F7AF0141509D
:1033C0005040401B510BC701B8010E943D19279680
:1033D0000FB6F894DEBF0FBECDBFCF91DF911F9126
:1033E0000F91FF90EF900895EF92FF920F931F932C
:1033F000DF93CF9300D000D000D0CDB7DEB77C01F3
:10340000CB018E010F5F1F4FB8014AE050E00E94D0
:103410006A29F80101900020E9F7AF0141505040BE
:10342000401B510BC701B8010E943D1926960FB6EB
:10343000F894DEBF0FBECDBFCF91DF911F910F91EA
:10344000FF90EF900895EF92FF920F931F93DF93F9
:10345000CF93CDB7DEB72C970FB6F894DEBF0FBE73
:10346000CDBF7C01CB01BA018E010F5F1F4FA801B8
:103470002AE030E00E94FC28F80101900020E9F7E2
:10348000AF0141505040401B510BC701B8010E9491
:103490003D192C960FB6F894DEBF0FBECDBFCF916D
:1034A000DF911F910F91FF90EF900895EF92FF929F
:1034B0000F931F93DF93CF93CDB7DEB72B970FB644
:1034C000F894DEBF0FBECDBF7C01CB01BA018E01E7
:1034D0000F5F1F4FA8012AE030E00E944529F80144
:1034E00001900020E9F7AF0141505040401B510BC3
:1034F000C701B8010E943D192B960FB6F894DEBFA4
:103500000FBECDBFCF91DF911F910F91FF90EF9034
:1035100008950F931F938C01FB0160817181448199
:1035200055810E943D19882319F4C8010E946C1727
:10353000C8011F910F9108950F931F938C0161157E
:10354000710569F0DB010D900020E9F7AD014150F4
:103550005040461B570B0E943D19882319F4C8019F
:103560000E946C17C8011F910F9108950F931F932C
:103570008C010E948219882319F4C8010E946C17DB
:10358000C8011F910F9108950F931F938C010E9402
:103590009519882319F4C8010E946C17C8011F915E
:1035A0000F9108950F931F938C010E94C2198823D5
:1035B00019F4C8010E946C17C8011F910F9108955A
:1035C0000F931F938C010E94F419882319F4C801EA
:1035D0000E946C17C8011F910F9108950F931F93BC
:1035E0008C010E94231A882319F4C8010E946C17C9
:1035F000C8011F910F9108950F931F938C010E9492
:10360000561A882319F4C8010E946C17C8011F912B
:103610000F910895CF93DF93FC01DB0180819181AD
:10362000009731F06D917C91119761157105E9F466
:10363000CD91DC911197209769F014962D913C91D2
:1036400015972115310531F0288130E0309521950D
:103650003F4F12C0009771F024813581211531054B
:1036600049F0FC01208130E007C00E948928282F02
:10367000392F02C020E030E0C901DF91CF910895D9
:10368000FC0144815581FB01248135814217530798
:1036900029F40E940A1B21E0009709F020E0822F04
:1036A0000895FC0184819581009741F461157105AD
:1036B00019F081E0FB0109C081E008950190F081DB
:1036C000E02D6115710531F481E09081992359F065
:1036D00080E00895CF010E9489289C0181E0211596
:1036E000310509F080E008950E940A1B892F881F88
:1036F0008827881F08950E940A1B21E018161906C2
:103700000CF020E0822F08950E940A1B21E0181679
:1037100019060CF420E0822F08950E940A1B892FBD
:103720008095881F8827881F0895EF92FF920F9336
:103730001F93CF93DF93FC01DB018617970729F1D5
:103740008481958114962D913C911597821793074A
:10375000F1F40097D1F000811181CD91DC911197A6
:103760000FC0992787FD90950E9453287C0189916D
:10377000992787FD90950E945328E816F90639F499
:10378000F80181918F01882361F781E001C080E019
:10379000DF91CF911F910F91FF90EF900895FC0161
:1037A000DB01CA0114964D915C91159724813581F6
:1037B000241B350B28173907A0F0208131812115F2
:1037C000310579F06D917C9111976115710559F072
:1037D000820F931F0E9499289C0181E021153105D9
:1037E00019F080E0089580E00895FC01448155813E
:1037F000FB01248135814217530728F040E050E057
:103800000E94CF1B089580E00895FC01DB018481B4
:10381000958114964D915C91159784179507B0F09A
:10382000208131812115310589F06D917C911197AD
:103830006115710569F0841B950B820F931F0E941F
:1038400089289C0181E02115310519F080E0089557
:1038500080E00895FC01848195816817790730F430
:103860000190F081E02DE60FF71F40830895FC01E1
:10387000848195816817790720F480819181009770
:1038800029F41092400360E473E002C0680F791FCE
:10389000CB010895FC01848195816817790748F46C
:1038A00080819181009739F0680F791FFB01808139
:1038B000089580E0089580E008950E944A1C0895CC
:1038C0000F931F93CF93DF93FC018B01411551059B
:1038D000F1F061157105D9F0C481D5812C173D0730
:1038E00018F0FB01108213C041505040C21BD30B93
:1038F0004C175D0708F4EA0160817181620F731F44
:10390000C801AE010E94A728C00FD11F1882DF9105
:10391000CF911F910F910895CF93DF93FC01CA01BE
:10392000248135814217530778F4C081D1817727EC
:1039300067FD70958C0F9D1F0E947E28009721F0D7
:103940009C012C1B3D0B02C02FEF3FEFC901DF9103
:10395000CF91089540E050E00E948C1C0895CF93D1
:10396000DF93FC01CA01248135814217530778F4A3
:10397000C081D181FB01608171818C0F9D1F0E94EC
:10398000C128009721F09C012C1B3D0B02C02FEF9A
:103990003FEFC901DF91CF91089540E050E00E94D0
:1039A000AF1C0895DF92EF92FF920F931F93CF9376
:1039B000DF93EC018C819D8148175907F8F47A0157
:1039C0000894E11CF11CE881F981EE0DFF1DD08007
:1039D000108208811981772767FD7095C8010E94C0
:1039E000B6280E0D1F1DF801D082009739F02881EE
:1039F0003981AC01421B530B9A0102C02FEF3FEFFC
:103A0000C901DF91CF911F910F91FF90EF90DF904F
:103A10000895FC0144815581415050400E94D21CC0
:103A20000895AF92BF92CF92DF92EF92FF920F93E1
:103A30001F93CF93DF93FC016B018A01DB01149686
:103A40002D913C9115972115310551F18481958176
:103A5000009731F18217930718F14817590718F0AA
:103A60008C0101501040E080F180C701CFEFDFEF03
:103A70005701A00EB11E10C0F601608171810E9435
:103A8000C128009779F09C012E193F0902171307EE
:103A900008F49E010196E901A816B90668F702C06C
:103AA000CFEFDFEFCE01DF91CF911F910F91FF900C
:103AB000EF90DF90CF90BF90AF900895FC014481CC
:103AC0005581FB0124813581421B530B0E94111D3E
:103AD0000895AF92BF92CF92DF92EF92FF920F9331
:103AE0001F93CF93DF93F82EE92E6B018A01E90132
:103AF0002417350748F4342F212F8E01C901A92E30
:103B0000E5015E01B22EE5018F2D9E2D6BED71E07A
:103B10000E94D817D60114968D919C911597801705
:103B20009107D8F08C179D0708F4EC01D601ED91B0
:103B3000FC911197EC0FFD1FB08010826D917C916C
:103B4000600F711F8F2D9E2D0E941918D601ED91C7
:103B5000FC911197EC0FFD1FB0828F2D9E2DDF91F0
:103B6000CF911F910F91FF90EF90DF90CF90BF907A
:103B7000AF900895CF93DF93EC01FB012481358151
:103B80000E94691DCE01DF91CF910895DC01ED9176
:103B9000FC911197309729F40895861709F4408312
:103BA000319680818823C9F708952F923F924F92D2
:103BB0005F926F927F928F929F92AF92BF92CF92BD
:103BC000DF92EF92FF920F931F93CF93DF937C01CD
:103BD0002B016A01DC0114966D907C90159761149D
:103BE000710409F4D9C0FB0184809580811491048B
:103BF00009F4D2C0DA011496AD90BC901597A818BC
:103C0000B908FC0100811181A114B104F1F413C0C1
:103C1000D6016C9111967C91119714964D915C91FF
:103C20001597CE010E946328D60114960D911C9120
:103C300015970C0F1D1FF20160817181C8010E9450
:103C4000C128EC01009721F7A7C0B7FC02C0E3012F
:103C500042C048012DC0E301C01BD10BC401B80113
:103C6000AE010E946328C80DD91DD6016C91119632
:103C70007C91119714964D915C911597CE010E94FD
:103C80006328D60114968D909C9015978C0E9D1EDE
:103C9000F20104811581060D171DD70114968D912F
:103CA0009C9115978A0D9B1D15969C938E93149746
:103CB000F20160817181C8010E94C1283C01009716
:103CC00051F6C401B8010E94922866C08C01080D0B
:103CD000191DCA0DDB1DD2016D917C91C8010E9496
:103CE000C128009799F7C615D70509F455C0F70103
:103CF000828193818C179D0708F045C0C701BE01E2
:103D00000E947E17882309F447C03DC0C701B20155
:103D1000A9010E94111DEC0197FD3EC0D7016D91D4
:103D20007C911197F201848195818C0F9D1F680F02
:103D3000791F14964D915C911597481B590BCB0137
:103D40008A0D9B1D0E946C28D70114968D919C9121
:103D500015978A0D9B1D15969C938E931497ED9144
:103D6000FC911197E80FF91F10822D913C912C0FB7
:103D70003D1FF6016081718144815581C9010E9416
:103D800063289E0105C0D70114962D913C9115978B
:103D90002150304037FFBACFDF91CF911F910F9163
:103DA000FF90EF90DF90CF90BF90AF909F908F905B
:103DB0007F906F905F904F903F902F900895CF939A
:103DC000DF93FC01C081D181209739F409C0992784
:103DD00087FD90950E945328899388818823B9F79D
:103DE000DF91CF910895CF93DF93FC01C081D18102
:103DF000209739F409C0992787FD90950E945B2888
:103E0000899388818823B9F7DF91CF910895AF9284
:103E1000BF92CF92DF92EF92FF920F931F93CF93B7
:103E2000DF936C01DC01ED90FC901197E114F1043B
:103E300009F443C01496AD90BC901597A114B10439
:103E4000E1F18701E80188810F5F1F4F992787FD06
:103E500090950E944B280097A9F7850101501040CA
:103E60000E0D1F1DF8018081992787FD90950E94F6
:103E70004B28009731F00C171D0718F00150104027
:103E8000F1CF0F5F1F4F0C1B1D0BD60115961C9316
:103E90000E931497EC16FD0628F4C701BE01A80185
:103EA0000E946328D601ED91FC91119714968D9193
:103EB0009C911597E80FF91F1082DF91CF911F9108
:103EC0000F91FF90EF90DF90CF90BF90AF9008954B
:103ED000FC0180819181009729F00E9424289B0198
:103EE000AC0103C020E030E0A901B901CA01089586
:103EF0000E94262608950E94C026089521E030E001
:103F0000FC018081882311F020E030E0C901089590
:103F100021E0FC012083089508950895CF92DF9257
:103F2000EF92FF920F931F93CF93DF936C017B016E
:103F30008A01C0E0D0E00FC0D7016D917D01D601AC
:103F4000ED91FC910190F081E02DC6010995C80F1B
:103F5000D91F015010400115110571F7CE01DF91F5
:103F6000CF911F910F91FF90EF90DF90CF90089528
:103F7000DB010D900020E9F7AD0141505040461B98
:103F8000570BDC01ED91FC910280F381E02D099546
:103F90000895EF92FF920F931F93CF93DF937C01CD
:103FA000062F172FC0E0D0E0F8010F5F1F4F64917C
:103FB000662351F0F701A081B181ED91FC91C70119
:103FC0000995C80FD91FF0CFCE01DF91CF911F9176
:103FD0000F91FF90EF900895AF92BF92CF92DF9232
:103FE000EF92FF920F931F93CF93DF937C016B01AE
:103FF000C0E0D0E000E010E010C0D701ED91FC91EE
:10400000A080B180C601BE010E944A1C682FC70172
:10401000F5010995080F191F2196F60184819581F4
:10402000C817D90750F3C801DF91CF911F910F91A5
:10403000FF90EF90DF90CF90BF90AF9008950E94D7
:10404000B81F0895DC01ED91FC910190F081E02D05
:10405000099508959C01CB01DB01ED91FC91019044
:10406000F081E02DB901099508950F931F93CF9327
:10407000DF93EC016DE00E9422208C01CE016AE00A
:104080000E942220080F191FC801DF91CF911F91B4
:104090000F9108950F931F93CF93DF93EC010E942C
:1040A000C91F8C01CE010E943520080F191FC801BD
:1040B000DF91CF911F910F9108950F931F93CF938D
:1040C000DF93EC010E94EC1F8C01CE010E94352091
:1040D000080F191FC801DF91CF911F910F9108950B
:1040E0000F931F93CF93DF93EC010E94B81F8C01B5
:1040F000CE010E943520080F191FC801DF91CF9112
:104100001F910F9108950F931F93CF93DF93EC01AD
:104110000E9422208C01CE010E943520080F191F19
:10412000C801DF91CF911F910F9108950F931F93B5
:10413000CF93DF93EC010E942A208C01CE010E94D4
:104140003520080F191FC801DF91CF911F910F91E2
:1041500008958F929F92AF92BF92CF92DF92EF928B
:10416000FF920F931F93DF93CF93CDB7DEB7A19745
:104170000FB6F894DEBF0FBECDBF6C01042FE52F44
:10418000CB01122F19A2223008F41AE021E2E22E0C
:10419000F12CEC0EFD1E812E9924AA24BB2403C011
:1041A000022FE32FCA01602F7E2FA50194010E94E8
:1041B0004B25129F802D1124081B0894E108F1085B
:1041C0000A3014F4005D01C0095CF7010083211579
:1041D00031054105510521F7C601B7010E94B81FFD
:1041E000A1960FB6F894DEBF0FBECDBFCF91DF9181
:1041F0001F910F91FF90EF90DF90CF90BF90AF9005
:104200009F908F9008952115310549F4DC01ED91BF
:10421000FC910190F081E02D642F099508950E9492
:10422000A92008950F931F93CF93DF93EC010E9471
:1042300003218C01CE010E943520080F191FC801EF
:10424000DF91CF911F910F9108959A01AB0160E02A
:1042500070E00E94032108950F931F93CF93DF9383
:10426000EC019A01AB0160E070E00E9403218C0137
:10427000CE010E943520080F191FC801DF91CF9190
:104280001F910F9108959A01462F50E060E070E071
:104290000E94032108950F931F93CF93DF93EC01A6
:1042A0009A01462F50E060E070E00E9403218C01EB
:1042B000CE010E943520080F191FC801DF91CF9150
:1042C0001F910F910895CF92DF92EF92FF920F937B
:1042D0001F93CF93DF93EC017A018B0121153105F8
:1042E00041F4E881F9810190F081E02D642F099576
:1042F0001AC02A303105A9F477FF12C06DE20E947E
:1043000022206C0144275527BA014E195F09600B22
:10431000710BCE012AE00E94A920C80ED91E04C04C
:104320002AE00E94A9206C01C601DF91CF911F9164
:104330000F91FF90EF90DF90CF9008950F931F9310
:10434000CF93DF93EC010E9463218C01CE010E9488
:104350003520080F191FC801DF91CF911F910F91D0
:1043600008959A01FB01AF01662757FD6095762FEE
:104370000E94632108950F931F93CF93DF93EC0165
:104380009A01CB01AC01662757FD6095762FCE01CF
:104390000E9463218C01CE010E943520080F191F55
:1043A000C801DF91CF911F910F9108956F927F9275
:1043B0009F92AF92BF92CF92DF92EF92FF920F93B4
:1043C0001F93CF93DF933C017A018B01C22ECB0167
:1043D000BA0120E030E0A9010E94031287FF0AC061
:1043E000C3016DE20E942220EC0117FB109517F922
:1043F000109502C0C0E0D0E0DD2450E040E030E0A5
:104400002FE311C0DA01F9016B2F742F8F2F922F38
:1044100020E030E040E251E40E94C510562F472FC3
:10442000382F292FD394DC1468F3C801B701DA01BF
:10443000F9012B2F342F4F2F5E2F0E946D0F5B0140
:10444000F82E992E7B2D0E94F70D162FD72EE82ED1
:10445000092F0E94E5129B01AC016A2D7B2D8F2D47
:10446000992D0E949A0F962EA72EB82EF92EC301D1
:10447000412F5D2D6E2D702F2AE030E00E94032128
:10448000C80FD91FCC20B9F1C3016CED71E00E94B7
:10449000B81FC80FD91F2FC0692D7A2D8B2D9F2DC6
:1044A00020E030E040E251E40E94CB0FD62EB72E40
:1044B000A82E992E0E9493127B010027F7FC0095ED
:1044C000102FC301B801A7012AE030E00E94632148
:1044D000C80FD91FC801B7010E9433129B01AC015C
:1044E0006D2D7B2D8A2D992D0E949A0F962EA72E29
:1044F000B82EF92ECA94CC2079F6CE01DF91CF9157
:104500001F910F91FF90EF90DF90CF90BF90AF90F1
:104510009F907F906F9008950E94D62108950F93E9
:104520001F93CF93DF93EC010E94D6218C01CE0123
:104530000E943520080F191FC801DF91CF911F91EC
:104540000F910895FC0184859585FC01E05CFF4F87
:10455000208131818E5B9F4FFC0180819181281BDE
:10456000390B2F733070C9010895FC01848595853E
:10457000FC01E05CFF4F40815181FC01EE5BFF4F8D
:10458000208131814217530741F00190F081E02DE5
:10459000E80FF91F208130E002C02FEF3FEFC90183
:1045A0000895FC0184859585FC01E05CFF4F408106
:1045B0005181FC01EE5BFF4F20813181421753078F
:1045C00071F0A081B181A80FB91F2C9180819181D8
:1045D00001968F7390709183808330E002C02FEF3B
:1045E0003FEFC9010895DC011E968D919C911F97A4
:1045F000FC01E05CFF4F8E5B9F4F40815181DC01ED
:104600002D913C91119742175307B9F708951F93C5
:10461000FC01162F26853785D901A05CBF4F8D91EF
:104620009C91019660E470E00E943825D901AE5B50
:10463000BF4F4D915C91119784179507D1F3D90124
:10464000A05CBF4F0D90BC91A02DA20FB31F1C9377
:10465000A685B785A05CBF4F11969C938E93A689C3
:10466000B7892C9181E090E0058C02C0880F991FDA
:104670000A94E2F7282B2C9381E090E01F91089593
:10468000FB01E05CFF4F208131812F5F3F4F2F7393
:104690003070DB01AE5BBF4F4D915C9111972417D9
:1046A000350739F0A081B181A60FB71F8C933183F4
:1046B0002083089508951F920F920FB60F92112430
:1046C0002F933F934F935F936F937F938F939F931A
:1046D000AF93BF93EF93FF938091C60061E473E0C3
:1046E0000E944023FF91EF91BF91AF919F918F91D5
:1046F0007F916F915F914F913F912F910F900FBEDE
:104700000F901F90189589EC93E00E94A2220097C9
:1047100011F00E945A2308951F920F920FB60F9224
:1047200011242F933F935F936F937F938F939F9366
:10473000AF93BF93EF93FF932091C5033091C603CE
:104740008091C7039091C8032817390731F48091ED
:10475000C1008F7D8093C10016C0E091C703F09126
:10476000C803EB57FC4F20818091C7039091C80389
:10477000019660E470E00E9438259093C80380930E
:10478000C7032093C600FF91EF91BF91AF919F9116
:104790008F917F916F915F913F912F910F900FBEFD
:1047A0000F901F9018958F92AF92BF92CF92DF9289
:1047B000EF92FF920F931F93DF93CF93CDB7DEB7A6
:1047C000FC011382128288EE93E0A0E0B0E08483C3
:1047D0009583A683B78389EF92E091838083758761
:1047E000648757874687318B208B138B028BF58A22
:1047F000E48AD78AC68AB18EA08E828E8E85838FF8
:104800008F85848F8889858F8989868FCF91DF9165
:104810001F910F91FF90EF90DF90CF90BF90AF90DE
:104820008F900895DF92EF92FF920F931F93CF9393
:10483000DF93EC017A018B01DD24D394403081EECB
:10484000580780E0680780E0780749F4DD24EC89A8
:10485000FD89108260E874E88EE190E00FC0EC8979
:10486000FD8981E090E00E8C02C0880F991F0A94A8
:10487000E2F7808360E079E08DE390E0A8019701A2
:104880000E944B252150304040405040569547955E
:104890003795279580E12030380710F0DD20B1F6FC
:1048A000E889F9893083EA89FB892083EE89FF89C9
:1048B000408181E090E09C010A8C02C0220F331FEE
:1048C0000A94E2F7422B4083EE89FF8940819C01E4
:1048D0000B8C02C0220F331F0A94E2F7422B408355
:1048E000EE89FF8940819C010C8C02C0220F331F8E
:1048F0000A94E2F7422B4083EE89FF8920810D8CD8
:1049000002C0880F991F0A94E2F780958223808362
:10491000DF91CF911F910F91FF90EF90DF9008955D
:10492000CF93DF93FC0186859785DC01A05CBF4FA8
:104930008E5B9F4F4D915C911197EC0128813981DD
:1049400042175307B9F7A689B7894C9181E090E0E7
:104950009C01028C02C0220F331F0A94E2F72095BB
:1049600024232C93A689B7894C919C01038C02C007
:10497000220F331F0A94E2F7209524232C93A68953
:10498000B7894C919C01048C02C0220F331F0A94FA
:10499000E2F7209524232C93A689B7892C91058CC6
:1049A00002C0880F991F0A94E2F7809582238C93A6
:1049B00084859585FC01EE5BFF4F20813181805C11
:1049C0009F4FFC0131832083DF91CF910895109296
:1049D000CC031092CB0388EE93E0A0E0B0E080938C
:1049E000CD039093CE03A093CF03B093D003EBEC11
:1049F000F3E089EF92E09293829381E493E09587CC
:104A0000848785E893E09787868785EC90E0918B93
:104A1000808B84EC90E0938B828B80EC90E0958B84
:104A2000848B81EC90E0978B868B86EC90E0918F65
:104A3000808F84E0828F83E0838F87E0848F85E09E
:104A4000858F81E0868F0895AA1BBB1B51E107C0AB
:104A5000AA1FBB1FA617B70710F0A61BB70B881F0E
:104A6000991F5A95A9F780959095BC01CD0108959D
:104A700097FB092E07260AD077FD04D0E5DF06D084
:104A800000201AF4709561957F4F0895F6F7909580
:104A900081959F4F0895A1E21A2EAA1BBB1BFD0111
:104AA0000DC0AA1FBB1FEE1FFF1FA217B307E4070D
:104AB000F50720F0A21BB30BE40BF50B661F771F65
:104AC000881F991F1A9469F7609570958095909545
:104AD0009B01AC01BD01CF0108952F923F924F92EF
:104AE0005F926F927F928F929F92AF92BF92CF927E
:104AF000DF92EF92FF920F931F93CF93DF93CDB787
:104B0000DEB7CA1BDB0B0FB6F894DEBF0FBECDBFFE
:104B100009942A88398848885F846E847D848C84CF
:104B20009B84AA84B984C884DF80EE80FD800C81D8
:104B30001B81AA81B981CE0FD11D0FB6F894DEBFBB
:104B40000FBECDBFED010895EE0FFF1F0590F4914C
:104B5000E02D099411F40EF44DC03EC05DD0D0F3A9
:104B60009923D9F3CEF39F57550B87FF46D00024E6
:104B7000A0E640EA900180585695979528F4805C0D
:104B8000660F771F881F20F026173707480730F475
:104B9000621B730B840B202931294A2BA69517948D
:104BA0000794202531254A2758F7660F771F881F5D
:104BB00020F026173707480730F4620B730B840B7D
:104BC000200D311D411DA09581F7B901842F915809
:104BD000880F9695879508959F3F31F0915020F466
:104BE000879577956795B795880F911D96958795C9
:104BF00097F908959FEF80EC089591505040660F0B
:104C0000771F881FD2F7089557FD9058440F551FFE
:104C100059F05F3F71F04795880F97FB991F61F03E
:104C20009F3F79F087950895121613061406551FB5
:104C3000F2CF4695F1DF08C0161617061806991F21
:104C4000F1CF86957105610508940895CF93DF93A0
:104C50008230910510F482E090E0E091EA03F09157
:104C6000EB0340E050E020E030E026C0608171813D
:104C700068177907E0F06817790781F482819381DA
:104C80002115310531F0D90113969C938E9312971B
:104C90002BC09093EB038093EA0326C04115510586
:104CA00019F06417750718F4AB01E901DF019F01E2
:104CB00072816381E72FF62F3097C1F641155105B8
:104CC00001F1481B590B4430510580F412968D9127
:104CD0009C911397209719F09B838A8304C090932B
:104CE000EB038093EA03FD01329646C0FD01E40F19
:104CF000F51F819391934250504011965C934E93CF
:104D00003BC02091E8033091E9032115310541F4BE
:104D10002091E8023091E9023093E9032093E803FF
:104D20002091EA023091EB022115310541F42DB7B3
:104D30003EB74091E6025091E702241B350BE0910B
:104D4000E803F091E903E217F307A0F42E1B3F0BF1
:104D50002817390778F0AC014E5F5F4F24173507ED
:104D600048F04E0F5F1F5093E9034093E80381938F
:104D7000919302C0E0E0F0E0CF01DF91CF91089580
:104D8000CF93DF93009709F491C0FC01329713820F
:104D900012826091EA037091EB036115710581F451
:104DA00020813181280F391F8091E8039091E90318
:104DB0008217930799F5F093E903E093E80376C02F
:104DC000DB0180E090E002C0CD01D901AE17BF0742
:104DD00048F412962D913C91139721153105A1F7B6
:104DE000CD0121C0B383A283EF01499159919E0166
:104DF000240F351FA217B30779F42D913C91119719
:104E0000240F351F2E5F3F4F3183208312962D9143
:104E10003C91139733832283009729F4F093EB039B
:104E2000E093EA0343C0DC011396FC93EE931297E0
:104E30004D915D91A40FB51FEA17FB0769F420811E
:104E40003181240F351F2E5F3F4FEC0139832883BA
:104E5000228133813B832A83E0E0F0E002C0FB0142
:104E6000BC01DB0112968D919C9113970097B9F7C5
:104E70009B012E5F3F4F8D919C911197820F931F45
:104E80004091E8035091E9034817590779F43097A6
:104E900029F41092EB031092EA0302C013821282EB
:104EA000225030403093E9032093E803DF91CF9103
:104EB0000895A0E0B0E0EFE5F7E20C9473258C01D3
:104EC000CB010115110529F40E942626082F192F60
:104ED000B5C0D80112979801260F371F2A173B0734
:104EE00008F4AAC0ED90FC901197E616F706D0F0F2
:104EF00045E0E416F10408F4A1C0A7014450504075
:104F00004617570708F49AC0A70142505040461B65
:104F1000570BF901419351936D937C93CF010E94FC
:104F2000C0268CC05B01AE18BF0848018E0C9F1CC8
:104F3000E091EA03F091EB03CC24DD24C0E0D0E063
:104F400041C0E815F90599F560817181AB014E5FAB
:104F50005F4F4A155B0558F1AB014A195B09CC2438
:104F6000DD246894C1F8C40ED51E8280A380E5E0DC
:104F7000CE16D10448F0F9018282A3825183408386
:104F800011969C938E9309C0C7010296860F971FB6
:104F900011969C938E93E82DFA2D209719F0FB83A0
:104FA000EA834CC0F093EB03E093EA0347C04081EF
:104FB0005181C416D50608F46A01EF01528143817C
:104FC000E52FF42F309709F0BCCF4091E8035091C2
:104FD000E90348155905E9F4C816D906D0F44091FB
:104FE000EA025091EB024115510541F44DB75EB70D
:104FF0006091E6027091E702461B570B24173507B4
:10500000D8F43093E9032093E80311969C938E9390
:1050100015C00E942626C82EE6016E01D92EE60193
:10502000209751F08C2DB801A7010E946328C80178
:105030000E94C026860102C000E010E0C801CDB782
:10504000DEB7ECE00C948F251F93FC01992788278D
:10505000BC01E89411911032E9F3193010F01E30C0
:10506000C8F31B3251F01D3249F4689406C00E9407
:105070003029610F711D811D911D119110531A303E
:10508000B0F33EF490958095709561957F4F8F4F6A
:105090009F4F1F910895911133C1803219F08950AB
:1050A0008550D0F708959111089581548A5108F4DC
:1050B000805E855A08959111089581568A5108F4A9
:1050C000805285580895FB01DC0102C001900D92C9
:1050D00041505040D8F708956817790768F4FB01EC
:1050E000DC01E40FF51FA40FB51F02C002900E9261
:1050F00041505040D8F708950C946328FC018191E9
:10510000861721F08823D9F7992708953197CF0181
:105110000895FB01DC018D91019080190110D9F3F4
:10512000990B0895FB01DC0101900D920020E1F73D
:105130000895FB01DC014150504030F08D91019009
:10514000801919F40020B9F7881B990B0895FB0109
:10515000DC014150504048F001900D920020C9F709
:1051600001C01D9241505040E0F70895FC0181E0DC
:1051700090E00190061609F4CF010020D1F70197C5
:105180000895FB0151915523A9F0BF01DC014D9118
:1051900045174111E1F759F4CD010190002049F084
:1051A0004D9140154111C9F3FB014111EFCF81E051
:1051B00090E001970895FB019F01E8944230C4F00C
:1051C0004532B4F44A3029F497FB1EF4909581954A
:1051D0009F4F642F77270E942425805D8A330CF02F
:1051E000895D8193CB010097A1F716F45DE251939D
:1051F0001082C9010C948329FA01CF93FF93EF9396
:10520000223044F1253234F5C22FE894CA3049F4F3
:1052100097FB3EF490958095709561957F4F8F4FE9
:105220009F4F2C2F332744275527FF93EF930E943E
:105230004B25EF91FF91605D6A330CF0695D6193DE
:10524000B901CA01605070408040904051F716F497
:10525000CDE2C19310828F919F91CF910C948329BD
:10526000592F482F372F262F660F771F881F991F1A
:10527000660F771F881F991F620F731F841F951F6A
:10528000660F771F881F991F0895FA01CF93FF9328
:10529000EF932230CCF02532BCF4C22F2C2F3327D1
:1052A00044275527FF93EF930E944B25EF91FF91E1
:1052B000605D6A330CF0695D6193B901CA016050A9
:1052C00070408040904051F710828F919F91CF9114
:1052D0000C948329FB019F01423074F0453264F441
:1052E000642F77270E942425805D8A330CF0895D26
:1052F0008193CB010097A1F71082C9010C948329F7
:10530000992788270895DC01FC01672F7191772385
:10531000E1F7329704C07C916D9370836291AE1770
:0A532000BF07C8F30895F894FFCF0B
:10532A00000000008C00B90030010C01D0005501CA
:10533A0074656E553A0046726D3A0054656E4F3A7E
:10534A000073743A000000000015068E1F0000402A
:10535A000014005400FF000000008C00B900300166
:10536A000C01D0005501496E697469616C697365F5
:10537A00204C434400496E697469616C6973652005
:10538A0050574D00496E697469616C6973652044B0
:10539A0043206D6F746F7200496E697469616C693C
:1053AA0073652073746570706572206D6F746F72A7
:1053BA0000496E697469616C697365206C6566740D
:1053CA002050444300496E697469616C69736520B1
:1053DA0072696768742050444300496E6974696150
:1053EA006C6973652050442074696D657200536559
:1053FA00742046696C6D20506F7300002E00000007
:10540A000000000000000001020203030303040479
:10541A000404040404040505050505050505050538
:10542A000505050505050606060606060606060618
:10543A000606060606060606060606060606060602
:10544A0006060606060607070707070707070707E8
:10545A0007070707070707070707070707070707D2
:10546A0007070707070707070707070707070707C2
:10547A0007070707070707070707070707070707B2
:10548A000707070707070808080808080808080898
:10549A000808080808080808080808080808080882
:1054AA000808080808080808080808080808080872
:1054BA000808080808080808080808080808080862
:1054CA000808080808080808080808080808080852
:1054DA000808080808080808080808080808080842
:1054EA000808080808080808080808080808080832
:1054FA000808080808080808080808080808080822
:10550A000808080808082000EC0300000100000051
:10551A00008D1F8E1F0000000007238E1FA222D1BC
:10552A0022B522F322000000008D1F8E1F8D1F8DD1
:06553A001F8D1F8D1F00F4
:00000001FF
