:100000000C9462000C948A000C948A000C948A0070
:100010000C948A000C948A000C948A000C948A0038
:100020000C948A000C948A000C948A000C948A0028
:100030000C948A000C948A000C948A000C948A0018
:100040000C9421080C948A000C94890D0C94BA0D20
:100050000C948A000C948A000C948A000C948A00F8
:100060000C948A000C948A000000000024002700F1
:100070002A0000000000250028002B0000000000DE
:1000800023002600290004040404040404040202DA
:100090000202020203030303030301020408102007
:1000A0004080010204081020010204081020000012
:1000B0000007000201000003040600000000000029
:1000C0000000150F11241FBECFEFD8E0DEBFCDBF5B
:1000D00012E0A0E0B1E0EEEDF6E302C005900D9273
:1000E000AA33B107D9F712E0AAE3B2E001C01D922A
:1000F000AF3EB107E1F710E0C4ECD0E004C02297B6
:10010000FE010E94FC17C23CD107C9F70E94A6005D
:100110000C946D1B0C9400008BEC92E040E855E2CF
:1001200060E070E00E94400E089582E00E94A00707
:10013000BC018BEC92E04AE050E00E94E90B6AEFD0
:1001400070E080E090E00E949D0808950E94CE0833
:100150000E948C000E949500FDCFEF92FF920F93BA
:100160001F937B018C0120E030E040E05FE40E94BF
:10017000290487FD11C0C801B70120E030E040E04C
:100180005FE40E9450020E94E9049B01AC012050F0
:1001900030404040504806C0C801B7010E94E90401
:1001A0009B01AC01B901CA011F910F91FF90EF9023
:1001B0000895A0E0B0E0EFEDF0E00C94C717FC016B
:1001C000EA018081823008F438C1DB019C919230D1
:1001D00008F430C1843059F4943009F02EC1918173
:1001E00011968C911197981709F021C126C194306E
:1001F00009F420C19230B1F4823009F01EC1CA0165
:10020000AF0128E0DA010D90AD01DC010D92CD01C6
:100210002150C1F7DB0111968C91119791818923AF
:1002200089830AC1823009F405C1C280D380DB0111
:1002300012966D907C901397248135814681578169
:100240001496ED90FD900D911C911797C60186199B
:1002500097095C0197FF04C0AA24BB24A81AB90A15
:10026000B0E2AB16B1040CF061C0181619066CF5BB
:10027000370148010A2C04C09694879477946794B8
:100280000A94D2F781E090E0A0E0B0E00A2C04C02C
:10029000880F991FAA1FBB1F0A94D2F70197A109C3
:1002A000B1098E219F21A023B123EE24FF248701D1
:1002B000E3940097A105B10519F4EE24FF2487010A
:1002C000E628F728082919293CC00097D1F1CA0C63
:1002D000DB1C39014A010A2C04C096948794779458
:1002E00067940A94D2F781E090E0A0E0B0E00A2C95
:1002F00004C0880F991FAA1FBB1F0A94D2F7019749
:10030000A109B10982239323A423B52321E030E07E
:1003100040E050E00097A105B10519F420E030E07D
:10032000A90126293729482959290BC06C147D04B5
:1003300024F4EE24FF24870104C0630120E030E0B0
:10034000A9018181FB019181891709F445C08823A6
:1003500049F0D801C701821B930BA40BB50B9C017C
:10036000AD0104C02E193F09400B510B57FD04C0CD
:100370001982DB82CA820BC081E08983DB82CA8258
:1003800050954095309521953F4F4F4F5F4F2C83AF
:100390003D834E835F830DC0880F991FAA1FBB1F2B
:1003A0008C839D83AE83BF838A819B8101979B83CE
:1003B0008A838C819D81AE81BF819C01AD012150DA
:1003C0003040404050402F3FEFEF3E07EFEF4E07E9
:1003D000EFE35E0708F30BC08983DB82CA822E0D30
:1003E0003F1D401F511F2C833D834E835F8383E05D
:1003F00088832C813D814E815F8157FF1DC0DA01CA
:10040000C90181709070A070B0705695479537956E
:100410002795822B932BA42BB52B8C839D83AE83A6
:10042000BF838A819B8101969B838A8305C0E3E019
:10043000F1E003C0FB0101C0FE01CF01CDB7DEB783
:10044000EEE00C94E317A0E2B0E0E9E2F2E00C94F5
:10045000CF1769837A838B839C832D833E834F835D
:10046000588789E0E82EF12CEC0EFD1ECE01019696
:10047000B7010E94DB068E010F5E1F4FCE0105966D
:10048000B8010E94DB06C701B801AE01475E5F4FAD
:100490000E94D9000E940D06A096E6E00C94EB178E
:1004A000A0E2B0E0E6E5F2E00C94CF1769837A832E
:1004B0008B839C832D833E834F8358878E01075FF8
:1004C0001F4FCE010196B8010E94DB0691E1E92E93
:1004D000F12CEC0EFD1ECE010596B7010E94DB0645
:1004E0008A8991E089278A8BC801B701AE01475EEE
:1004F0005F4F0E94D9000E940D06A096E6E00C9482
:10050000EB17A0E2B0E0E7E8F2E00C94C3176983D0
:100510007A838B839C832D833E834F835887CE01C0
:100520000196BE01675F7F4F0E94DB06CE010596F4
:10053000BE016F5E7F4F0E94DB069985923078F096
:1005400089898230C0F0943019F4823041F4CBC0F4
:10055000843019F4923079F4C6C0923051F481E0BD
:100560002A859A89291709F480E08A87CE0109969D
:10057000BCC0823051F481E02A859A89291709F498
:1005800080E08A8BCE014196B0C06D847E848F84DA
:100590009888ED88FE880F89188DE0E2F0E080E011
:1005A00090E0DC01AA24BB24650120E030E0A90131
:1005B000B3016170707061157105D1F02E0D3F1D92
:1005C000401F511F15012601280E391E4A1E5B1EB1
:1005D00081E090E0A0E0B0E02E153F054007510714
:1005E00018F080E090E0DC01820D931DA41DB51D84
:1005F000AA0CBB1CCC1CDD1C17FF09C061E0262E19
:10060000312C412C512CA228B328C428D52831974D
:1006100049F0EE0CFF1C001F111F969487947794ED
:100620006794C6CF6B897C89EB85FC856E0F7F1F35
:100630006E5F7F4F7C8F6B8F61E0EA857A89E71769
:1006400009F460E06A8F6B8D7C8D10C0FC01E17055
:10065000F070309729F05695479537952795506853
:10066000B695A795979587956F5F7F4FB7FDEECFAE
:100670000CC0880F991FAA1FBB1F57FD8160220F56
:10068000331F441F551F615070408030E0E09E07CB
:10069000E0E0AE07E0E4BE0760F36B8F7C8F6FE7AE
:1006A000E62EF12C012D112DE822F9220A231B231D
:1006B00060E4E616F1040105110561F487FD0AC046
:1006C000211531054105510529F0805C9F4FAF4F41
:1006D000BF4F80788D8F9E8FAF8FB8A383E0898FB7
:1006E000CE01499602C083E091E00E940D06A096DB
:1006F000E2E10C94DF17A8E1B0E0E1E8F3E00C944C
:10070000CB1769837A838B839C832D833E834F83AE
:1007100058878E01075F1F4FCE010196B8010E94D6
:10072000DB0681E1E82EF12CEC0EFD1ECE010596D4
:10073000B7010E94DB069985923008F483C089894D
:10074000823008F47BC02A853A8923272A8794308F
:1007500011F0923021F4981709F06CC071C0843008
:1007600039F41D861E861F86188A1C861B866AC061
:10077000823019F484E0898765C08B859C852B893C
:100780003C89821B930B9C878B872D853E854F85EB
:100790005889ED88FE880F89188D2E153F05400772
:1007A000510738F4220F331F441F551F01979C87B0
:1007B0008B876FE170E0A12CB12CC12CA0E4DA2E64
:1007C00080E090E0DC012E153F054007510740F026
:1007D0008A299B29AC29BD292E193F09400B510BB1
:1007E000D694C794B794A794220F331F441F551F64
:1007F0006150704041F76FE7E62EF12C012D112D6D
:10080000E822F9220A231B2360E4E616F10401051D
:10081000110561F487FD0AC0211531054105510517
:1008200029F0805C9F4FAF4FBF4F80788D879E87A8
:10083000AF87B88B8E01075F1F4F04C0870102C0CE
:1008400003E011E0C8010E940D066896EAE00C94EE
:10085000E717A8E1B0E0EFE2F4E00C94CF1769836A
:100860007A838B839C832D833E834F8358878E01AD
:10087000075F1F4FCE010196B8010E94DB0681E1A0
:10088000E82EF12CEC0EFD1ECE010596B7010E945C
:10089000DB068985823040F08989823028F0C801E2
:1008A000B7010E94440701C08FEF6896E6E00C9400
:1008B000EB17A8E1B0E0EFE5F4E00C94CF17698303
:1008C0007A838B839C832D833E834F8358878E014D
:1008D000075F1F4FCE010196B8010E94DB0681E140
:1008E000E82EF12CEC0EFD1ECE010596B7010E94FC
:1008F000DB068985823040F08989823028F0C80182
:10090000B7010E94440701C081E06896E6E00C94BC
:10091000EB17A8E0B0E0EFE8F4E00C94CF177B0110
:100920008C0183E08983D801C7018827B7FD8395AF
:100930009927AA27BB27282F8A83E114F1040105F0
:10094000110519F482E0898337C08EE190E09C8321
:100950008B83222389F080E0E81680E0F80680E0AF
:10096000080780E8180769F110950095F094E09465
:10097000E11CF11C011D111DED82FE820F83188701
:10098000C801B7010E94B3059C01215030401216E6
:10099000130694F4022E04C0EE0CFF1C001F111F5E
:1009A0000A94D2F7ED82FE820F8318878EE190E0E1
:1009B000821B930B9C838B83CE0101960E940D06B4
:1009C00004C060E070E080E09FEC2896E6E00C94C4
:1009D000EB17ACE0B0E0EFEEF4E00C94D3176983D2
:1009E0007A838B839C83CE010196BE016B5F7F4F20
:1009F0000E94DB068D81823081F1823070F184307B
:100A000021F48E81882369F10AC02F81388537FD52
:100A100024C06E812F3131053CF0662311F120E0B6
:100A200030E040E050E821C08EE190E0821B930B63
:100A300029853A854B855C8504C056954795379541
:100A400027958A95D2F7662381F050954095309589
:100A500021953F4F4F4F5F4F08C020E030E0A90184
:100A600004C02FEF3FEF4FEF5FE7B901CA012C96AB
:100A7000E2E00C94EF17A8E0B0E0E1E4F5E00C94BC
:100A8000CD177B018C011A826115710581059105D5
:100A900019F482E089835FC083E089838EE1C82EE8
:100AA000D12CDC82CB82ED82FE820F831887C801B5
:100AB000B7010E94B305FC013197F7FF3AC0AA279E
:100AC000BB27AE1BBF0B21E030E040E050E00A2E18
:100AD00004C0220F331F441F551F0A94D2F7215020
:100AE0003040404050402E213F214023512361E0BF
:100AF00070E080E090E0211531054105510519F4C1
:100B000060E070E0CB0104C016950795F794E79478
:100B1000AA95D2F7E62AF72A082B192BED82FE8236
:100B20000F8318878EE190E08E1B9F0B9C838B8335
:100B300012C0309781F00E2E04C0EE0CFF1C001F77
:100B4000111F0A94D2F7ED82FE820F831887CE1A06
:100B5000DF0ADC82CB82CE0101960E940D06289628
:100B6000E8E00C94E917AF92BF92CF92DF92EF9238
:100B7000FF920F931F937B018C0180E0E81680E0C9
:100B8000F80681E0080780E0180758F4EFEFEE164A
:100B9000F1040105110509F090F480E090E0DC011A
:100BA00017C0F0E0EF16F0E0FF06F0E00F07F1E00D
:100BB0001F0750F480E190E0A0E0B0E009C088E0B9
:100BC00090E0A0E0B0E004C088E190E0A0E0B0E0F8
:100BD00020E230E040E050E0281B390B4A0B5B0B71
:100BE0005701680104C0D694C794B794A7948A9516
:100BF000D2F7D601C501855F9E4FFC018081281B7D
:100C0000310941095109C9011F910F91FF90EF90DE
:100C1000DF90CF90BF90AF900895EF92FF920F9327
:100C20001F93CF93DF93FC01248135814681578147
:100C300061818081823020F44061EFEFF0E0A3C059
:100C4000843009F49BC0823009F492C0211531052B
:100C50004105510509F48FC00280F381E02D8FEF2B
:100C6000E238F8070CF05AC0C2E8DFEFCE1BDF0B0A
:100C7000CA31D1056CF579018A010C2E04C0169594
:100C80000795F794E7940A94D2F781E090E0A0E00A
:100C9000B0E00C2E04C0880F991FAA1FBB1F0A9436
:100CA000D2F70197A109B10982239323A423B52385
:100CB00021E030E040E050E00097A105B10519F4D3
:100CC00020E030E0A9012E293F29402B512B03C001
:100CD00020E030E0A901DA01C9018F779070A0709F
:100CE000B07080349105A105B10539F427FF09C022
:100CF000205C3F4F4F4F5F4F04C0215C3F4F4F4F31
:100D00005F4FE1E0F0E0203080E0380780E0480706
:100D100080E4580728F5E0E0F0E022C0E038F10573
:100D20006CF5E158FF4FDA01C9018F779070A07020
:100D3000B07080349105A105B10539F427FF09C0D1
:100D4000205C3F4F4F4F5F4F04C0215C3F4F4F4FE0
:100D50005F4F57FF05C056954795379527953196B4
:100D600087E056954795379527958A95D1F70BC01B
:100D7000E0E0F0E005C0E0E0F0E005C0EFEFF0E01B
:100D800020E030E0A9018E2F879588278795942F42
:100D90009F77679566276795E695E22EA92FA82B82
:100DA000FE2FF62B622F732F8A2F9F2FCDB7DEB722
:100DB000E6E00C94EB17DC01FB012C9111963C91C1
:100DC000119712968C911297482F4F7750E0982FD9
:100DD000991F9927991F13966C911397862F880F47
:100DE000892B90E0661F6627661F6183009739F59F
:100DF000211531054105510511F482E029C082E831
:100E00009FEF9383828367E0220F331F441F551F98
:100E10006A95D1F783E0808309C0220F331F441FF6
:100E2000551F82819381019793838283203080E0D4
:100E3000380780E0480780E4580778F320C08F3FE8
:100E4000910579F4211531054105510519F484E026
:100E50008083089544FF03C081E0808310C0108226
:100E60000EC08F5790409383828383E0808387E016
:100E7000220F331F441F551F8A95D1F750642483D6
:100E80003583468357830895FC01DB0190819230BE
:100E900008F449C08C91823008F445C0943051F474
:100EA00061818430B1F511962C91119730E0261BA9
:100EB000310941C0843021F0923041F48230B1F1E7
:100EC00011968C9111978823A1F12DC061818230F8
:100ED00001F111968C9111976817D9F42281338111
:100EE00012968D919C9113978217930794F028176F
:100EF0003907BCF0248135814681578114968D9144
:100F00009D910D90BC91A02D82179307A407B50762
:100F100018F4662341F00DC0281739074A075B070C
:100F200028F4662331F021E030E005C020E030E015
:100F300002C02FEF3FEFC901089580931102089579
:100F40008E3008F08E508770909111029295990F13
:100F5000990F907C982B90937C0080917A0080640C
:100F600080937A0080917A0086FDFCCF20917800F2
:100F700030917900932F80E030E0282B392BC90184
:100F800008951F93CF93DF93182FEB0161E00E9428
:100F90003609209709F44AC0CF3FD10509F449C06A
:100FA000E12FF0E0E255FF4FE491E330C1F0E4308F
:100FB00028F4E13051F0E230B1F50CC0E63019F11F
:100FC000E73049F1E43079F514C084B5806884BD18
:100FD000C7BD33C084B5806284BDC8BD2EC08091BA
:100FE0008000806880938000D0938900C09388003F
:100FF00024C080918000806280938000D0938B0019
:10100000C0938A001AC08091B00080688093B000BD
:10101000C093B30012C08091B00080628093B00092
:10102000C093B4000AC0C038D1051CF4812F60E021
:1010300002C0812F61E00E945A09DF91CF911F9178
:1010400008951F920F920FB60F9211242F933F9382
:101050008F939F93AF93BF9380913E0290913F02F5
:10106000A0914002B0914102309142020196A11D2F
:10107000B11D232F2D5F2D3720F02D570196A11D77
:10108000B11D2093420280933E0290933F02A093B1
:101090004002B093410280913A0290913B02A091AC
:1010A0003C02B0913D020196A11DB11D80933A0210
:1010B00090933B02A0933C02B0933D02BF91AF914D
:1010C0009F918F913F912F910F900FBE0F901F9086
:1010D00018958FB7F89420913E0230913F024091CD
:1010E0004002509141028FBFB901CA0108959FB7D4
:1010F000F89420913A0230913B0240913C02509189
:101100003D0286B5A89B06C08F3F21F02F5F3F4F61
:101110004F4F5F4F9FBF542F432F322F2227280F4F
:10112000311D411D511D82E0220F331F441F551FE9
:101130008A95D1F7B901CA010895EF92FF920F93F2
:101140001F93CF93DF937B018C010E947708EB0103
:101150000FC00E9477086C1B7D0B83E0683E780708
:1011600038F00894E108F10801091109C851DC4F71
:10117000E114F1040105110561F7DF91CF911F9191
:101180000F91FF90EF900895019739F0880F991F04
:10119000880F991F02970197F1F70895789484B505
:1011A000826084BD84B5816084BD85B5826085BD63
:1011B00085B5816085BDEEE6F0E080818160808349
:1011C000E1E8F0E01082808182608083808181602C
:1011D0008083E0E8F0E0808181608083E1EBF0E0F3
:1011E000808184608083E0EBF0E080818160808397
:1011F000EAE7F0E080818460808380818260808380
:101200008081816080838081806880831092C100AA
:101210000895833071F0843028F48130A1F0823059
:1012200021F514C08630B1F08730D1F08430E9F474
:1012300004C0809180008F7703C0809180008F7DF3
:1012400080938000089584B58F7702C084B58F7D28
:1012500084BD08958091B0008F778093B000089589
:101260008091B0008F7D8093B000089590E0FC01E4
:10127000E656FF4F2491FC01EA57FF4FE491EE231D
:10128000C1F0F0E0EE0FFF1FE859FF4F85919491F8
:10129000DC01662341F49FB7F8948C91209582235A
:1012A0008C939FBF08959FB7F8948C91822B8C9359
:1012B0009FBF08950F931F93DF93CF930F92CDB7E6
:1012C000DEB7282F30E0F901E255FF4F8491F90194
:1012D000E656FF4F14912A573F4FF901049100231E
:1012E000D9F0882321F069830E9409096981E02FE0
:1012F000F0E0EE0FFF1FEE58FF4F85919491DC0157
:101300009FB7F894662321F48C911095812302C035
:101310008C91812B8C939FBF0F90CF91DF911F9168
:101320000F9108950F931F93282F30E0F901E25594
:10133000FF4F8491F901E656FF4F04912A573F4F22
:10134000F9011491112391F0882311F00E940909E9
:10135000E12FF0E0EE0FFF1FE458FF4F85919491CD
:10136000DC018C91802321E030E011F420E030E0BA
:10137000C9011F910F910895CF92DF92EF92FF92D2
:101380000F931F93CF93DF936C017B018A01C0E021
:10139000D0E00FC0D7016D917D01D601ED91FC9198
:1013A0000190F081E02DC6010995C80FD91F0150A9
:1013B00010400115110571F7CE01DF91CF911F91FA
:1013C0000F91FF90EF90DF90CF900895DB010D908B
:1013D0000020E9F7AD0141505040461B570BDC019E
:1013E000ED91FC910280F381E02D09950895EF9233
:1013F000FF920F931F93CF93DF937C01062F172F3C
:10140000C0E0D0E0F8010F5F1F4F6491662351F0F8
:10141000F701A081B181ED91FC91C7010995C80F39
:10142000D91FF0CFCE01DF91CF911F910F91FF9087
:10143000EF900895AF92BF92CF92DF92EF92FF921A
:101440000F931F93CF93DF937C016B01C0E0D0E03B
:1014500000E010E010C0D701ED91FC91A080B180B8
:10146000C601BE010E943614682FC701F501099517
:10147000080F191F2196F60184819581C817D90795
:1014800050F3C801DF91CF911F910F91FF90EF9022
:10149000DF90CF90BF90AF9008950E94E609089525
:1014A000DC01ED91FC910190F081E02D099508950A
:1014B0009C01CB01DB01ED91FC910190F081E02DCD
:1014C000B901099508950F931F93CF93DF93EC0112
:1014D0006DE00E94500A8C01CE016AE00E94500A21
:1014E000080F191FC801DF91CF911F910F91089527
:1014F0000F931F93CF93DF93EC010E94F7098C01A8
:10150000CE010E94630A080F191FC801DF91CF9115
:101510001F910F9108950F931F93CF93DF93EC01C9
:101520000E941A0A8C01CE010E94630A080F191F3B
:10153000C801DF91CF911F910F9108950F931F93D1
:10154000CF93DF93EC010E94E6098C01CE010E944B
:10155000630A080F191FC801DF91CF911F910F91E6
:1015600008950F931F93CF93DF93EC010E94500ACD
:101570008C01CE010E94630A080F191FC801DF9178
:10158000CF911F910F9108950F931F93CF93DF93E6
:10159000EC010E94580A8C01CE010E94630A080FD8
:1015A000191FC801DF91CF911F910F9108958F925C
:1015B0009F92AF92BF92CF92DF92EF92FF920F93E2
:1015C0001F93DF93CF93CDB7DEB7A1970FB6F894F3
:1015D000DEBF0FBECDBF6C01042FE52FCB01122F54
:1015E00019A2223008F41AE021E2E22EF12CEC0ECE
:1015F000FD1E812E9924AA24BB2403C0022FE32FB1
:10160000CA01602F7E2FA50194010E948D17129FA1
:10161000802D1124081B0894E108F1080A3014F405
:10162000005D01C0095CF70100832115310541050A
:10163000510521F7C601B7010E94E609A1960FB630
:10164000F894DEBF0FBECDBFCF91DF911F910F91F8
:10165000FF90EF90DF90CF90BF90AF909F908F90D2
:1016600008952115310549F4DC01ED91FC910190BB
:10167000F081E02D642F099508950E94D70A0895FE
:101680000F931F93CF93DF93EC010E94310B8C01DA
:10169000CE010E94630A080F191FC801DF91CF9184
:1016A0001F910F9108959A01AB0160E070E00E94D4
:1016B000310B08950F931F93CF93DF93EC019A01A1
:1016C000AB0160E070E00E94310B8C01CE010E9402
:1016D000630A080F191FC801DF91CF911F910F9165
:1016E00008959A01462F50E060E070E00E94310BAF
:1016F00008950F931F93CF93DF93EC019A01462F28
:1017000050E060E070E00E94310B8C01CE010E943D
:10171000630A080F191FC801DF91CF911F910F9124
:101720000895CF92DF92EF92FF920F931F93CF9382
:10173000DF93EC017A018B012115310541F4E88139
:10174000F9810190F081E02D642F09951AC02A30AB
:101750003105A9F477FF12C06DE20E94500A6C01B6
:1017600044275527BA014E195F09600B710BCE0152
:101770002AE00E94D70AC80ED91E04C02AE00E949F
:10178000D70A6C01C601DF91CF911F910F91FF9095
:10179000EF90DF90CF9008950F931F93CF93DF9337
:1017A000EC010E94910B8C01CE010E94630A080F8C
:1017B000191FC801DF91CF911F910F9108959A01D0
:1017C000FB01AF01662757FD6095762F0E94910BB4
:1017D00008950F931F93CF93DF93EC019A01CB01F0
:1017E000AC01662757FD6095762FCE010E94910BC4
:1017F0008C01CE010E94630A080F191FC801DF91F6
:10180000CF911F910F9108956F927F929F92AF9207
:10181000BF92CF92DF92EF92FF920F931F93CF93DD
:10182000DF933C017A018B01C22ECB01BA0120E08B
:1018300030E0A9010E94590487FF0AC0C3016DE28C
:101840000E94500AEC0117FB109517F9109502C081
:10185000C0E0D0E0DD2450E040E030E02FE311C0F4
:10186000DA01F9016B2F742F8F2F922F20E030E0D7
:1018700040E251E40E947B03562F472F382F292F37
:10188000D394DC1468F3C801B701DA01F9012B2FF6
:10189000342F4F2F5E2F0E9423025B01F82E992ECA
:1018A0007B2D0E94AD00162FD72EE82E092F0E9407
:1018B0003B059B01AC016A2D7B2D8F2D992D0E943C
:1018C0005002962EA72EB82EF92EC301412F5D2D62
:1018D0006E2D702F2AE030E00E94310BC80FD91F07
:1018E000CC20B9F1C30160E071E00E94E609C80FA5
:1018F000D91F2FC0692D7A2D8B2D9F2D20E030E030
:1019000040E251E40E948102D62EB72EA82E992ED5
:101910000E94E9047B010027F7FC0095102FC3010A
:10192000B801A7012AE030E00E94910BC80FD91F2F
:10193000C801B7010E9489049B01AC016D2D7B2D6C
:101940008A2D992D0E945002962EA72EB82EF92E80
:10195000CA94CC2079F6CE01DF91CF911F910F91DF
:10196000FF90EF90DF90CF90BF90AF909F907F90CF
:101970006F9008950E94040C08950F931F93CF93C6
:10198000DF93EC010E94040C8C01CE010E94630ADB
:10199000080F191FC801DF91CF911F910F91089572
:1019A000FC0184859585FC01E05CFF4F208131813D
:1019B0008E5B9F4FFC0180819181281B390B2F7317
:1019C0003070C9010895FC0184859585FC01E05CB7
:1019D000FF4F40815181FC01EE5BFF4F208131813F
:1019E0004217530741F00190F081E02DE80FF91FF5
:1019F000208130E002C02FEF3FEFC9010895FC01C4
:101A000084859585FC01E05CFF4F40815181FC019C
:101A1000EE5BFF4F208131814217530771F0A081A7
:101A2000B181A80FB91F2C918081918101968F738C
:101A300090709183808330E002C02FEF3FEFC901A7
:101A40000895DC011E968D919C911F97FC01E05C2E
:101A5000FF4F8E5B9F4F40815181DC012D913C9166
:101A6000119742175307B9F708951F93FC01162FDA
:101A700026853785D901A05CBF4F8D919C91019639
:101A800060E470E00E947A17D901AE5BBF4F4D91C0
:101A90005C91119784179507D1F3D901A05CBF4FD2
:101AA0000D90BC91A02DA20FB31F1C93A685B785E6
:101AB000A05CBF4F11969C938E93A689B7892C91F9
:101AC00081E090E0058C02C0880F991F0A94E2F72C
:101AD000282B2C9381E090E01F910895FB01E05C9E
:101AE000FF4F208131812F5F3F4F2F733070DB011B
:101AF000AE5BBF4F4D915C9111972417350739F0BC
:101B0000A081B181A60FB71F8C93318320830895E4
:101B100008951F920F920FB60F9211242F933F93A7
:101B20004F935F936F937F938F939F93AF93BF93E5
:101B3000EF93FF938091C60063E472E00E946E0D04
:101B4000FF91EF91BF91AF919F918F917F916F9195
:101B50005F914F913F912F910F900FBE0F901F906B
:101B600018958BEC92E00E94D00C009711F00E9427
:101B7000880D08951F920F920FB60F9211242F9384
:101B80003F935F936F937F938F939F93AF93BF9395
:101B9000EF93FF932091C7023091C8028091C90250
:101BA0009091CA022817390731F48091C1008F7DC6
:101BB0008093C10016C0E091C902F091CA02E957B2
:101BC000FD4F20818091C9029091CA02019660E484
:101BD00070E00E947A179093CA028093C902209302
:101BE000C600FF91EF91BF91AF919F918F917F912F
:101BF0006F915F913F912F910F900FBE0F901F90AB
:101C000018958F92AF92BF92CF92DF92EF92FF9290
:101C10000F931F93DF93CF93CDB7DEB7FC011382F1
:101C2000128288EE93E0A0E0B0E084839583A683DF
:101C3000B7838EE192E091838083758764875787AD
:101C40004687318B208B138B028BF58AE48AD78AE7
:101C5000C68AB18EA08E828E8E85838F8F85848F6B
:101C60008889858F8989868FCF91DF911F910F9108
:101C7000FF90EF90DF90CF90BF90AF908F9008953E
:101C8000DF92EF92FF920F931F93CF93DF93EC01BC
:101C90007A018B01DD24D394403081EE580780E037
:101CA000680780E0780749F4DD24EC89FD8910821B
:101CB00060E874E88EE190E00FC0EC89FD8981E076
:101CC00090E00E8C02C0880F991F0A94E2F780837F
:101CD00060E079E08DE390E0A80197010E948D1704
:101CE00021503040404050405695479537952795B4
:101CF00080E12030380710F0DD20B1F6E889F9895D
:101D00003083EA89FB892083EE89FF89408181E065
:101D100090E09C010A8C02C0220F331F0A94E2F764
:101D2000422B4083EE89FF8940819C010B8C02C0CD
:101D3000220F331F0A94E2F7422B4083EE89FF897A
:101D400040819C010C8C02C0220F331F0A94E2F7E1
:101D5000422B4083EE89FF8920810D8C02C0880FC1
:101D6000991F0A94E2F7809582238083DF91CF91B7
:101D70001F910F91FF90EF90DF900895CF93DF9325
:101D8000FC0186859785DC01A05CBF4F8E5B9F4F71
:101D90004D915C911197EC012881398142175307CD
:101DA000B9F7A689B7894C9181E090E09C01028C3B
:101DB00002C0220F331F0A94E2F7209524232C93AC
:101DC000A689B7894C919C01038C02C0220F331F56
:101DD0000A94E2F7209524232C93A689B7894C9185
:101DE0009C01048C02C0220F331F0A94E2F7209555
:101DF00024232C93A689B7892C91058C02C0880FC7
:101E0000991F0A94E2F7809582238C9384859585A7
:101E1000FC01EE5BFF4F20813181805C9F4FFC0114
:101E200031832083DF91CF9108951092CE021092DA
:101E3000CD0288EE93E0A0E0B0E08093CF029093D3
:101E4000D002A093D102B093D202EDECF2E08EE189
:101E500092E09293829383E492E09587848787E867
:101E600092E09787868785EC90E0918B808B84EC5D
:101E700090E0938B828B80EC90E0958B848B81EC4F
:101E800090E0978B868B86EC90E0918F808F84E03A
:101E9000828F83E0838F87E0848F85E0858F81E068
:101EA000868F0895FC01808191810E949A1808957F
:101EB000CF93DF93EC0188819981009711F00E9404
:101EC0009A18198218821D821C821B821A82DF9145
:101ED000CF9108950F931F93CF93DF93EC018B0164
:101EE0006F5F7F4F888199810E943319009731F08D
:101EF000998388831B830A8381E001C080E0DF919E
:101F0000CF911F910F910895CF93DF93EC018881BA
:101F10009981009729F08A819B818617970778F429
:101F2000CE010E946A0F882341F08C819D81009729
:101F300031F4E881F981108202C080E001C081E0C3
:101F4000DF91CF910895EF92FF920F931F93CF935C
:101F5000DF93EC017B018A01BA010E94840F882380
:101F600021F4CE010E94580F07C01D830C83888185
:101F70009981B7010E946C1ACE01DF91CF911F9118
:101F80000F91FF90EF900895CF93DF93FC011182A2
:101F900010821382128215821482168261157105D5
:101FA00059F0EB0109900020E9F7AE014150504093
:101FB000461B570B0E94A30FDF91CF910895EF921C
:101FC000FF92CF93DF93EC01FB018617970761F037
:101FD000608171816115710529F0448155810E94EC
:101FE000A30F02C00E94580FCE01DF91CF91FF9046
:101FF000EF900895FC0111821082138212821582E3
:10200000148216820E94DF0F08950F931F938C0194
:102010006115710561F0DB010D900020E9F7AD015C
:1020200041505040461B570B0E94A30F02C00E9414
:10203000580FC8011F910F910895EF92FF920F93CF
:102040001F93DF93CF93CDB7DEB7A1970FB6F89468
:10205000DEBF0FBECDBF7C01CB01BA01F7011182FB
:102060001082138212821582148216828E010F5FF3
:102070001F4FA80130E00E941F1BC701B8010E943A
:102080000510A1960FB6F894DEBF0FBECDBFCF915D
:10209000DF911F910F91FF90EF900895EF92FF92C3
:1020A0000F931F93DF93CF93CDB7DEB7A2970FB6F1
:1020B000F894DEBF0FBECDBF7C01CB01BA01F701A2
:1020C00011821082138212821582148216828E016E
:1020D0000F5F1F4FA80130E00E94D61AC701B80158
:1020E0000E940510A2960FB6F894DEBF0FBECDBFBA
:1020F000CF91DF911F910F91FF90EF900895EF9294
:10210000FF920F931F93DF93CF93CDB7DEB7619705
:102110000FB6F894DEBF0FBECDBF7C01CB01F70137
:1021200011821082138212821582148216828E010D
:102130000F5F1F4FB80150E00E94441BC701B80158
:102140000E94051061960FB6F894DEBF0FBECDBF9A
:10215000CF91DF911F910F91FF90EF900895EF9233
:10216000FF920F931F93DF93CF93CDB7DEB76297A4
:102170000FB6F894DEBF0FBECDBF7C01CB01F701D7
:1021800011821082138212821582148216828E01AD
:102190000F5F1F4FB80150E00E94B51AC701B80188
:1021A0000E94051062960FB6F894DEBF0FBECDBF39
:1021B000CF91DF911F910F91FF90EF900895EF92D3
:1021C000FF920F931F93DF93CF93CDB7DEB729977D
:1021D0000FB6F894DEBF0FBECDBF7C01862FF7018E
:1021E000118210821382128215821482168290E06C
:1021F0008E010F5F1F4FB80150E00E94441BC701C2
:10220000B8010E94051029960FB6F894DEBF0FBEE4
:10221000CDBFCF91DF911F910F91FF90EF90089567
:10222000DF93CF9300D0CDB7DEB7FC0111821082CF
:102230001382128215821482168269831A82BE0169
:102240006F5F7F4F0E9405100F900F90CF91DF912D
:102250000895EF92FF920F931F93CF93DF93EC01BA
:102260007B010C811D8161157105B9F04115510586
:1022700091F0040F151FB8010E94840F882369F0A4
:10228000288139818C819D81820F931FB7010E9423
:102290006C1A1D830C8381E001C080E0DF91CF9137
:1022A0001F910F91FF90EF900895FB016081718164
:1022B000448155810E94291108956115710561F0CD
:1022C000DB010D900020E9F7AD0141505040461B65
:1022D000570B0E942911089580E00895DF93CF9352
:1022E00000D0CDB7DEB769831A82BE016F5F7F4F22
:1022F00041E050E00E9429110F900F90CF91DF91A3
:102300000895EF92FF920F931F93DF93CF9300D026
:1023100000D0CDB7DEB77C01862F90E08E010F5F35
:102320001F4FB8014AE050E00E94B51AF801019031
:102330000020E9F7AF0141505040401B510BC7014D
:10234000B8010E9429110F900F900F900F90CF911C
:10235000DF911F910F91FF90EF900895EF92FF9200
:102360000F931F93DF93CF93CDB7DEB727970FB6A9
:10237000F894DEBF0FBECDBF7C01CB018E010F5F95
:102380001F4FB8014AE050E00E94B51AF8010190D1
:102390000020E9F7AF0141505040401B510BC701ED
:1023A000B8010E94291127960FB6F894DEBF0FBE20
:1023B000CDBFCF91DF911F910F91FF90EF900895C6
:1023C000EF92FF920F931F93DF93CF9300D000D033
:1023D00000D0CDB7DEB77C01CB018E010F5F1F4F60
:1023E000B8014AE050E00E94441BF801019000202F
:1023F000E9F7AF0141505040401B510BC701B801F4
:102400000E94291126960FB6F894DEBF0FBECDBFED
:10241000CF91DF911F910F91FF90EF900895EF9270
:10242000FF920F931F93DF93CF93CDB7DEB72C9717
:102430000FB6F894DEBF0FBECDBF7C01CB01BA0151
:102440008E010F5F1F4FA8012AE030E00E94D61ACC
:10245000F80101900020E9F7AF0141505040401BC6
:10246000510BC701B8010E9429112C960FB6F894A0
:10247000DEBF0FBECDBFCF91DF911F910F91FF90B7
:10248000EF900895EF92FF920F931F93DF93CF93F6
:10249000CDB7DEB72B970FB6F894DEBF0FBECDBF1A
:1024A0007C01CB01BA018E010F5F1F4FA8012AE00A
:1024B00030E00E941F1BF80101900020E9F7AF01F6
:1024C00041505040401B510BC701B8010E942911D7
:1024D0002B960FB6F894DEBF0FBECDBFCF91DF9124
:1024E0001F910F91FF90EF9008950F931F938C0110
:1024F000FB0160817181448155810E9429118823EB
:1025000019F4C8010E94580FC8011F910F91089536
:102510000F931F938C016115710569F0DB010D901C
:102520000020E9F7AD0141505040461B570B0E9477
:102530002911882319F4C8010E94580FC8011F915E
:102540000F9108950F931F938C010E946E118823A1
:1025500019F4C8010E94580FC8011F910F910895E6
:102560000F931F938C010E948111882319F4C801D5
:102570000E94580FC8011F910F9108950F931F9348
:102580008C010E94AE11882319F4C8010E94580FD3
:10259000C8011F910F9108950F931F938C010E9402
:1025A000E011882319F4C8010E94580FC8011F9137
:1025B0000F9108950F931F938C010E940F1288238F
:1025C00019F4C8010E94580FC8011F910F91089576
:1025D0000F931F938C010E944212882319F4C801A3
:1025E0000E94580FC8011F910F910895CF93DF9358
:1025F000FC01DB0180819181009731F06D917C912C
:10260000119761157105E9F4CD91DC91119720972F
:1026100069F014962D913C9115972115310531F0F3
:10262000288130E0309521953F4F12C0009771F01E
:10263000248135812115310549F0FC01208130E0EC
:1026400007C00E94631A282F392F02C020E030E013
:10265000C901DF91CF910895FC0144815581FB01AF
:10266000248135814217530729F40E94F61221E094
:10267000009709F020E0822F0895FC018481958164
:10268000009741F46115710519F081E0FB0109C063
:1026900081E008950190F081E02D6115710531F41C
:1026A00081E09081992359F080E00895CF010E9444
:1026B000631A9C0181E02115310509F080E008953D
:1026C0000E94F612892F881F8827881F08950E946C
:1026D000F61221E0181619060CF020E0822F08955A
:1026E0000E94F61221E0181619060CF420E0822F41
:1026F00008950E94F612892F8095881F8827881FC9
:102700000895EF92FF920F931F93CF93DF93FC01F5
:10271000DB018617970729F18481958114962D9105
:102720003C91159782179307F1F40097D1F000813F
:102730001181CD91DC9111970FC0992787FD90955C
:102740000E942D1A7C018991992787FD90950E94FE
:102750002D1AE816F90639F4F80181918F018823C2
:1027600061F781E001C080E0DF91CF911F910F916F
:10277000FF90EF900895FC01DB01CA0114964D9182
:102780005C91159724813581241B350B2817390757
:10279000A0F0208131812115310579F06D917C9176
:1027A00011976115710559F0820F931F0E94731ADA
:1027B0009C0181E02115310519F080E0089580E049
:1027C0000895FC0144815581FB0124813581421724
:1027D000530728F040E050E00E94BB13089580E0CA
:1027E0000895FC01DB018481958114964D915C91E3
:1027F000159784179507B0F0208131812115310597
:1028000089F06D917C9111976115710569F0841BB8
:10281000950B820F931F0E94631A9C0181E0211582
:10282000310519F080E0089580E00895FC0184816D
:1028300095816817790730F40190F081E02DE60F5B
:10284000F71F40830895FC018481958168177907FB
:1028500020F480819181009729F41092EA026AEEB7
:1028600072E002C0680F791FCB010895FC018481DA
:1028700095816817790748F480819181009739F034
:10288000680F791FFB018081089580E0089580E042
:1028900008950E94361408950F931F93CF93DF93EA
:1028A000FC018B0141155105F1F061157105D9F05D
:1028B000C481D5812C173D0718F0FB01108213C08D
:1028C00041505040C21BD30B4C175D0708F4EA017E
:1028D00060817181620F731FC801AE010E94811A6D
:1028E000C00FD11F1882DF91CF911F910F910895D2
:1028F000CF93DF93FC01CA0124813581421753072E
:1029000078F4C081D181772767FD70958C0F9D1F6A
:102910000E94581A009721F09C012C1B3D0B02C00D
:102920002FEF3FEFC901DF91CF91089540E050E0D4
:102930000E9478140895CF93DF93FC01CA0124818B
:1029400035814217530778F4C081D181FB01608142
:1029500071818C0F9D1F0E949B1A009721F09C0192
:102960002C1B3D0B02C02FEF3FEFC901DF91CF9130
:10297000089540E050E00E949B140895DF92EF928A
:10298000FF920F931F93CF93DF93EC018C819D8176
:1029900048175907F8F47A010894E11CF11CE88102
:1029A000F981EE0DFF1DD0801082088119817727F3
:1029B00067FD7095C8010E94901A0E0D1F1DF80149
:1029C000D082009739F028813981AC01421B530B2A
:1029D0009A0102C02FEF3FEFC901DF91CF911F9104
:1029E0000F91FF90EF90DF900895FC014481558195
:1029F000415050400E94BE140895AF92BF92CF92B2
:102A0000DF92EF92FF920F931F93CF93DF93FC011E
:102A10006B018A01DB0114962D913C9115972115CC
:102A2000310551F184819581009731F18217930727
:102A300018F14817590718F08C0101501040E08038
:102A4000F180C701CFEFDFEF5701A00EB11E10C01C
:102A5000F601608171810E949B1A009779F09C01B8
:102A60002E193F090217130708F49E010196E90188
:102A7000A816B90668F702C0CFEFDFEFCE01DF91ED
:102A8000CF911F910F91FF90EF90DF90CF90BF906B
:102A9000AF900895FC0144815581FB01248135816B
:102AA000421B530B0E94FD140895AF92BF92CF9228
:102AB000DF92EF92FF920F931F93CF93DF93F82E45
:102AC000E92E6B018A01E9012417350748F4342FF8
:102AD000212F8E01C901A92EE5015E01B22EE5016B
:102AE0008F2D9E2D62E071E00E94C40FD6011496D6
:102AF0008D919C91159780179107D8F08C179D07A1
:102B000008F4EC01D601ED91FC911197EC0FFD1F3B
:102B1000B08010826D917C91600F711F8F2D9E2D62
:102B20000E940510D601ED91FC911197EC0FFD1F4D
:102B3000B0828F2D9E2DDF91CF911F910F91FF902D
:102B4000EF90DF90CF90BF90AF900895CF93DF9339
:102B5000EC01FB01248135810E945515CE01DF91E6
:102B6000CF910895DC01ED91FC911197309729F4F4
:102B70000895861709F44083319680818823C9F728
:102B800008952F923F924F925F926F927F928F9211
:102B90009F92AF92BF92CF92DF92EF92FF920F93EC
:102BA0001F93CF93DF937C012B016A01DC01149604
:102BB0006D907C9015976114710409F4D9C0FB01E4
:102BC000848095808114910409F4D2C0DA011496AE
:102BD000AD90BC901597A818B908FC01008111812F
:102BE000A114B104F1F413C0D6016C9111967C913B
:102BF000119714964D915C911597CE010E943D1A44
:102C0000D60114960D911C9115970C0F1D1FF20102
:102C100060817181C8010E949B1AEC01009721F725
:102C2000A7C0B7FC02C0E30142C048012DC0E301C8
:102C3000C01BD10BC401B801AE010E943D1AC80DE2
:102C4000D91DD6016C9111967C91119714964D91D6
:102C50005C911597CE010E943D1AD60114968D9075
:102C60009C9015978C0E9D1EF20104811581060D16
:102C7000171DD70114968D919C9115978A0D9B1D58
:102C800015969C938E931497F20160817181C8010F
:102C90000E949B1A3C01009751F6C401B8010E94A2
:102CA0006C1A66C08C01080D191DCA0DDB1DD201FE
:102CB0006D917C91C8010E949B1A009799F7C615E7
:102CC000D70509F455C0F701828193818C179D07C0
:102CD00008F045C0C701BE010E946A0F882309F4AD
:102CE00047C03DC0C701B201A9010E94FD14EC011B
:102CF00097FD3EC0D7016D917C911197F2018481BF
:102D000095818C0F9D1F680F791F14964D915C91D2
:102D10001597481B590BCB018A0D9B1D0E94461A23
:102D2000D70114968D919C9115978A0D9B1D159630
:102D30009C938E931497ED91FC911197E80FF91FD6
:102D400010822D913C912C0F3D1FF6016081718105
:102D500044815581C9010E943D1A9E0105C0D701D9
:102D600014962D913C9115972150304037FFBACFE2
:102D7000DF91CF911F910F91FF90EF90DF90CF9057
:102D8000BF90AF909F908F907F906F905F904F908B
:102D90003F902F900895CF93DF93FC01C081D181A4
:102DA000209739F409C0992787FD90950E942D1A24
:102DB000899388818823B9F7DF91CF910895CF93C4
:102DC000DF93FC01C081D181209739F409C0992794
:102DD00087FD90950E94351A899388818823B9F7D9
:102DE000DF91CF910895AF92BF92CF92DF92EF9291
:102DF000FF920F931F93CF93DF936C01DC01ED9053
:102E0000FC901197E114F10409F443C01496AD90BD
:102E1000BC901597A114B104E1F18701E801888104
:102E20000F5F1F4F992787FD90950E94251A0097E5
:102E3000A9F78501015010400E0D1F1DF80180817A
:102E4000992787FD90950E94251A009731F00C175D
:102E50001D0718F001501040F1CF0F5F1F4F0C1BE2
:102E60001D0BD60115961C930E931497EC16FD06B8
:102E700028F4C701BE01A8010E943D1AD601ED91B8
:102E8000FC91119714968D919C911597E80FF91F5D
:102E90001082DF91CF911F910F91FF90EF90DF9003
:102EA000CF90BF90AF900895FC01808191810097F1
:102EB00029F00E94FE199B01AC0103C020E030E024
:102EC000A901B901CA0108950E94001808950E943D
:102ED0009A18089521E030E0FC018081882311F0E8
:102EE00020E030E0C901089521E0FC01208308952D
:102EF0000895089597FB092E07260AD077FD04D080
:102F00002ED006D000201AF4709561957F4F089559
:102F1000F6F7909581959F4F0895A1E21A2EAA1B6E
:102F2000BB1BFD010DC0AA1FBB1FEE1FFF1FA21779
:102F3000B307E407F50720F0A21BB30BE40BF50B76
:102F4000661F771F881F991F1A9469F760957095FF
:102F5000809590959B01AC01BD01CF010895AA1BFE
:102F6000BB1B51E107C0AA1FBB1FA617B70710F074
:102F7000A61BB70B881F991F5A95A9F780959095A6
:102F8000BC01CD0108952F923F924F925F926F92B4
:102F90007F928F929F92AF92BF92CF92DF92EF92E9
:102FA000FF920F931F93CF93DF93CDB7DEB7CA1B6A
:102FB000DB0B0FB6F894DEBF0FBECDBF09942A8895
:102FC000398848885F846E847D848C849B84AA843D
:102FD000B984C884DF80EE80FD800C811B81AA81CA
:102FE000B981CE0FD11D0FB6F894DEBF0FBECDBF95
:102FF000ED010895EE0FFF1F0590F491E02D099467
:10300000CF93DF938230910510F482E090E0E0915D
:10301000ED02F091EE0240E050E020E030E026C00A
:103020006081718168177907E0F06817790781F48A
:10303000828193812115310531F0D90113969C933A
:103040008E9312972BC09093EE028093ED0226C0D0
:103050004115510519F06417750718F4AB01E90122
:10306000DF019F0172816381E72FF62F3097C1F650
:103070004115510501F1481B590B4430510580F4AD
:1030800012968D919C911397209719F09B838A83B8
:1030900004C09093EE028093ED02FD01329646C08B
:1030A000FD01E40FF51F819391934250504011961A
:1030B0005C934E933BC02091EB023091EC022115C2
:1030C000310541F420910D0230910E023093EC0253
:1030D0002093EB0220910F0230911002211531054F
:1030E00041F42DB73EB740910B0250910C02241BC6
:1030F000350BE091EB02F091EC02E217F307A0F43C
:103100002E1B3F0B2817390778F0AC014E5F5F4F3D
:103110002417350748F04E0F5F1F5093EC02409381
:10312000EB028193919302C0E0E0F0E0CF01DF91E8
:10313000CF910895CF93DF93009709F491C0FC01DC
:103140003297138212826091ED027091EE02611546
:10315000710581F420813181280F391F8091EB02A4
:103160009091EC028217930799F5F093EC02E093AB
:10317000EB0276C0DB0180E090E002C0CD01D90116
:10318000AE17BF0748F412962D913C911397211565
:103190003105A1F7CD0121C0B383A283EF0149918D
:1031A00059919E01240F351FA217B30779F42D9171
:1031B0003C911197240F351F2E5F3F4F31832083A1
:1031C00012962D913C91139733832283009729F413
:1031D000F093EE02E093ED0243C0DC011396FC9302
:1031E000EE9312974D915D91A40FB51FEA17FB075F
:1031F00069F420813181240F351F2E5F3F4FEC0190
:1032000039832883228133813B832A83E0E0F0E005
:1032100002C0FB01BC01DB0112968D919C911397BA
:103220000097B9F79B012E5F3F4F8D919C911197AD
:10323000820F931F4091EB025091EC0248175907FF
:1032400079F4309729F41092EE021092ED0202C048
:1032500013821282225030403093EC022093EB0212
:10326000DF91CF910895A0E0B0E0E9E3F9E10C949B
:10327000C9178C01CB010115110529F40E94001812
:10328000082F192FB5C0D80112979801260F371FA4
:103290002A173B0708F4AAC0ED90FC901197E61698
:1032A000F706D0F045E0E416F10408F4A1C0A70148
:1032B000445050404617570708F49AC0A70142509F
:1032C0005040461B570BF901419351936D937C93EA
:1032D000CF010E949A188CC05B01AE18BF0848014C
:1032E0008E0C9F1CE091ED02F091EE02CC24DD24C7
:1032F000C0E0D0E041C0E815F90599F56081718121
:10330000AB014E5F5F4F4A155B0558F1AB014A199F
:103310005B09CC24DD246894C1F8C40ED51E8280DC
:10332000A380E5E0CE16D10448F0F9018282A382A1
:103330005183408311969C938E9309C0C7010296D6
:10334000860F971F11969C938E93E82DFA2D209748
:1033500019F0FB83EA834CC0F093EE02E093ED0298
:1033600047C040815181C416D50608F46A01EF01B7
:1033700052814381E52FF42F309709F0BCCF409163
:10338000EB025091EC0248155905E9F4C816D9062C
:10339000D0F440910F02509110024115510541F4B3
:1033A0004DB75EB760910B0270910C02461B570B34
:1033B00024173507D8F43093EC022093EB021196D2
:1033C0009C938E9315C00E940018C82EE6016E01D2
:1033D000D92EE601209751F08C2DB801A7010E944B
:1033E0003D1AC8010E949A18860102C000E010E050
:1033F000C801CDB7DEB7ECE00C94E5171F93FC01D4
:1034000099278827BC01E89411911032E9F319300B
:1034100010F01E30C8F31B3251F01D3249F468948D
:1034200006C00E940A1B610F711D811D911D119123
:1034300010531A30B0F33EF49095809570956195D5
:103440007F4F8F4F9F4F1F910895911133C180324D
:1034500019F089508550D0F708959111089581543D
:103460008A5108F4805E855A089591110895815615
:103470008A5108F4805285580895FB01DC0102C08E
:1034800001900D9241505040D8F708956817790780
:1034900068F4FB01DC01E40FF51FA40FB51F02C0A7
:1034A00002900E9241505040D8F708950C943D1A66
:1034B000FC018191861721F08823D9F79927089577
:1034C0003197CF010895FB01DC018D9101908019A6
:1034D0000110D9F3990B0895FB01DC0101900D92C5
:1034E0000020E1F70895FB01DC014150504030F02D
:1034F0008D910190801919F40020B9F7881B990B60
:103500000895FB01DC014150504048F001900D92BC
:103510000020C9F701C01D9241505040E0F70895C6
:10352000FC0181E090E00190061609F4CF01002033
:10353000D1F701970895FB0151915523A9F0BF01DF
:10354000DC014D9145174111E1F759F4CD0101908E
:10355000002049F04D9140154111C9F3FB01411183
:10356000EFCF81E090E001970895FB019F01E8947F
:103570004230C4F04532B4F44A3029F497FB1EF4CB
:10358000909581959F4F642F77270E94AF17805D9C
:103590008A330CF0895D8193CB010097A1F716F473
:1035A0005DE251931082C9010C945D1BFA01CF9327
:1035B000FF93EF93223044F1253234F5C22FE89483
:1035C000CA3049F497FB3EF49095809570956195CB
:1035D0007F4F8F4F9F4F2C2F332744275527FF9323
:1035E000EF930E948D17EF91FF91605D6A330CF0AD
:1035F000695D6193B901CA0160507040804090409C
:1036000051F716F4CDE2C19310828F919F91CF9123
:103610000C945D1B592F482F372F262F660F771FCD
:10362000881F991F660F771F881F991F620F731FCE
:10363000841F951F660F771F881F991F0895FA0131
:10364000CF93FF93EF932230CCF02532BCF4C22FFE
:103650002C2F332744275527FF93EF930E948D1774
:10366000EF91FF91605D6A330CF0695D6193B90180
:10367000CA01605070408040904051F710828F9195
:103680009F91CF910C945D1BFB019F01423074F020
:10369000453264F4642F77270E94AF17805D8A3328
:1036A0000CF0895D8193CB010097A1F71082C901CD
:1036B0000C945D1B992788270895DC01FC01672F76
:1036C00071917723E1F7329704C07C916D937083F9
:0E36D0006291AE17BF07C8F30895F894FFCFBC
:1036DE002E000000000000000000000001020203A6
:1036EE00030303040404040404040405050505058A
:1036FE000505050505050505050505060606060667
:10370E00060606060606060606060606060606064B
:10371E000606060606060606060606070707070736
:10372E00070707070707070707070707070707071B
:10373E00070707070707070707070707070707070B
:10374E0007070707070707070707070707070707FB
:10375E0007070707070707070707070808080808E6
:10376E0008080808080808080808080808080808CB
:10377E0008080808080808080808080808080808BB
:10378E0008080808080808080808080808080808AB
:10379E00080808080808080808080808080808089B
:1037AE00080808080808080808080808080808088B
:1037BE00080808080808080808080808080808087B
:1037CE00080808080808080808080808080808086B
:1037DE0008080808080808080808082000EF020072
:1037EE000001000000007917BC0900000000350D33
:1037FE00BC09D00CFF0CE30C210D00000000791762
:0A380E00BC097917791779177917AB
:00000001FF
