:100000000C9463000C948B000C948B000C948B006C
:100010000C948B000C948B000C948B000C948B0034
:100020000C948B000C948B000C948B000C942C0281
:100030000C948B000C948B000C948B000C948B0014
:100040000C94410A0C948B000C94A90F0C94DA0FB9
:100050000C948B000C948B000C948B000C948B00F4
:100060000C948B000C948B000000000024002700EF
:100070002A0000000000250028002B0000000000DE
:1000800023002600290004040404040404040202DA
:100090000202020203030303030301020408102007
:1000A0004080010204081020010204081020000012
:1000B0000007000201000003040600000000000029
:1000C00000009402351111241FBECFEFD8E0DEBF2F
:1000D000CDBF12E0A0E0B1E0EEE1FBE302C005908D
:1000E0000D92AA34B107D9F713E0AAE4B2E001C037
:1000F0001D92A132B107E1F710E0C6ECD0E004C0D8
:100100002297FE010E941C1AC23CD107C9F70E9427
:100110008F020C948D1D0C940000CF93DF93EC01A3
:10012000CB01BA010E940907798F688FDF91CF91C7
:1001300008956F927F928F929F92AF92BF92CF92CB
:10014000DF92EF92FF920F931F93CF93DF93EC0117
:10015000688079808A809B80688579858A859B857F
:10016000A40193010E944004288939894A895B8946
:100170000E9471047B018C01C401B3012C853D8573
:100180004E855F850E9440042C893D894E895F8998
:100190000E9471049B01AC01C801B7010E941304C5
:1001A000D62EC72EB82EA92EA6019501852F942FE5
:1001B000A32FB22F8C839D83AE83BF83EE8CFF8CE5
:1001C00008A119A1652F742F832F922FA8019701E1
:1001D0000E941906181684F0EA8CFB8C0C8D1D8D7C
:1001E000A6019501652F742F832F922FA8019701E7
:1001F0000E94790687FF04C0EC82FD820E831F8374
:100200006C867D868E869F86DF91CF911F910F91A0
:10021000FF90EF90DF90CF90BF90AF909F908F9026
:100220007F906F900895AF92BF92CF92DF92EF923E
:10023000FF920F931F93CF93DF93EC015A016B0151
:1002400078018901688D798D882777FD8095982FB1
:100250000E94A90620E030E04AE754E40E946B05C2
:10026000562F472F382F292FA88AB98ACA8ADB8AA6
:10027000C801B701DA01F9012B2F3A2F4F2F5E2F5A
:100280000E946B056C8B7D8B8E8B9F8BDF91CF914A
:100290001F910F91FF90EF90DF90CF90BF90AF90A4
:1002A0000895CF92DF92EF92FF920F931F93CF9317
:1002B000DF93EC018B01161617062CF5B801882781
:1002C00077FD8095982F0E94A9066B017C01688DAF
:1002D000798D882777FD8095982F0E94A9069B012C
:1002E000AC01C701B6010E946B059B01AC016C8992
:1002F0007D898E899F890E946B056C8B7D8B8E8B8F
:100300009F8B198F088FDF91CF911F910F91FF90D5
:10031000EF90DF90CF9008956F927F928F929F928F
:10032000AF92BF92CF92DF92EF92FF920F931F9303
:10033000CF93DF93EC015A016B0178018901CB0166
:10034000BA01A80197010E94190618162CF1AA8E6D
:10035000BB8ECC8EDD8EEE8EFF8E08A319A36C8033
:100360007D808E809F80C401B301A80197010E9407
:10037000190618162CF4EC82FD820E831F830CC024
:10038000C401B301A60195010E94790687FF04C04C
:10039000AC82BD82CE82DF82DF91CF911F910F911F
:1003A000FF90EF90DF90CF90BF90AF909F908F9095
:1003B0007F906F9008950F931F93CF93DF938DEFEE
:1003C00092E040E855E260E070E00E94601080E05A
:1003D00090E0A8E4B3E48093520290935302A09378
:1003E0005402B0935502CAE4D2E0CE014DEC5CEC6D
:1003F0006CEC7DE30AE017ED23EA3BE30E94130176
:10040000CE0140E050E06FE773EC00E010E09801AF
:100410000E948C01F89410928000E1E8F0E01082D4
:10042000109285001092840089E09DE390938900EA
:10043000809388008081886080838081846080834D
:10044000EFE6F0E08081826080837894DF91CF9145
:100450001F910F91089508951F920F920FB60F925A
:1004600011242F933F934F935F936F937F938F93B9
:100470009F93AF93BF93CF93DF93EF93FF9382E06C
:100480000E94C0099C01B901882777FD8095982FAB
:100490000E94A90660934A0270934B0280934C021B
:1004A00090934D028AE492E00E949900CDEFD2E051
:1004B000CE0160E071E00E946D0C40914A025091C3
:1004C0004B0260914C0270914D02CE0122E030E06F
:1004D0000E94DA0ECE0166E071E00E946D0C409140
:1004E0004E0250914F026091500270915102CE0124
:1004F00022E030E00E94DD0EFF91EF91DF91CF917D
:10050000BF91AF919F918F917F916F915F914F912B
:100510003F912F910F900FBE0F901F9018950E9442
:10052000EE0A0E94DB01FFCF8AE492E040E050E057
:100530006AE773E40E948D000895EF92FF920F9393
:100540001F937B018C0120E030E040E05FE40E94DB
:10055000490687FD11C0C801B70120E030E040E046
:100560005FE40E9440040E9409079B01AC012050F7
:1005700030404040504806C0C801B7010E940907FA
:100580009B01AC01B901CA011F910F91FF90EF903F
:100590000895A0E0B0E0EFECF2E00C94E719FC0164
:1005A000EA018081823008F438C1DB019C919230ED
:1005B00008F430C1843059F4943009F02EC191818F
:1005C00011968C911197981709F021C126C194308A
:1005D00009F420C19230B1F4823009F01EC1CA0181
:1005E000AF0128E0DA010D90AD01DC010D92CD01E3
:1005F0002150C1F7DB0111968C91119791818923CC
:1006000089830AC1823009F405C1C280D380DB012D
:1006100012966D907C901397248135814681578185
:100620001496ED90FD900D911C911797C6018619B7
:1006300097095C0197FF04C0AA24BB24A81AB90A31
:10064000B0E2AB16B1040CF061C0181619066CF5D7
:10065000370148010A2C04C09694879477946794D4
:100660000A94D2F781E090E0A0E0B0E00A2C04C048
:10067000880F991FAA1FBB1F0A94D2F70197A109DF
:10068000B1098E219F21A023B123EE24FF248701ED
:10069000E3940097A105B10519F4EE24FF24870126
:1006A000E628F728082919293CC00097D1F1CA0C7F
:1006B000DB1C39014A010A2C04C096948794779474
:1006C00067940A94D2F781E090E0A0E0B0E00A2CB1
:1006D00004C0880F991FAA1FBB1F0A94D2F7019765
:1006E000A109B10982239323A423B52321E030E09B
:1006F00040E050E00097A105B10519F420E030E09A
:10070000A90126293729482959290BC06C147D04D1
:1007100024F4EE24FF24870104C0630120E030E0CC
:10072000A9018181FB019181891709F445C08823C2
:1007300049F0D801C701821B930BA40BB50B9C0198
:10074000AD0104C02E193F09400B510B57FD04C0E9
:100750001982DB82CA820BC081E08983DB82CA8274
:1007600050954095309521953F4F4F4F5F4F2C83CB
:100770003D834E835F830DC0880F991FAA1FBB1F47
:100780008C839D83AE83BF838A819B8101979B83EA
:100790008A838C819D81AE81BF819C01AD012150F6
:1007A0003040404050402F3FEFEF3E07EFEF4E0705
:1007B000EFE35E0708F30BC08983DB82CA822E0D4C
:1007C0003F1D401F511F2C833D834E835F8383E079
:1007D00088832C813D814E815F8157FF1DC0DA01E6
:1007E000C90181709070A070B0705695479537958B
:1007F0002795822B932BA42BB52B8C839D83AE83C3
:10080000BF838A819B8101969B838A8305C0E2E135
:10081000F1E003C0FB0101C0FE01CF01CDB7DEB79F
:10082000EEE00C94031AA0E2B0E0E9E1F4E00C94ED
:10083000EF1969837A838B839C832D833E834F8357
:10084000588789E0E82EF12CEC0EFD1ECE010196B2
:10085000B7010E94FB088E010F5E1F4FCE01059667
:10086000B8010E94FB08C701B801AE01475E5F4FA7
:100870000E94C9020E942D08A096E6E00C940B1A73
:10088000A0E2B0E0E6E4F4E00C94EF1969837A8327
:100890008B839C832D833E834F8358878E01075F14
:1008A0001F4FCE010196B8010E94FB0891E1E92E8D
:1008B000F12CEC0EFD1ECE010596B7010E94FB083F
:1008C0008A8991E089278A8BC801B701AE01475E0A
:1008D0005F4F0E94C9020E942D08A096E6E00C948A
:1008E0000B1AA0E2B0E0E7E7F4E00C94E3196983A7
:1008F0007A838B839C832D833E834F835887CE01DD
:100900000196BE01675F7F4F0E94FB08CE010596EE
:10091000BE016F5E7F4F0E94FB089985923078F090
:1009200089898230C0F0943019F4823041F4CBC010
:10093000843019F4923079F4C6C0923051F481E0D9
:100940002A859A89291709F480E08A87CE010996B9
:10095000BCC0823051F481E02A859A89291709F4B4
:1009600080E08A8BCE014196B0C06D847E848F84F6
:100970009888ED88FE880F89188DE0E2F0E080E02D
:1009800090E0DC01AA24BB24650120E030E0A9014D
:10099000B3016170707061157105D1F02E0D3F1DAE
:1009A000401F511F15012601280E391E4A1E5B1ECD
:1009B00081E090E0A0E0B0E02E153F054007510730
:1009C00018F080E090E0DC01820D931DA41DB51DA0
:1009D000AA0CBB1CCC1CDD1C17FF09C061E0262E35
:1009E000312C412C512CA228B328C428D52831976A
:1009F00049F0EE0CFF1C001F111F9694879477940A
:100A00006794C6CF6B897C89EB85FC856E0F7F1F51
:100A10006E5F7F4F7C8F6B8F61E0EA857A89E71785
:100A200009F460E06A8F6B8D7C8D10C0FC01E17071
:100A3000F070309729F0569547953795279550686F
:100A4000B695A795979587956F5F7F4FB7FDEECFCA
:100A50000CC0880F991FAA1FBB1F57FD8160220F72
:100A6000331F441F551F615070408030E0E09E07E7
:100A7000E0E0AE07E0E4BE0760F36B8F7C8F6FE7CA
:100A8000E62EF12C012D112DE822F9220A231B2339
:100A900060E4E616F1040105110561F487FD0AC062
:100AA000211531054105510529F0805C9F4FAF4F5D
:100AB000BF4F80788D8F9E8FAF8FB8A383E0898FD3
:100AC000CE01499602C082E191E00E942D08A096D5
:100AD000E2E10C94FF19A8E1B0E0E1E7F5E00C9445
:100AE000EB1969837A838B839C832D833E834F83A9
:100AF00058878E01075F1F4FCE010196B8010E94F3
:100B0000FB0881E1E82EF12CEC0EFD1ECE010596CE
:100B1000B7010E94FB089985923008F483C0898947
:100B2000823008F47BC02A853A8923272A879430AB
:100B300011F0923021F4981709F06CC071C0843024
:100B400039F41D861E861F86188A1C861B866AC07D
:100B5000823019F484E0898765C08B859C852B8958
:100B60003C89821B930B9C878B872D853E854F8507
:100B70005889ED88FE880F89188D2E153F0540078E
:100B8000510738F4220F331F441F551F01979C87CC
:100B90008B876FE170E0A12CB12CC12CA0E4DA2E80
:100BA00080E090E0DC012E153F054007510740F042
:100BB0008A299B29AC29BD292E193F09400B510BCD
:100BC000D694C794B794A794220F331F441F551F80
:100BD0006150704041F76FE7E62EF12C012D112D89
:100BE000E822F9220A231B2360E4E616F10401053A
:100BF000110561F487FD0AC0211531054105510534
:100C000029F0805C9F4FAF4FBF4F80788D879E87C4
:100C1000AF87B88B8E01075F1F4F04C0870102C0EA
:100C200002E111E0C8010E942D086896EAE00C94E8
:100C3000071AA8E1B0E0EFE1F6E00C94EF19698340
:100C40007A838B839C832D833E834F8358878E01C9
:100C5000075F1F4FCE010196B8010E94FB0881E19A
:100C6000E82EF12CEC0EFD1ECE010596B7010E9478
:100C7000FB088985823040F08989823028F0C801DC
:100C8000B7010E94640901C08FEF6896E6E00C94FA
:100C90000B1AA8E1B0E0EFE4F6E00C94EF196983D9
:100CA0007A838B839C832D833E834F8358878E0169
:100CB000075F1F4FCE010196B8010E94FB0881E13A
:100CC000E82EF12CEC0EFD1ECE010596B7010E9418
:100CD000FB088985823040F08989823028F0C8017C
:100CE000B7010E94640901C08FEF6896E6E00C949A
:100CF0000B1AA8E1B0E0EFE7F6E00C94EF19698376
:100D00007A838B839C832D833E834F8358878E0108
:100D1000075F1F4FCE010196B8010E94FB0881E1D9
:100D2000E82EF12CEC0EFD1ECE010596B7010E94B7
:100D3000FB088985823040F08989823028F0C8011B
:100D4000B7010E94640901C081E06896E6E00C9456
:100D50000B1AA8E0B0E0EFEAF6E00C94EF197B0183
:100D60008C0183E08983D801C7018827B7FD83956B
:100D70009927AA27BB27282F8A83E114F1040105AC
:100D8000110519F482E0898337C08EE190E09C83DD
:100D90008B83222389F080E0E81680E0F80680E06B
:100DA000080780E8180769F110950095F094E09421
:100DB000E11CF11C011D111DED82FE820F831887BD
:100DC000C801B7010E94D3079C0121503040121680
:100DD000130694F4022E04C0EE0CFF1C001F111F1A
:100DE0000A94D2F7ED82FE820F8318878EE190E09D
:100DF000821B930B9C838B83CE0101960E942D084E
:100E000004C060E070E080E09FEC2896E6E00C947F
:100E10000B1AACE0B0E0EFE0F7E00C94F319698353
:100E20007A838B839C83CE010196BE016B5F7F4FDB
:100E30000E94FB088D81823081F1823070F1843014
:100E400021F48E81882369F10AC02F81388537FD0E
:100E500024C06E812F3131053CF0662311F120E072
:100E600030E040E050E821C08EE190E0821B930B1F
:100E700029853A854B855C8504C0569547953795FD
:100E800027958A95D2F7662381F050954095309545
:100E900021953F4F4F4F5F4F08C020E030E0A90140
:100EA00004C02FEF3FEF4FEF5FE7B901CA012C9667
:100EB000E2E00C940F1AA8E0B0E0E1E6F7E00C9451
:100EC000ED197B018C011A8261157105810591056F
:100ED00019F482E089835FC083E089838EE1C82EA4
:100EE000D12CDC82CB82ED82FE820F831887C80171
:100EF000B7010E94D307FC013197F7FF3AC0AA2738
:100F0000BB27AE1BBF0B21E030E040E050E00A2ED3
:100F100004C0220F331F441F551F0A94D2F72150DB
:100F20003040404050402E213F214023512361E07A
:100F300070E080E090E0211531054105510519F47C
:100F400060E070E0CB0104C016950795F794E79434
:100F5000AA95D2F7E62AF72A082B192BED82FE82F2
:100F60000F8318878EE190E08E1B9F0B9C838B83F1
:100F700012C0309781F00E2E04C0EE0CFF1C001F33
:100F8000111F0A94D2F7ED82FE820F831887CE1AC2
:100F9000DF0ADC82CB82CE0101960E942D082896C2
:100FA000E8E00C94091AAF92BF92CF92DF92EF92D1
:100FB000FF920F931F937B018C0180E0E81680E085
:100FC000F80681E0080780E0180758F4EFEFEE1606
:100FD000F1040105110509F090F480E090E0DC01D6
:100FE00017C0F0E0EF16F0E0FF06F0E00F07F1E0C9
:100FF0001F0750F480E190E0A0E0B0E009C088E075
:1010000090E0A0E0B0E004C088E190E0A0E0B0E0B3
:1010100020E230E040E050E0281B390B4A0B5B0B2C
:101020005701680104C0D694C794B794A7948A95D1
:10103000D2F7D601C501865E9E4FFC018081281B38
:10104000310941095109C9011F910F91FF90EF909A
:10105000DF90CF90BF90AF900895EF92FF920F93E3
:101060001F93CF93DF93FC01248135814681578103
:1010700061818081823020F44061EFEFF0E0A3C015
:10108000843009F49BC0823009F492C021153105E7
:101090004105510509F48FC00280F381E02D8FEFE7
:1010A000E238F8070CF05AC0C2E8DFEFCE1BDF0BC6
:1010B000CA31D1056CF579018A010C2E04C0169550
:1010C0000795F794E7940A94D2F781E090E0A0E0C6
:1010D000B0E00C2E04C0880F991FAA1FBB1F0A94F2
:1010E000D2F70197A109B10982239323A423B52341
:1010F00021E030E040E050E00097A105B10519F48F
:1011000020E030E0A9012E293F29402B512B03C0BC
:1011100020E030E0A901DA01C9018F779070A0705A
:10112000B07080349105A105B10539F427FF09C0DD
:10113000205C3F4F4F4F5F4F04C0215C3F4F4F4FEC
:101140005F4FE1E0F0E0203080E0380780E04807C2
:1011500080E4580728F5E0E0F0E022C0E038F1052F
:101160006CF5E158FF4FDA01C9018F779070A070DC
:10117000B07080349105A105B10539F427FF09C08D
:10118000205C3F4F4F4F5F4F04C0215C3F4F4F4F9C
:101190005F4F57FF05C05695479537952795319670
:1011A00087E056954795379527958A95D1F70BC0D7
:1011B000E0E0F0E005C0E0E0F0E005C0EFEFF0E0D7
:1011C00020E030E0A9018E2F879588278795942FFE
:1011D0009F77679566276795E695E22EA92FA82B3E
:1011E000FE2FF62B622F732F8A2F9F2FCDB7DEB7DE
:1011F000E6E00C940B1ADC01FB012C9111963C915A
:10120000119712968C911297482F4F7750E0982F94
:10121000991F9927991F13966C911397862F880F02
:10122000892B90E0661F6627661F6183009739F55A
:10123000211531054105510511F482E029C082E8EC
:101240009FEF9383828367E0220F331F441F551F54
:101250006A95D1F783E0808309C0220F331F441FB2
:10126000551F82819381019793838283203080E090
:10127000380780E0480780E4580778F320C08F3FA4
:10128000910579F4211531054105510519F484E0E2
:101290008083089544FF03C081E0808310C01082E2
:1012A0000EC08F5790409383828383E0808387E0D2
:1012B000220F331F441F551F8A95D1F75064248392
:1012C0003583468357830895FC01DB01908192307A
:1012D00008F449C08C91823008F445C0943051F430
:1012E00061818430B1F511962C91119730E0261B65
:1012F000310941C0843021F0923041F48230B1F1A3
:1013000011968C9111978823A1F12DC061818230B3
:1013100001F111968C9111976817D9F422813381CC
:1013200012968D919C9113978217930794F028172A
:101330003907BCF0248135814681578114968D91FF
:101340009D910D90BC91A02D82179307A407B5071E
:1013500018F4662341F00DC0281739074A075B07C8
:1013600028F4662331F021E030E005C020E030E0D1
:1013700002C02FEF3FEFC901089580932002089526
:101380008E3008F08E508770909120029295990FC0
:10139000990F907C982B90937C0080917A008064C8
:1013A00080937A0080917A0086FDFCCF20917800AE
:1013B00030917900932F80E030E0282B392BC90140
:1013C00008951F93CF93DF93182FEB0161E00E94E4
:1013D000560B209709F44AC0CF3FD10509F449C004
:1013E000E12FF0E0E255FF4FE491E330C1F0E4304B
:1013F00028F4E13051F0E230B1F50CC0E63019F1DB
:10140000E73049F1E43079F514C084B5806884BDD3
:10141000C7BD33C084B5806284BDC8BD2EC0809175
:101420008000806880938000D0938900C0938800FA
:1014300024C080918000806280938000D0938B00D4
:10144000C0938A001AC08091B00080688093B00079
:10145000C093B30012C08091B00080628093B0004E
:10146000C093B4000AC0C038D1051CF4812F60E0DD
:1014700002C0812F61E00E947A0BDF91CF911F9112
:1014800008951F920F920FB60F9211242F933F933E
:101490008F939F93AF93BF9380917002909171024D
:1014A000A0917202B0917302309174020196A11D55
:1014B000B11D232F2D5F2D3720F02D570196A11D33
:1014C000B11D209374028093700290937102A093D7
:1014D0007202B093730280916C0290916D02A091A0
:1014E0006E02B0916F020196A11DB11D80936C0236
:1014F00090936D02A0936E02B0936F02BF91AF9173
:101500009F918F913F912F910F900FBE0F901F9041
:1015100018958FB7F8942091700230917102409124
:101520007202509173028FBFB901CA0108959FB72B
:10153000F89420916C0230916D0240916E025091AE
:101540006F0286B5A89B06C08F3F21F02F5F3F4FEB
:101550004F4F5F4F9FBF542F432F322F2227280F0B
:10156000311D411D511D82E0220F331F441F551FA5
:101570008A95D1F7B901CA010895EF92FF920F93AE
:101580001F93CF93DF937B018C010E94970AEB019D
:101590000FC00E94970A6C1B7D0B83E0683E7807A2
:1015A00038F00894E108F10801091109C851DC4F2D
:1015B000E114F1040105110561F7DF91CF911F914D
:1015C0000F91FF90EF900895019739F0880F991FC0
:1015D000880F991F02970197F1F70895789484B5C1
:1015E000826084BD84B5816084BD85B5826085BD1F
:1015F00085B5816085BDEEE6F0E080818160808305
:10160000E1E8F0E0108280818260808380818160E7
:101610008083E0E8F0E0808181608083E1EBF0E0AE
:10162000808184608083E0EBF0E080818160808352
:10163000EAE7F0E08081846080838081826080833B
:101640008081816080838081806880831092C10066
:101650000895833071F0843028F48130A1F0823015
:1016600021F514C08630B1F08730D1F08430E9F430
:1016700004C0809180008F7703C0809180008F7DAF
:1016800080938000089584B58F7702C084B58F7DE4
:1016900084BD08958091B0008F778093B000089545
:1016A0008091B0008F7D8093B000089590E0FC01A0
:1016B000E656FF4F2491FC01EA57FF4FE491EE23D9
:1016C000C1F0F0E0EE0FFF1FE859FF4F85919491B4
:1016D000DC01662341F49FB7F8948C912095822316
:1016E0008C939FBF08959FB7F8948C91822B8C9315
:1016F0009FBF08950F931F93DF93CF930F92CDB7A2
:10170000DEB7282F30E0F901E255FF4F8491F9014F
:10171000E656FF4F14912A573F4FF90104910023D9
:10172000D9F0882321F069830E94290B6981E02F79
:10173000F0E0EE0FFF1FEE58FF4F85919491DC0112
:101740009FB7F894662321F48C911095812302C0F1
:101750008C91812B8C939FBF0F90CF91DF911F9124
:101760000F9108950F931F93282F30E0F901E25550
:10177000FF4F8491F901E656FF4F04912A573F4FDE
:10178000F9011491112391F0882311F00E94290B83
:10179000E12FF0E0EE0FFF1FE458FF4F8591949189
:1017A000DC018C91802321E030E011F420E030E076
:1017B000C9011F910F910895CF92DF92EF92FF928E
:1017C0000F931F93CF93DF936C017B018A01C0E0DD
:1017D000D0E00FC0D7016D917D01D601ED91FC9154
:1017E0000190F081E02DC6010995C80FD91F015065
:1017F00010400115110571F7CE01DF91CF911F91B6
:101800000F91FF90EF90DF90CF900895DB010D9046
:101810000020E9F7AD0141505040461B570BDC0159
:10182000ED91FC910280F381E02D09950895EF92EE
:10183000FF920F931F93CF93DF937C01062F172FF7
:10184000C0E0D0E0F8010F5F1F4F6491662351F0B4
:10185000F701A081B181ED91FC91C7010995C80FF5
:10186000D91FF0CFCE01DF91CF911F910F91FF9043
:10187000EF900895AF92BF92CF92DF92EF92FF92D6
:101880000F931F93CF93DF937C016B01C0E0D0E0F7
:1018900000E010E010C0D701ED91FC91A080B18074
:1018A000C601BE010E945616682FC701F5010995B1
:1018B000080F191F2196F60184819581C817D90751
:1018C00050F3C801DF91CF911F910F91FF90EF90DE
:1018D000DF90CF90BF90AF9008950E94060C0895BE
:1018E000DC01ED91FC910190F081E02D09950895C6
:1018F0009C01CB01DB01ED91FC910190F081E02D89
:10190000B901099508950F931F93CF93DF93EC01CD
:101910006DE00E94700C8C01CE016AE00E94700C98
:10192000080F191FC801DF91CF911F910F910895E2
:101930000F931F93CF93DF93EC010E94170C8C0140
:10194000CE010E94830C080F191FC801DF91CF91AF
:101950001F910F9108950F931F93CF93DF93EC0185
:101960000E943A0C8C01CE010E94830C080F191FB3
:10197000C801DF91CF911F910F9108950F931F938D
:10198000CF93DF93EC010E94060C8C01CE010E94E4
:10199000830C080F191FC801DF91CF911F910F9180
:1019A00008950F931F93CF93DF93EC010E94700C67
:1019B0008C01CE010E94830C080F191FC801DF9112
:1019C000CF911F910F9108950F931F93CF93DF93A2
:1019D000EC010E94780C8C01CE010E94830C080F50
:1019E000191FC801DF91CF911F910F9108958F9218
:1019F0009F92AF92BF92CF92DF92EF92FF920F939E
:101A00001F93DF93CF93CDB7DEB7A1970FB6F894AE
:101A1000DEBF0FBECDBF6C01042FE52FCB01122F0F
:101A200019A2223008F41AE021E2E22EF12CEC0E89
:101A3000FD1E812E9924AA24BB2403C0022FE32F6C
:101A4000CA01602F7E2FA50194010E94AD19129F3B
:101A5000802D1124081B0894E108F1080A3014F4C1
:101A6000005D01C0095CF7010083211531054105C6
:101A7000510521F7C601B7010E94060CA1960FB6C9
:101A8000F894DEBF0FBECDBFCF91DF911F910F91B4
:101A9000FF90EF90DF90CF90BF90AF909F908F908E
:101AA00008952115310549F4DC01ED91FC91019077
:101AB000F081E02D642F099508950E94F70C089598
:101AC0000F931F93CF93DF93EC010E94510D8C0174
:101AD000CE010E94830C080F191FC801DF91CF911E
:101AE0001F910F9108959A01AB0160E070E00E9490
:101AF000510D08950F931F93CF93DF93EC019A013B
:101B0000AB0160E070E00E94510D8C01CE010E949B
:101B1000830C080F191FC801DF91CF911F910F91FE
:101B200008959A01462F50E060E070E00E94510D48
:101B300008950F931F93CF93DF93EC019A01462FE3
:101B400050E060E070E00E94510D8C01CE010E94D7
:101B5000830C080F191FC801DF91CF911F910F91BE
:101B60000895CF92DF92EF92FF920F931F93CF933E
:101B7000DF93EC017A018B012115310541F4E881F5
:101B8000F9810190F081E02D642F09951AC02A3067
:101B90003105A9F477FF12C06DE20E94700C6C0150
:101BA00044275527BA014E195F09600B710BCE010E
:101BB0002AE00E94F70CC80ED91E04C02AE00E9439
:101BC000F70C6C01C601DF91CF911F910F91FF902F
:101BD000EF90DF90CF9008950F931F93CF93DF93F3
:101BE000EC010E94B10D8C01CE010E94830C080F04
:101BF000191FC801DF91CF911F910F9108959A018C
:101C0000FB01AF01662757FD6095762F0E94B10D4D
:101C100008950F931F93CF93DF93EC019A01CB01AB
:101C2000AC01662757FD6095762FCE010E94B10D5D
:101C30008C01CE010E94830C080F191FC801DF918F
:101C4000CF911F910F9108956F927F929F92AF92C3
:101C5000BF92CF92DF92EF92FF920F931F93CF9399
:101C6000DF933C017A018B01C22ECB01BA0120E047
:101C700030E0A9010E94790687FF0AC0C3016DE226
:101C80000E94700CEC0117FB109517F9109502C01B
:101C9000C0E0D0E0DD2450E040E030E02FE311C0B0
:101CA000DA01F9016B2F742F8F2F922F20E030E093
:101CB00040E251E40E946B05562F472F382F292F01
:101CC000D394DC1468F3C801B701DA01F9012B2FB2
:101CD000342F4F2F5E2F0E9413045B01F82E992E94
:101CE0007B2D0E949D02162FD72EE82E092F0E94D1
:101CF0005B079B01AC016A2D7B2D8F2D992D0E94D6
:101D00004004962EA72EB82EF92EC301412F5D2D2B
:101D10006E2D702F2AE030E00E94510DC80FD91FA0
:101D2000CC20B9F1C3016FE071E00E94060CC80F2E
:101D3000D91F2FC0692D7A2D8B2D9F2D20E030E0EB
:101D400040E251E40E947104D62EB72EA82E992E9F
:101D50000E9409077B010027F7FC0095102FC301A3
:101D6000B801A7012AE030E00E94B10DC80FD91FC9
:101D7000C801B7010E94A9069B01AC016D2D7B2D06
:101D80008A2D992D0E944004962EA72EB82EF92E4A
:101D9000CA94CC2079F6CE01DF91CF911F910F919B
:101DA000FF90EF90DF90CF90BF90AF909F907F908B
:101DB0006F9008950E94240E08950F931F93CF9360
:101DC000DF93EC010E94240E8C01CE010E94830C53
:101DD000080F191FC801DF91CF911F910F9108952E
:101DE000FC0184859585FC01E05CFF4F20813181F9
:101DF0008E5B9F4FFC0180819181281B390B2F73D3
:101E00003070C9010895FC0184859585FC01E05C72
:101E1000FF4F40815181FC01EE5BFF4F20813181FA
:101E20004217530741F00190F081E02DE80FF91FB0
:101E3000208130E002C02FEF3FEFC9010895FC017F
:101E400084859585FC01E05CFF4F40815181FC0158
:101E5000EE5BFF4F208131814217530771F0A08163
:101E6000B181A80FB91F2C918081918101968F7348
:101E700090709183808330E002C02FEF3FEFC90163
:101E80000895DC011E968D919C911F97FC01E05CEA
:101E9000FF4F8E5B9F4F40815181DC012D913C9122
:101EA000119742175307B9F708951F93FC01162F96
:101EB00026853785D901A05CBF4F8D919C910196F5
:101EC00060E470E00E949A19D901AE5BBF4F4D915A
:101ED0005C91119784179507D1F3D901A05CBF4F8E
:101EE0000D90BC91A02DA20FB31F1C93A685B785A2
:101EF000A05CBF4F11969C938E93A689B7892C91B5
:101F000081E090E0058C02C0880F991F0A94E2F7E7
:101F1000282B2C9381E090E01F910895FB01E05C59
:101F2000FF4F208131812F5F3F4F2F733070DB01D6
:101F3000AE5BBF4F4D915C9111972417350739F077
:101F4000A081B181A60FB71F8C93318320830895A0
:101F500008951F920F920FB60F9211242F933F9363
:101F60004F935F936F937F938F939F93AF93BF93A1
:101F7000EF93FF938091C60065E772E00E948E0F99
:101F8000FF91EF91BF91AF919F918F917F916F9151
:101F90005F914F913F912F910F900FBE0F901F9027
:101FA00018958DEF92E00E94F00E009711F00E94BC
:101FB000A80F08951F920F920FB60F9211242F931E
:101FC0003F935F936F937F938F939F93AF93BF9351
:101FD000EF93FF932091F9023091FA028091FB0276
:101FE0009091FC022817390731F48091C1008F7D50
:101FF0008093C10016C0E091FB02F091FC02E7540F
:10200000FD4F20818091FB029091FC02019660E4DB
:1020100070E00E949A199093FC028093FB02209337
:10202000C600FF91EF91BF91AF919F918F917F91EA
:102030006F915F913F912F910F900FBE0F901F9066
:1020400018958F92AF92BF92CF92DF92EF92FF924C
:102050000F931F93DF93CF93CDB7DEB7FC011382AD
:10206000128288EE93E0A0E0B0E084839583A6839B
:10207000B7838DE292E09183808375876487578769
:102080004687318B208B138B028BF58AE48AD78AA3
:10209000C68AB18EA08E828E8E85838F8F85848F27
:1020A0008889858F8989868FCF91DF911F910F91C4
:1020B000FF90EF90DF90CF90BF90AF908F900895FA
:1020C000DF92EF92FF920F931F93CF93DF93EC0178
:1020D0007A018B01DD24D394403081EE580780E0F3
:1020E000680780E0780749F4DD24EC89FD891082D7
:1020F00060E874E88EE190E00FC0EC89FD8981E032
:1021000090E00E8C02C0880F991F0A94E2F780833A
:1021100060E079E08DE390E0A80197010E94AD199D
:10212000215030404040504056954795379527956F
:1021300080E12030380710F0DD20B1F6E889F98918
:102140003083EA89FB892083EE89FF89408181E021
:1021500090E09C010A8C02C0220F331F0A94E2F720
:10216000422B4083EE89FF8940819C010B8C02C089
:10217000220F331F0A94E2F7422B4083EE89FF8936
:1021800040819C010C8C02C0220F331F0A94E2F79D
:10219000422B4083EE89FF8920810D8C02C0880F7D
:1021A000991F0A94E2F7809582238083DF91CF9173
:1021B0001F910F91FF90EF90DF900895CF93DF93E1
:1021C000FC0186859785DC01A05CBF4F8E5B9F4F2D
:1021D0004D915C911197EC01288139814217530789
:1021E000B9F7A689B7894C9181E090E09C01028CF7
:1021F00002C0220F331F0A94E2F7209524232C9368
:10220000A689B7894C919C01038C02C0220F331F11
:102210000A94E2F7209524232C93A689B7894C9140
:102220009C01048C02C0220F331F0A94E2F7209510
:1022300024232C93A689B7892C91058C02C0880F82
:10224000991F0A94E2F7809582238C938485958563
:10225000FC01EE5BFF4F20813181805C9F4FFC01D0
:1022600031832083DF91CF91089510920003109263
:10227000FF0288EE93E0A0E0B0E08093010390932A
:102280000203A0930303B0930403EFEFF2E08DE2A7
:1022900092E09293829385E792E09587848789EB19
:1022A00092E09787868785EC90E0918B808B84EC19
:1022B00090E0938B828B80EC90E0958B848B81EC0B
:1022C00090E0978B868B86EC90E0918F808F84E0F6
:1022D000828F83E0838F87E0848F85E0858F81E024
:1022E000868F0895FC01808191810E94BA1A089519
:1022F000CF93DF93EC0188819981009711F00E94C0
:10230000BA1A198218821D821C821B821A82DF91DE
:10231000CF9108950F931F93CF93DF93EC018B011F
:102320006F5F7F4F888199810E94531B009731F026
:10233000998388831B830A8381E001C080E0DF9159
:10234000CF911F910F910895CF93DF93EC01888176
:102350009981009729F08A819B818617970778F4E5
:10236000CE010E948A11882341F08C819D810097C3
:1023700031F4E881F981108202C080E001C081E07F
:10238000DF91CF910895EF92FF920F931F93CF9318
:10239000DF93EC017B018A01BA010E94A41188231A
:1023A00021F4CE010E94781107C01D830C8388811F
:1023B0009981B7010E948C1CCE01DF91CF911F91B2
:1023C0000F91FF90EF900895CF93DF93FC0111825E
:1023D0001082138212821582148216826115710591
:1023E00059F0EB0109900020E9F7AE01415050404F
:1023F000461B570B0E94C311DF91CF910895EF92B6
:10240000FF92CF93DF93EC01FB018617970761F0F2
:10241000608171816115710529F0448155810E94A7
:10242000C31102C00E947811CE01DF91CF91FF90BD
:10243000EF900895FC01118210821382128215829E
:10244000148216820E94FF1108950F931F938C012E
:102450006115710561F0DB010D900020E9F7AD0118
:1024600041505040461B570B0E94C31102C00E94AE
:102470007811C8011F910F910895EF92FF920F9369
:102480001F93DF93CF93CDB7DEB7A1970FB6F89424
:10249000DEBF0FBECDBF7C01CB01BA01F7011182B7
:1024A0001082138212821582148216828E010F5FAF
:1024B0001F4FA80130E00E943F1DC701B8010E94D4
:1024C0002512A1960FB6F894DEBF0FBECDBFCF91F7
:1024D000DF911F910F91FF90EF900895EF92FF927F
:1024E0000F931F93DF93CF93CDB7DEB7A2970FB6AD
:1024F000F894DEBF0FBECDBF7C01CB01BA01F7015E
:1025000011821082138212821582148216828E0129
:102510000F5F1F4FA80130E00E94F61CC701B801F1
:102520000E942512A2960FB6F894DEBF0FBECDBF53
:10253000CF91DF911F910F91FF90EF900895EF924F
:10254000FF920F931F93DF93CF93CDB7DEB76197C1
:102550000FB6F894DEBF0FBECDBF7C01CB01F701F3
:1025600011821082138212821582148216828E01C9
:102570000F5F1F4FB80150E00E94641DC701B801F2
:102580000E94251261960FB6F894DEBF0FBECDBF34
:10259000CF91DF911F910F91FF90EF900895EF92EF
:1025A000FF920F931F93DF93CF93CDB7DEB7629760
:1025B0000FB6F894DEBF0FBECDBF7C01CB01F70193
:1025C00011821082138212821582148216828E0169
:1025D0000F5F1F4FB80150E00E94D51CC701B80122
:1025E0000E94251262960FB6F894DEBF0FBECDBFD3
:1025F000CF91DF911F910F91FF90EF900895EF928F
:10260000FF920F931F93DF93CF93CDB7DEB7299738
:102610000FB6F894DEBF0FBECDBF7C01862FF70149
:10262000118210821382128215821482168290E027
:102630008E010F5F1F4FB80150E00E94641DC7015B
:10264000B8010E94251229960FB6F894DEBF0FBE7E
:10265000CDBFCF91DF911F910F91FF90EF90089523
:10266000DF93CF9300D0CDB7DEB7FC01118210828B
:102670001382128215821482168269831A82BE0125
:102680006F5F7F4F0E9425120F900F90CF91DF91C7
:102690000895EF92FF920F931F93CF93DF93EC0176
:1026A0007B010C811D8161157105B9F04115510542
:1026B00091F0040F151FB8010E94A411882369F03E
:1026C000288139818C819D81820F931FB7010E94DF
:1026D0008C1C1D830C8381E001C080E0DF91CF91D1
:1026E0001F910F91FF90EF900895FB016081718120
:1026F000448155810E94491308956115710561F067
:10270000DB010D900020E9F7AD0141505040461B20
:10271000570B0E944913089580E00895DF93CF93EB
:1027200000D0CDB7DEB769831A82BE016F5F7F4FDD
:1027300041E050E00E9449130F900F90CF91DF913C
:102740000895EF92FF920F931F93DF93CF9300D0E2
:1027500000D0CDB7DEB77C01862F90E08E010F5FF1
:102760001F4FB8014AE050E00E94D51CF8010190CB
:102770000020E9F7AF0141505040401B510BC70109
:10278000B8010E9449130F900F900F900F90CF91B6
:10279000DF911F910F91FF90EF900895EF92FF92BC
:1027A0000F931F93DF93CF93CDB7DEB727970FB665
:1027B000F894DEBF0FBECDBF7C01CB018E010F5F51
:1027C0001F4FB8014AE050E00E94D51CF80101906B
:1027D0000020E9F7AF0141505040401B510BC701A9
:1027E000B8010E94491327960FB6F894DEBF0FBEBA
:1027F000CDBFCF91DF911F910F91FF90EF90089582
:10280000EF92FF920F931F93DF93CF9300D000D0EE
:1028100000D0CDB7DEB77C01CB018E010F5F1F4F1B
:10282000B8014AE050E00E94641DF80101900020C8
:10283000E9F7AF0141505040401B510BC701B801AF
:102840000E94491326960FB6F894DEBF0FBECDBF87
:10285000CF91DF911F910F91FF90EF900895EF922C
:10286000FF920F931F93DF93CF93CDB7DEB72C97D3
:102870000FB6F894DEBF0FBECDBF7C01CB01BA010D
:102880008E010F5F1F4FA8012AE030E00E94F61C66
:10289000F80101900020E9F7AF0141505040401B82
:1028A000510BC701B8010E9449132C960FB6F8943A
:1028B000DEBF0FBECDBFCF91DF911F910F91FF9073
:1028C000EF900895EF92FF920F931F93DF93CF93B2
:1028D000CDB7DEB72B970FB6F894DEBF0FBECDBFD6
:1028E0007C01CB01BA018E010F5F1F4FA8012AE0C6
:1028F00030E00E943F1DF80101900020E9F7AF0190
:1029000041505040401B510BC701B8010E94491370
:102910002B960FB6F894DEBF0FBECDBFCF91DF91DF
:102920001F910F91FF90EF9008950F931F938C01CB
:10293000FB0160817181448155810E944913882384
:1029400019F4C8010E947811C8011F910F910895D0
:102950000F931F938C016115710569F0DB010D90D8
:102960000020E9F7AD0141505040461B570B0E9433
:102970004913882319F4C8010E947811C8011F91D6
:102980000F9108950F931F938C010E948E1388233B
:1029900019F4C8010E947811C8011F910F91089580
:1029A0000F931F938C010E94A113882319F4C8016F
:1029B0000E947811C8011F910F9108950F931F93E2
:1029C0008C010E94CE13882319F4C8010E9478114B
:1029D000C8011F910F9108950F931F938C010E94BE
:1029E0000014882319F4C8010E947811C8011F91AE
:1029F0000F9108950F931F938C010E942F14882329
:102A000019F4C8010E947811C8011F910F9108950F
:102A10000F931F938C010E946214882319F4C8013C
:102A20000E947811C8011F910F910895CF93DF93F1
:102A3000FC01DB0180819181009731F06D917C91E7
:102A4000119761157105E9F4CD91DC9111972097EB
:102A500069F014962D913C9115972115310531F0AF
:102A6000288130E0309521953F4F12C0009771F0DA
:102A7000248135812115310549F0FC01208130E0A8
:102A800007C00E94831C282F392F02C020E030E0AD
:102A9000C901DF91CF910895FC0144815581FB016B
:102AA000248135814217530729F40E94161521E02D
:102AB000009709F020E0822F0895FC018481958120
:102AC000009741F46115710519F081E0FB0109C01F
:102AD00081E008950190F081E02D6115710531F4D8
:102AE00081E09081992359F080E00895CF010E9400
:102AF000831C9C0181E02115310509F080E00895D7
:102B00000E941615892F881F8827881F08950E9404
:102B1000161521E0181619060CF020E0822F0895F2
:102B20000E94161521E0181619060CF420E0822FD9
:102B300008950E941615892F8095881F8827881F61
:102B40000895EF92FF920F931F93CF93DF93FC01B1
:102B5000DB018617970729F18481958114962D91C1
:102B60003C91159782179307F1F40097D1F00081FB
:102B70001181CD91DC9111970FC0992787FD909518
:102B80000E944D1C7C018991992787FD90950E9498
:102B90004D1CE816F90639F4F80181918F0188235C
:102BA00061F781E001C080E0DF91CF911F910F912B
:102BB000FF90EF900895FC01DB01CA0114964D913E
:102BC0005C91159724813581241B350B2817390713
:102BD000A0F0208131812115310579F06D917C9132
:102BE00011976115710559F0820F931F0E94931C74
:102BF0009C0181E02115310519F080E0089580E005
:102C00000895FC0144815581FB01248135814217DF
:102C1000530728F040E050E00E94DB15089580E063
:102C20000895FC01DB018481958114964D915C919E
:102C3000159784179507B0F0208131812115310552
:102C400089F06D917C9111976115710569F0841B74
:102C5000950B820F931F0E94831C9C0181E021151C
:102C6000310519F080E0089580E00895FC01848129
:102C700095816817790730F40190F081E02DE60F17
:102C8000F71F40830895FC018481958168177907B7
:102C900020F480819181009729F410921C036CE14B
:102CA00073E002C0680F791FCB010895FC01848195
:102CB00095816817790748F480819181009739F0F0
:102CC000680F791FFB018081089580E0089580E0FE
:102CD00008950E94561608950F931F93CF93DF9384
:102CE000FC018B0141155105F1F061157105D9F019
:102CF000C481D5812C173D0718F0FB01108213C049
:102D000041505040C21BD30B4C175D0708F4EA0139
:102D100060817181620F731FC801AE010E94A11C06
:102D2000C00FD11F1882DF91CF911F910F9108958D
:102D3000CF93DF93FC01CA012481358142175307E9
:102D400078F4C081D181772767FD70958C0F9D1F26
:102D50000E94781C009721F09C012C1B3D0B02C0A7
:102D60002FEF3FEFC901DF91CF91089540E050E090
:102D70000E9498160895CF93DF93FC01CA01248125
:102D800035814217530778F4C081D181FB016081FE
:102D900071818C0F9D1F0E94BB1C009721F09C012C
:102DA0002C1B3D0B02C02FEF3FEFC901DF91CF91EC
:102DB000089540E050E00E94BB160895DF92EF9224
:102DC000FF920F931F93CF93DF93EC018C819D8132
:102DD00048175907F8F47A010894E11CF11CE881BE
:102DE000F981EE0DFF1DD0801082088119817727AF
:102DF00067FD7095C8010E94B01C0E0D1F1DF801E3
:102E0000D082009739F028813981AC01421B530BE5
:102E10009A0102C02FEF3FEFC901DF91CF911F91BF
:102E20000F91FF90EF90DF900895FC014481558150
:102E3000415050400E94DE160895AF92BF92CF924B
:102E4000DF92EF92FF920F931F93CF93DF93FC01DA
:102E50006B018A01DB0114962D913C911597211588
:102E6000310551F184819581009731F182179307E3
:102E700018F14817590718F08C0101501040E080F4
:102E8000F180C701CFEFDFEF5701A00EB11E10C0D8
:102E9000F601608171810E94BB1C009779F09C0152
:102EA0002E193F090217130708F49E010196E90144
:102EB000A816B90668F702C0CFEFDFEFCE01DF91A9
:102EC000CF911F910F91FF90EF90DF90CF90BF9027
:102ED000AF900895FC0144815581FB012481358127
:102EE000421B530B0E941D170895AF92BF92CF92C1
:102EF000DF92EF92FF920F931F93CF93DF93F82E01
:102F0000E92E6B018A01E9012417350748F4342FB3
:102F1000212F8E01C901A92EE5015E01B22EE50126
:102F20008F2D9E2D61E171E00E94E411D60114966F
:102F30008D919C91159780179107D8F08C179D075C
:102F400008F4EC01D601ED91FC911197EC0FFD1FF7
:102F5000B08010826D917C91600F711F8F2D9E2D1E
:102F60000E942512D601ED91FC911197EC0FFD1FE7
:102F7000B0828F2D9E2DDF91CF911F910F91FF90E9
:102F8000EF90DF90CF90BF90AF900895CF93DF93F5
:102F9000EC01FB01248135810E947517CE01DF9180
:102FA000CF910895DC01ED91FC911197309729F4B0
:102FB0000895861709F44083319680818823C9F7E4
:102FC00008952F923F924F925F926F927F928F92CD
:102FD0009F92AF92BF92CF92DF92EF92FF920F93A8
:102FE0001F93CF93DF937C012B016A01DC011496C0
:102FF0006D907C9015976114710409F4D9C0FB01A0
:10300000848095808114910409F4D2C0DA01149669
:10301000AD90BC901597A818B908FC0100811181EA
:10302000A114B104F1F413C0D6016C9111967C91F6
:10303000119714964D915C911597CE010E945D1CDD
:10304000D60114960D911C9115970C0F1D1FF201BE
:1030500060817181C8010E94BB1CEC01009721F7BF
:10306000A7C0B7FC02C0E30142C048012DC0E30184
:10307000C01BD10BC401B801AE010E945D1CC80D7C
:10308000D91DD6016C9111967C91119714964D9192
:103090005C911597CE010E945D1CD60114968D900F
:1030A0009C9015978C0E9D1EF20104811581060DD2
:1030B000171DD70114968D919C9115978A0D9B1D14
:1030C00015969C938E931497F20160817181C801CB
:1030D0000E94BB1C3C01009751F6C401B8010E943C
:1030E0008C1C66C08C01080D191DCA0DDB1DD20198
:1030F0006D917C91C8010E94BB1C009799F7C61581
:10310000D70509F455C0F701828193818C179D077B
:1031100008F045C0C701BE010E948A11882309F446
:1031200047C03DC0C701B201A9010E941D17EC01B3
:1031300097FD3EC0D7016D917C911197F20184817A
:1031400095818C0F9D1F680F791F14964D915C918E
:103150001597481B590BCB018A0D9B1D0E94661CBD
:10316000D70114968D919C9115978A0D9B1D1596EC
:103170009C938E931497ED91FC911197E80FF91F92
:1031800010822D913C912C0F3D1FF60160817181C1
:1031900044815581C9010E945D1C9E0105C0D70173
:1031A00014962D913C9115972150304037FFBACF9E
:1031B000DF91CF911F910F91FF90EF90DF90CF9013
:1031C000BF90AF909F908F907F906F905F904F9047
:1031D0003F902F900895CF93DF93FC01C081D18160
:1031E000209739F409C0992787FD90950E944D1CBE
:1031F000899388818823B9F7DF91CF910895CF9380
:10320000DF93FC01C081D181209739F409C099274F
:1032100087FD90950E94551C899388818823B9F772
:10322000DF91CF910895AF92BF92CF92DF92EF924C
:10323000FF920F931F93CF93DF936C01DC01ED900E
:10324000FC901197E114F10409F443C01496AD9079
:10325000BC901597A114B104E1F18701E8018881C0
:103260000F5F1F4F992787FD90950E94451C00977F
:10327000A9F78501015010400E0D1F1DF801808136
:10328000992787FD90950E94451C009731F00C17F7
:103290001D0718F001501040F1CF0F5F1F4F0C1B9E
:1032A0001D0BD60115961C930E931497EC16FD0674
:1032B00028F4C701BE01A8010E945D1CD601ED9152
:1032C000FC91119714968D919C911597E80FF91F19
:1032D0001082DF91CF911F910F91FF90EF90DF90BF
:1032E000CF90BF90AF900895FC01808191810097AD
:1032F00029F00E941E1C9B01AC0103C020E030E0BD
:10330000A901B901CA0108950E94201A08950E94D6
:10331000BA1A089521E030E0FC018081882311F081
:1033200020E030E0C901089521E0FC0120830895E8
:103330000895089597FB092E07260AD077FD04D03B
:103340002ED006D000201AF4709561957F4F089515
:10335000F6F7909581959F4F0895A1E21A2EAA1B2A
:10336000BB1BFD010DC0AA1FBB1FEE1FFF1FA21735
:10337000B307E407F50720F0A21BB30BE40BF50B32
:10338000661F771F881F991F1A9469F760957095BB
:10339000809590959B01AC01BD01CF010895AA1BBA
:1033A000BB1B51E107C0AA1FBB1FA617B70710F030
:1033B000A61BB70B881F991F5A95A9F78095909562
:1033C000BC01CD0108952F923F924F925F926F9270
:1033D0007F928F929F92AF92BF92CF92DF92EF92A5
:1033E000FF920F931F93CF93DF93CDB7DEB7CA1B26
:1033F000DB0B0FB6F894DEBF0FBECDBF09942A8851
:10340000398848885F846E847D848C849B84AA84F8
:10341000B984C884DF80EE80FD800C811B81AA8185
:10342000B981CE0FD11D0FB6F894DEBF0FBECDBF50
:10343000ED010895EE0FFF1F0590F491E02D099422
:10344000CF93DF938230910510F482E090E0E09119
:103450001F03F091200340E050E020E030E026C060
:103460006081718168177907E0F06817790781F446
:10347000828193812115310531F0D90113969C93F6
:103480008E9312972BC09093200380931F0326C026
:103490004115510519F06417750718F4AB01E901DE
:1034A000DF019F0172816381E72FF62F3097C1F60C
:1034B0004115510501F1481B590B4430510580F469
:1034C00012968D919C911397209719F09B838A8374
:1034D00004C09093200380931F03FD01329646C0E1
:1034E000FD01E40FF51F81939193425050401196D6
:1034F0005C934E933BC020911D0330911E03211518
:10350000310541F420911C0230911D0230931E03BD
:1035100020931D0320911E0230911F0221153105B9
:1035200041F42DB73EB740911A0250911B02241B63
:10353000350BE0911D03F0911E03E217F307A0F491
:103540002E1B3F0B2817390778F0AC014E5F5F4FF9
:103550002417350748F04E0F5F1F50931E0340930A
:103560001D038193919302C0E0E0F0E0CF01DF9171
:10357000CF910895CF93DF93009709F491C0FC0198
:1035800032971382128260911F037091200361159C
:10359000710581F420813181280F391F80911D032D
:1035A00090911E038217930799F5F0931E03E09301
:1035B0001D0376C0DB0180E090E002C0CD01D9019F
:1035C000AE17BF0748F412962D913C911397211521
:1035D0003105A1F7CD0121C0B383A283EF01499149
:1035E00059919E01240F351FA217B30779F42D912D
:1035F0003C911197240F351F2E5F3F4F318320835D
:1036000012962D913C91139733832283009729F4CE
:10361000F0932003E0931F0343C0DC011396FC9357
:10362000EE9312974D915D91A40FB51FEA17FB071A
:1036300069F420813181240F351F2E5F3F4FEC014B
:1036400039832883228133813B832A83E0E0F0E0C1
:1036500002C0FB01BC01DB0112968D919C91139776
:103660000097B9F79B012E5F3F4F8D919C91119769
:10367000820F931F40911D0350911E034817590755
:1036800079F4309729F41092200310921F0302C09E
:10369000138212822250304030931E0320931D0368
:1036A000DF91CF910895A0E0B0E0E9E5FBE10C9453
:1036B000E9198C01CB010115110529F40E94201A8A
:1036C000082F192FB5C0D80112979801260F371F60
:1036D0002A173B0708F4AAC0ED90FC901197E61654
:1036E000F706D0F045E0E416F10408F4A1C0A70104
:1036F000445050404617570708F49AC0A70142505B
:103700005040461B570BF901419351936D937C93A5
:10371000CF010E94BA1A8CC05B01AE18BF084801E5
:103720008E0C9F1CE0911F03F0912003CC24DD241C
:10373000C0E0D0E041C0E815F90599F560817181DC
:10374000AB014E5F5F4F4A155B0558F1AB014A195B
:103750005B09CC24DD246894C1F8C40ED51E828098
:10376000A380E5E0CE16D10448F0F9018282A3825D
:103770005183408311969C938E9309C0C701029692
:10378000860F971F11969C938E93E82DFA2D209704
:1037900019F0FB83EA834CC0F0932003E0931F03EE
:1037A00047C040815181C416D50608F46A01EF0173
:1037B00052814381E52FF42F309709F0BCCF40911F
:1037C0001D0350911E0348155905E9F4C816D90682
:1037D000D0F440911E0250911F024115510541F451
:1037E0004DB75EB760911A0270911B02461B570BD2
:1037F00024173507D8F430931E0320931D03119628
:103800009C938E9315C00E94201AC82EE6016E016B
:10381000D92EE601209751F08C2DB801A7010E9406
:103820005D1CC8010E94BA1A860102C000E010E0C7
:10383000C801CDB7DEB7ECE00C94051A1F93FC016C
:1038400099278827BC01E89411911032E9F31930C7
:1038500010F01E30C8F31B3251F01D3249F4689449
:1038600006C00E942A1D610F711D811D911D1191BD
:1038700010531A30B0F33EF4909580957095619591
:103880007F4F8F4F9F4F1F910895911133C1803209
:1038900019F089508550D0F70895911108958154F9
:1038A0008A5108F4805E855A0895911108958156D1
:1038B0008A5108F4805285580895FB01DC0102C04A
:1038C00001900D9241505040D8F70895681779073C
:1038D00068F4FB01DC01E40FF51FA40FB51F02C063
:1038E00002900E9241505040D8F708950C945D1C00
:1038F000FC018191861721F08823D9F79927089533
:103900003197CF010895FB01DC018D910190801961
:103910000110D9F3990B0895FB01DC0101900D9280
:103920000020E1F70895FB01DC014150504030F0E8
:103930008D910190801919F40020B9F7881B990B1B
:103940000895FB01DC014150504048F001900D9278
:103950000020C9F701C01D9241505040E0F7089582
:10396000FC0181E090E00190061609F4CF010020EF
:10397000D1F701970895FB0151915523A9F0BF019B
:10398000DC014D9145174111E1F759F4CD0101904A
:10399000002049F04D9140154111C9F3FB0141113F
:1039A000EFCF81E090E001970895FB019F01E8943B
:1039B0004230C4F04532B4F44A3029F497FB1EF487
:1039C000909581959F4F642F77270E94CF19805D36
:1039D0008A330CF0895D8193CB010097A1F716F42F
:1039E0005DE251931082C9010C947D1DFA01CF93C1
:1039F000FF93EF93223044F1253234F5C22FE8943F
:103A0000CA3049F497FB3EF4909580957095619586
:103A10007F4F8F4F9F4F2C2F332744275527FF93DE
:103A2000EF930E94AD19EF91FF91605D6A330CF046
:103A3000695D6193B901CA01605070408040904057
:103A400051F716F4CDE2C19310828F919F91CF91DF
:103A50000C947D1D592F482F372F262F660F771F67
:103A6000881F991F660F771F881F991F620F731F8A
:103A7000841F951F660F771F881F991F0895FA01ED
:103A8000CF93FF93EF932230CCF02532BCF4C22FBA
:103A90002C2F332744275527FF93EF930E94AD190E
:103AA000EF91FF91605D6A330CF0695D6193B9013C
:103AB000CA01605070408040904051F710828F9151
:103AC0009F91CF910C947D1DFB019F01423074F0BA
:103AD000453264F4642F77270E94CF19805D8A33C2
:103AE0000CF0895D8193CB010097A1F71082C90189
:103AF0000C947D1D992788270895DC01FC01672F10
:103B000071917723E1F7329704C07C916D937083B4
:0E3B10006291AE17BF07C8F30895F894FFCF77
:103B1E00506F743A2000204D6F746F723A20002E51
:103B2E00000000000000000000000001020203037C
:103B3E000303040404040404040405050505050533
:103B4E000505050505050505050506060606060611
:103B5E0006060606060606060606060606060606F7
:103B6E0006060606060606060606070707070707E1
:103B7E0007070707070707070707070707070707C7
:103B8E0007070707070707070707070707070707B7
:103B9E0007070707070707070707070707070707A7
:103BAE000707070707070707070708080808080891
:103BBE000808080808080808080808080808080877
:103BCE000808080808080808080808080808080867
:103BDE000808080808080808080808080808080857
:103BEE000808080808080808080808080808080847
:103BFE000808080808080808080808080808080837
:103C0E000808080808080808080808080808080826
:103C1E000808080808080808080808080808080816
:103C2E0008080808080808080808200021030000F2
:103C3E0001000000009919DC0B00000000550FDC9C
:103C4E000BF00E1F0F030F410F000000009919DC3F
:0A3C5E000B99199919991999190089
:00000001FF
