:100000000C9462000C948A000C948A000C948A0070
:100010000C948A000C948A000C948A000C941B0A9D
:100020000C948A000C948A000C948A000C941F0E85
:100030000C948A000C948A000C948A000C948A0018
:100040000C9459170C948A000C94E9240C941A25EA
:100050000C948A000C948A000C948A000C948A00F8
:100060000C948A000C948A000000000024002700F1
:100070002A0000000000250028002B0000000000DE
:1000800023002600290004040404040404040202DA
:100090000202020203030303030301020408102007
:1000A0004080010204081020010204081020000012
:1000B0000007000201000003040600000000000029
:1000C0000000752611241FBECFEFD8E0DEBFCDBFE4
:1000D00013E0A0E0B1E0E6E4F6E502C005900D9281
:1000E000A231B107D9F713E0A2E1B3E001C01D923C
:1000F000AF3EB107E1F710E0C4ECD0E004C02297B6
:10010000FE010E943427C23CD107C9F70E941A0F92
:100110000C94212B0C940000DC0112962C91129768
:10012000213079F0213028F0223099F0243001F587
:1001300018C0DC01ED91FC910280F381E02D09955E
:100140000895DC01ED91FC9111970480F581E02D7B
:1001500006C0DC01ED91FC910680F781E02D099548
:100160000895DC01ED91FC910084F185E02D099565
:100170000895CF93DF93EC016F85788989899A89F7
:1001800020E030E0A9010E94311318161CF4EBA105
:10019000FCA102C0EDA1FEA10995DF91CF910895C8
:1001A000CF93DF93EC01613071F0613028F0623061
:1001B000C9F0633071F51DC08B8161E00E94921817
:1001C0008C8160E006C08B8160E00E9492188C8177
:1001D00061E00E9492188D8161E00E9492188E81E8
:1001E00060E015C08B8160E00E9492188C8161E014
:1001F00006C08B8161E00E9492188C8160E00E94B1
:1002000092188D8160E00E9492188E8161E00E94B8
:100210009218DF91CF910895CF93DF93EC01613075
:1002200051F0613028F0623069F06330B1F40DC0F4
:100230008B8160E002C08B8161E00E9492188C810A
:1002400061E009C08B8161E002C08B8160E00E94A7
:1002500092188C8160E00E949218DF91CF910895EE
:100260001F93CF93DF93EC0111E06F857889898923
:100270009A8920E030E0A9010E94311318160CF091
:1002800010E08C81612F0E9492188B8161E00E94A6
:10029000921881E090E00E94FC178B8160E00E9440
:1002A0009218DF91CF911F910895AF92BF92CF9294
:1002B000DF92EF92FF920F931F93CF93DF93EC01A6
:1002C0006B857C858D859E852F81388549855A85EE
:1002D000621B730B840B950B09F4D9C01616170615
:1002E000180619068CF40E94C1139B01AC010E94F0
:1002F000FB102F89388D498D5A8D0E9459110E940B
:100300003C277B018C011BC0909580957095619571
:100310007F4F8F4F9F4F0E94C1139B01AC010E94E2
:10032000FB102F89388D498D5A8D0E9459110E94DA
:100330003C277B018C0117FB109517F91095AF84B2
:10034000B888C988DA88C801B701A60195010E945A
:10035000311318160CF045C0C601B50120E030E09D
:10036000A9010E940113882359F42F89388D498DE2
:100370005A8DCA01B9010E94FB100E943C271DC082
:100380006F89788D898D9A8DA60195010E945312EF
:10039000E62EF72E082F192F20E030E0A9010E9449
:1003A0003113181624F017FB109517F91095C60194
:1003B000B501A80197010E94FB10C62EB72EA82EEA
:1003C000D92EEB88FC880D891E89A80197010E940F
:1003D000311318160CF465C0EC2CFB2C0A2D1D2DC6
:1003E00060C0C801B701A60195010E94911387FF63
:1003F00058C0C601B50120E030E0A9010E940113F8
:10040000882389F42F89388D498D5A8DCA01B90105
:100410000E94FB100E943C275B016C01D7FAD0942C
:10042000D7F8D09421C06F89788D898D9A8DA601D7
:1004300095010E945312E62EF72E082F192F20E067
:1004400030E0A9010E943113181624F017FB109513
:1004500017F91095C601B501A80197010E9428114E
:10046000A62EB72EC82ED92EEB88FC880D891E89A2
:1004700017FB109517F91095C601B501A801970152
:100480000E94911387FD0DC0860175010AC00F2ED1
:10049000F0E0EF2EF0E0FF2EF0E00F2FF0E01F2F46
:1004A000F02D6E2D7F2D802F912FDF91CF911F91F9
:1004B0000F91FF90EF90DF90CF90BF90AF90089595
:1004C000AF92BF92CF92DF92EF92FF920F931F9362
:1004D000CF93DF93EC010E94A1175B016C018B8D20
:1004E0009C8DAD8DBE8D2F8D38A149A15AA1820F53
:1004F000931FA41FB51F8A159B05AC05BD05C0F54C
:10050000EF84F88809891A89C801B70120E030E032
:10051000A9010E943113181644F48F819885A9858A
:10052000BA850196A11DB11D10C0C801B70120E018
:1005300030E0A9010E94911387FF0BC08F8198853D
:10054000A985BA850197A109B1098F839887A987E1
:10055000BA87E881F9816F8163700190F081E02DA5
:10056000CE010995AF8EB8A2C9A2DAA281E001C07E
:1005700080E0DF91CF911F910F91FF90EF90DF907E
:10058000CF90BF90AF900895FC01238534854585B9
:10059000568587819085A185B285281B390B4A0B2A
:1005A0005B0BB901CA010895FC01638574858585DB
:1005B00096850895FC0167817085818592850895EF
:1005C000FC0147835087618772870895FC0184E0AE
:1005D00091E09183808312821782108611861286A1
:1005E000138614861586168680E090E0DC018787E6
:1005F000908BA18BB28B80E090E0A0E8BFE3838B6F
:10060000948BA58BB68B878B908FA18FB28F138E17
:10061000148E158E168E178E10A211A212A213829E
:1006200014821582168274A363A356A345A308956A
:10063000AF92BF92CF92DF92EF92FF920F931F93F0
:10064000CF93DF93EC019A01AB012F87388B498B55
:100650005A8B60E070E08AE794E40E9453127B01B9
:100660008C015B016C0120E030E0A9010E94311394
:1006700018161CF4B701C80103C0C601B501905893
:100680000E94850F6B8F7C8F8D8F9E8FDF91CF9116
:100690001F910F91FF90EF90DF90CF90BF90AF90A0
:1006A0000895CF93DF93EC01E881F9810284F3850B
:1006B000E02D0995AB01BC01CE010E941803DF912A
:1006C000CF910895FC01478B508F618F728F0E94EC
:1006D00051030895FC01438B548B658B768B0E94EC
:1006E00051030895CF93DF93EC012B853C854D8515
:1006F0005E858F819885A985BA85281739074A07AD
:100700005B0749F0CE010E946002882331F0CE01E0
:100710000E94510302C080E001C081E0DF91CF91CF
:100720000895FC0143875487658776870E945103AB
:1007300008950F931F93FC01078110852185328551
:10074000400F511F621F731F438754876587768749
:100750000E9451031F910F910895FC015785408914
:1007600031892289652F742F832F922F0895CF937B
:10077000DF93EC018A81882399F08B8160E00E94ED
:1007800092188C8160E00E9492188A81843041F432
:100790008D8160E00E9492188E8160E00E94921824
:1007A000DF91CF910895CF93DF93EC018A81882365
:1007B00099F08B8161E00E946E188C8161E00E944B
:1007C0006E188A81843041F48D8161E00E946E1838
:1007D0008E8161E00E946E18DF91CF910895EF92B3
:1007E0000F93FC0184E091E0918380836283178200
:1007F000108611861286138614861586168680E06A
:1008000090E0DC018787908BA18BB28B80E090E039
:10081000A0E8BFE3838B948BA58BB68B878B908FDF
:10082000A18FB28F138E148E158E168E178E10A276
:1008300011A212A2438324830583E682CF010E9482
:10084000D3030F91EF900895CF93DF93EC01CE0186
:100850000E9472038823D9F7DF91CF910895FC019C
:100860006385748585859685278130854185528588
:10087000621773078407950721F0CF010E94600279
:10088000089580E00895CF93DF93EC014B875C8758
:100890006D877E870E945103CE010E942404DF9160
:1008A000CF910895EF92FF920F931F93DF93CF9311
:1008B0000F92CDB7DEB77C01162F042FFC016083A9
:1008C0007183862F61E059830E946E18812F61E049
:1008D0000E949218F701028359815383802F61E0AF
:1008E0000E946E18802F61E00E94921881E0F7014B
:1008F00084830F90CF91DF911F910F91FF90EF9024
:100900000895CF93DF93EC0188810E94600B88816A
:1009100061E00E9492188A8161E00E9492181C8214
:10092000DF91CF9108950F931F93CF93DF93EC0145
:100930008B018C81882399F077FD07C08A8160E064
:100940000E9492188881602F07C08A8161E00E940E
:100950009218602F6150888140E00E94EB0ADF917D
:10096000CF911F910F91089580E00E94A20A0895EF
:100970006F927F928F92AF92CF92EF92FF920F93EE
:100980001F93DF93CF9300D00F92CDB7DEB73C011A
:1009900085E190E02B834A8369830E940621F82E2B
:1009A000192F69814A812B810E948D07F301F08202
:1009B00011838F2D912F6A2D482D20E00E94D7069C
:1009C000F301808191810E94CF060F900F900F90CC
:1009D000CF91DF911F910F91FF90EF90CF90AF904B
:1009E0008F907F906F9008950F931F93CF93DF9315
:1009F000EC018B01888199810E94CF0688819981C1
:100A000060E040E00E94990688819981B8010E94C7
:100A10007A21DF91CF911F910F910895EF92FF926C
:100A20000F931F93CF93DF93EC017B018A018881A1
:100A300099810E94CF068881998160E040E00E9400
:100A400099068881998160E171E00E94AD218881D9
:100A50009981B7010E947A218881998160E041E003
:100A60000E9499068881998166E171E00E94AD211A
:100A700088819981B8014AE050E00E943F23DF91CC
:100A8000CF911F910F91FF90EF900895CF93DF9337
:100A9000EC018E8160E00E94921881E090E00E945B
:100AA000FC178E8161E00E94921881E090E00E9424
:100AB000FC178E8160E00E94921884E690E00E940C
:100AC000FC17DF91CF910895AF92BF92CF92DF9242
:100AD000EF92FF920F931F93CF93DF937C018C01D2
:100AE000095F1F4FC0E0D0E0A62EBB246801F801CB
:100AF00081918F0161E00E946E18B5010C2E02C039
:100B0000759567950A94E2F76170F60180810E94FD
:100B100092182196C430D10549F7C7010E944605B5
:100B2000DF91CF911F910F91FF90EF90DF90CF90C9
:100B3000BF90AF900895AF92BF92CF92DF92EF92A5
:100B4000FF920F931F93CF93DF937C018C01095F7A
:100B50001F4FC0E0D0E0A62EBB246801F8018191B0
:100B60008F0161E00E946E18B5010C2E02C07595D0
:100B700067950A94E2F76170F60180810E949218ED
:100B80002196C830D10549F7C7010E944605DF917B
:100B9000CF911F910F91FF90EF90DF90CF90BF907A
:100BA000AF9008951F93CF93DF93EC01162F8C81A4
:100BB000642F0E9492188D818F3F19F060E00E948F
:100BC00092188F8584FF05C0CE01612F0E949B057E
:100BD0000FC0212F30E084E0359527958A95E1F705
:100BE000CE01622F0E946405CE01612F0E94640530
:100BF000DF91CF911F91089541E00E94D20581E0DD
:100C000090E0089540E00E94D2050895CF92DF92CF
:100C1000EF92FF920F931F93DF93CF9300D0CDB746
:100C2000DEB76C016770660F660F660F60644983FC
:100C30005A830E94020649815A81E42EF52E00E073
:100C400010E0D7016D917D01D601ED91FC910190ED
:100C5000F081E02DC60109950F5F1F4F0830110587
:100C600081F70F900F90CF91DF911F910F91FF901F
:100C7000EF90DF90CF900895FC0161896E7F618BCA
:100C800064600E9402060895FC016189262F21609C
:100C9000218B65600E9402060895FC0161896D7FC9
:100CA000618B64600E9402060895FC016189262F11
:100CB0002260218B66600E94020608956CE10E940A
:100CC0000206089568E10E9402060895FC01608909
:100CD000262F2160208B69600E9402060895FC0186
:100CE00060896E7F608B68600E9402060895FC0137
:100CF0006089262F2260208B6A600E940206089578
:100D0000FC0160896D7F608B68600E940206089517
:100D1000FC016089262F2460208B6C600E940206F3
:100D20000895FC0160896B7F608B68600E940206F9
:100D30000895DF93CF93CDB7DEB728970FB6F89419
:100D4000DEBF0FBECDBFFE013196A6E2B1E028E0C6
:100D50000D9001922150E1F7FC012389421710F018
:100D6000422F4150E42FF0E0EE0FFF1FEC0FFD1F6C
:100D70002181260F2068622F0E94020628960FB656
:100D8000F894DEBF0FBECDBFCF91DF91089562E032
:100D90000E94020680ED97E00E94FC17089561E032
:100DA0000E94020680ED97E00E94FC170895CF9301
:100DB000DF93EC01423018F08F8588608F874B8B72
:100DC0001C8A222329F0413019F48F8584608F8793
:100DD00080E593EC0E94FC178C8160E00E949218E1
:100DE0008E8160E00E9492188D818F3F19F060E043
:100DF0000E9492186F8564FD1DC0CE0163E00E94C1
:100E0000640584E991E10E94FC17CE0163E00E9431
:100E1000640584E991E10E94FC17CE0163E00E9421
:100E2000640586E990E00E94FC17CE0162E00E9412
:100E3000640516C06062CE010E94020684E991E159
:100E40000E94FC176F856062CE010E94020686E94F
:100E500090E00E94FC176F856062CE010E9402063E
:100E60006F856062CE010E94020684E0888BCE010D
:100E70000E948806CE010E94CF0682E0898BCE01B7
:100E800066E00E940206DF91CF9108956F927F92F3
:100E90008F92AF92CF92EF920F931F93DF93CF93E6
:100EA000CDB7DEB73C01162F842FF3014483258391
:100EB0000683E782C086A18682869D8593879E856C
:100EC00094879F8595879889968761E00E946E1820
:100ED000F30185818F3F19F061E00E946E18F301E4
:100EE000868161E00E946E18112319F0F3011786C4
:100EF00003C080E1F3018787C30160E141E020E0A6
:100F00000E94D706CF91DF911F910F91EF90CF9064
:100F1000AF908F907F906F9008958F92AF92CF9205
:100F2000EF920F93CF93DF93A62F742F522F302F72
:100F3000AE2C8C2CEC011B821A82E2E2F1E0F983E8
:100F4000E88300D000D0EDB7FEB73196CDB7DEB75D
:100F5000198211821282138261E04A2F2FEF072F2C
:100F6000E52EC32E0E9446070F900F900F900F9012
:100F7000DF91CF910F91EF90CF90AF908F90089528
:100F80008F92AF92CF92EF920F931F93CF93DF93F5
:100F9000162FF42FE22F702F5E2D3C2D8A2CDC01B2
:100FA00013961C921E921297C2E2D1E0CD93DC936D
:100FB00000D000D0CDB7DEB72196ADB7BEB7119641
:100FC0001C9219821A821B8261E0412F2F2F0E2F53
:100FD000E72EC52EA32E0E9446070F900F900F906C
:100FE0000F90DF91CF911F910F91EF90CF90AF9025
:100FF0008F9008958F92AF92CF92EF92FF920F93BE
:101000001F93DF93CF93CDB7DEB7F62EF42FE22FE9
:10101000702F5E2D3C2DDC0113961C921E921297B0
:1010200002E211E00D931C9300D000D00DB71EB763
:101030000F5F1F4FADB7BEB71196AC92D801119696
:101040008C9211972C8512962C9312972D851396BE
:101050002C9360E04F2D2FEF0F2FEE2EC72EA52ED5
:10106000832E0E9446070F900F900F900F90CF9104
:10107000DF911F910F91FF90EF90CF90AF908F90E5
:1010800008958F92AF92CF92DF92EF92FF920F93DB
:101090001F93DF93CF93CDB7DEB7A62FF42ED22EBA
:1010A000702F5E2D3C2DBA2DFC011382128202E2BC
:1010B00011E01183008300D000D00DB71EB70F5F81
:1010C0001F4FEDB7FEB781822D85F80121832E8554
:1010D00022832F85238360E04A2F2F2D0D2DE72EAD
:1010E000C52EA32E8B2E0E9446070F900F900F90B7
:1010F0000F90CF91DF911F910F91FF90EF90DF90B4
:10110000CF90AF908F9008952AEF30E0FC01318F9F
:10111000208F08956F927F928F929F92AF92BF928D
:10112000CF92DF92EF92FF920F931F93CF93DF93B3
:10113000EC017A018B01488359836A837B8368853C
:1011400079858A859B85A80197010E9428112889A5
:1011500039894A895B890E9459115B016C01C80178
:10116000B7012C853D854E855F850E9428112C890D
:101170003D894E895F890E9459119B01AC01C601CE
:10118000B5010E94FB10D62EC72EB82EA92EA6019F
:101190009501852F942FA32FB22F8C839D83AE832F
:1011A000BF836E8C7F8C88A099A0652F742F832FAE
:1011B000922FA40193010E943113181684F06A8CB7
:1011C0007B8C8C8C9D8CA6019501652F742F832FB1
:1011D000922FA40193010E94911387FF04C06C8297
:1011E0007D828E829F82EC86FD860E871F87DF912F
:1011F000CF911F910F91FF90EF90DF90CF90BF9014
:10120000AF909F908F907F906F9008954F925F92D4
:101210006F927F928F929F92AF92BF92CF92DF9206
:10122000EF92FF920F931F93CF93DF93EC016A012C
:101230007B012801390188809980AA80BB80C50183
:10124000B401A70196010E9431131816BCF4C88896
:10125000D988EA88FB88C701B6012AE037ED43E266
:101260005CE30E94311318164CF4C701B6012DEC53
:101270003CEC4CEC5DE30E9428111EC0C501B4019A
:10128000A30192010E94911387FF1AC0C888D988D0
:10129000EA88FB88C701B60120E030E048E453E467
:1012A0000E94911387FF0CC0C701B6012DEC3CECE6
:1012B0004CEC5DE30E94FB10688B798B8A8B9B8BD7
:1012C000DF91CF911F910F91FF90EF90DF90CF9022
:1012D000BF90AF909F908F907F906F905F904F9056
:1012E0000895AF92BF92CF92DF92EF92FF920F9349
:1012F0001F93CF93DF93EC015A016B0178018901B1
:10130000688D798D882777FD8095982F0E94C1136D
:1013100020E030E04AE754E40E945312562F472F52
:10132000382F292FA88AB98ACA8ADB8AC801B7014F
:10133000DA01F9012B2F3A2F4F2F5E2F0E94531203
:101340006C8B7D8B8E8B9F8BDF91CF911F910F913B
:10135000FF90EF90DF90CF90BF90AF9008956F9285
:101360007F928F929F92AF92BF92CF92DF92EF9235
:10137000FF920F931F93CF93DF93EC015A016B0100
:1013800078018901CB01BA01A80197010E943113AC
:1013900018162CF1AA8EBB8ECC8EDD8EEE8EFF8EB3
:1013A00008A319A36C807D808E809F80C401B30147
:1013B000A80197010E94311318162CF4EC82FD82CB
:1013C0000E831F830CC0C401B301A60195010E94C6
:1013D000911387FF04C0AC82BD82CE82DF82DF9191
:1013E000CF911F910F91FF90EF90DF90CF90BF9022
:1013F000AF909F908F907F906F900895F894109287
:101400008000E1E8F0E010821092850010928400E4
:1014100089E09DE3909389008093880080818860B3
:101420008083808184608083EFE6F0E08081826049
:101430008083789408951F920F920FB60F92112413
:101440002F933F934F935F936F938F939F93AF939C
:10145000BF93EF93FF9380912E018F5F80932E01B6
:1014600080912E01882319F0E3E1F3E040C0E4E12C
:10147000F3E06681662319F487818823F9F084817B
:1014800090E0258130E0AC01421B530B1416150689
:1014900044F46623A1F0260F311D281739077CF488
:1014A0000BC04115510559F04781442341F0241BDD
:1014B0003109821793071CF4C90101C08481858317
:1014C0008581882371F09081A181B28183819923E4
:1014D00021F49C91982B9C9304C09C918095892326
:1014E0008C93399683E0E632F80719F6BDCF8081F8
:1014F00087FD13C080912E019681981771F4818128
:10150000A281B3819481882329F42C91892F80951D
:10151000822302C08C91892B8C93399683E0E5322B
:10152000F80729F7FF91EF91BF91AF919F918F91AC
:101530006F915F914F913F912F910F900FBE0F9040
:101540001F90189591E097BB92E09093B100909313
:10155000B00022E82093B300E0E7F0E090839081B0
:101560009FEF90931303109214031092160310929E
:10157000150310921A0310921B0390931C031092F0
:101580001D0310921F0310921E031092230310924A
:10159000240380931203089591E0662309F490E0F8
:1015A0003091130320911C0387FF06C008C090935D
:1015B000140387FF0AC00CC0381739F4F8CF37FF7F
:1015C000F6CF06C090931D030895281719F4FACF9B
:1015D00027FFF8CF08951F93182F442329F0109266
:1015E000B2008FEF80932E01E3E1F3E090E08FEF04
:1015F000208117FF03C027FF03C005C0211719F47E
:10160000658317FF4DC08F3F19F4208127FD892F77
:101610009F5F3996923061F717FD42C08F3F09F402
:101620003FC0992787FD9095DC0123E0AA0FBB1FDF
:101630002A95E1F7A80FB91FAD5EBC4F1C938091AE
:10164000120311968C931197212F332727FD309584
:10165000F901EA57FF4FE491F0E0EE0FFF1FEE585B
:10166000FF4F4591549112964C93129713965C93A9
:10167000139726563F4FF901249114962C931497F3
:1016800015966C931597882319F4812F60E002C09A
:10169000812F61E00E949218812F61E00E946E18F4
:1016A0001F910895E82F8FEF689FB0011124CB019F
:1016B00064E670E00E94B2268E2F0E94EB0A089525
:1016C0000F931F93CF93DF93182FC3E1D3E00FEF56
:1016D000888117FF03C087FF03C00BC0811749F43F
:1016E000888161E00E949218888160E00E946E18F3
:1016F0000883299683E0C532D80751F7DF91CF914F
:101700001F910F9108952F923F924F925F926F9287
:101710007F928F929F92AF92BF92CF92DF92EF9281
:10172000FF921F93DF93CF9300D000D0CDB7DEB7E9
:10173000182F4B015A0123E133E02A016624772454
:1017400040EFC42E4FE0D42EE12CF12CCB01A0E0D1
:10175000B0E089839A83AB83BC831901D1018C915A
:1017600017FF03C087FF03C026C0811721F581142E
:10177000910451F0C701B60129813A814B815C8106
:101780000E94D926C90102C080E090E0F101878360
:10179000A114B10441F0C701B601A30192010E9456
:1017A000D926C90102C080E090E0D10118968C933F
:1017B000189717FF09C0E9E0F0E02E0E3F1EF5E292
:1017C0002F16F3E03F0651F60F900F900F900F90F9
:1017D000CF91DF911F91FF90EF90DF90CF90BF905E
:1017E000AF909F908F907F906F905F904F903F90C1
:1017F0002F900895EF920F93CF93DF93EC010E9407
:10180000EF0383E391E099838883DF91CF910F9178
:10181000EF900895EF92FF920F931F93CF93DF9372
:101820007C01EB010E94DA02AB01BC018E01222790
:1018300017FD2095322F400F511F621F731FC701E4
:101840000E949103DF91CF911F910F91FF90EF9034
:101850000895CF93DF93EC01882777FD8095982F2B
:101860000E94C113AB01BC01CE010E941803DF919D
:10187000CF9108958F92AF92CF92DF92EF92FF9225
:101880000F931F93CF93DF93CCECD3E0CE0140E8CE
:1018900055E260E070E00E94A02564E670E080E020
:1018A00090E00E94D517CE016FE371E00E94FE2107
:1018B00082E090E00E940621182FF92E6CE04BE0A8
:1018C00025E004E0F3E0EF2EE2E0CE2E70E1A72E5B
:1018D00052E0852E0E94B80410932903F0922A0347
:1018E00064E670E080E090E00E94D517CE016EE4DF
:1018F00071E00E94FE210E94B40464E670E080E082
:1019000090E00E94D517CE016DE571E00E94FE21A6
:1019100085E090E00E9406218C0161E170E04EE0DC
:1019200050E00E94520400932B0310932C0385E097
:1019300090E00E9406218C0162E170E043E150E0FA
:101940000E94520400932D0310932E0364E670E06E
:1019500080E090E00E94D517CE0161E771E00E941F
:10196000FE2187E290E00E940621F82E192F64E004
:1019700048E029E006E037E0E32E0E94FA0BF092FF
:101980002F03109330038F2D912F40E050E86BE32D
:1019900075E40E946A0380912F039091300340E028
:1019A00050E06AEF73E40E94620364E670E080E056
:1019B00090E00E94D517CE016AE871E00E94FE21F6
:1019C00082E290E00E9406218C010E94840810931C
:1019D0002603009325030F2EF0E0CF2EF0E0DF2E3C
:1019E000F0E7EF2EF2E4FF2EF02DF801C086D1864D
:1019F000E286F386C80146E656E666E970E40AE048
:101A000017ED23EA3BE30E94710980912503909131
:101A1000260340E050E06FE773EC00E010E02FE7B2
:101A200033E40E94AF0964E670E080E090E00E9439
:101A3000D517CE016EE971E00E94FE2182E290E0AE
:101A40000E9406218C010E948408109328030093B1
:101A50002703F801C086D186E286F386C80140E0FC
:101A600050E060E470E40AE017ED23EA3BE30E94F3
:101A70007109809127039091280340E050E06FE7BF
:101A800073EC00E010E02FE733E40E94AF0964E656
:101A900070E080E090E00E94D517CE0163EB71E02A
:101AA0000E94FE210E94FE0964E670E080E090E062
:101AB0000E94D5178AE061E00E946E188AE060E01B
:101AC0000E9492188DE060E00E946E18DF91CF9125
:101AD0001F910F91FF90EF90DF90CF90AF908F907C
:101AE0000895E0912703F09128036081718182813C
:101AF000938120E030E040E251E40E94911387FF9F
:101B00001FC0809133039091340327E0813D9207F9
:101B100030F080912D0390912E030E948104E0917A
:101B20002703F09128038091330390913403208D93
:101B3000318D820F931F9093340380933303089564
:101B40001092340310923303089580912B039091E7
:101B50002C030E94810480912D0390912E030E94FA
:101B600081048AE060E00E94921883B7816083BF9D
:101B700083B7816083BF889583B78E7F83BF0895C5
:101B8000E0912703F0912803608171818281938124
:101B900020E030E040E251E40E94911387FF1BC037
:101BA000809133039091340327E0813D920710F038
:101BB0000E94A50DE0912503F09126038091330347
:101BC00090913403208D318D820F931F90933403B5
:101BD0008093330304C01092340310923303E091D6
:101BE0002703F0912803608171818281938120E035
:101BF00030E040EF52E40E9431131816DCF480917B
:101C000035039091360327E0813D920710F00E9442
:101C1000A50DE0912703F091280380913503909161
:101C20003603208D318D820F931F9093360380935E
:101C300035030895109236031092350308951F92CC
:101C40000F920FB60F9211242F933F934F935F93F0
:101C50006F937F938F939F93AF93BF93CF93DF93B4
:101C6000EF93FF93C0912503D091260381E00E945A
:101C7000D8169C01B901882777FD8095982F0E947E
:101C8000C113AB01BC01CE010E948A08C091270399
:101C9000D091280382E00E94D8169C01B9018827C0
:101CA00077FD8095982F0E94C113AB01BC01CE0136
:101CB0000E948A08C0912B03D0912C03E091250348
:101CC000F0912603648175818681978190580E94E6
:101CD00021149B01AC01CE01B9010E949304C09173
:101CE0002D03D0912E03E0912703F0912803648106
:101CF0007581868197810E9421149B01AC01CE01E0
:101D0000B9010E949304E0912503F09126034081DC
:101D10005181628173818CEC93E022E030E00E947B
:101D20001D2480913903882311F00E94C00DFF917A
:101D3000EF91DF91CF91BF91AF919F918F917F9163
:101D40006F915F914F913F912F910F900FBE0F9028
:101D50001F901895EF92FF920F931F93DF93CF93ED
:101D6000CDB7DEB72E970FB6F894DEBF0FBECDBF4E
:101D70008DE00E94CA18009709F04CC0E09029033A
:101D8000F0902A038E010F5F1F4FC80167EC71E0CE
:101D90000E946619C701B80140E050E00E940E059C
:101DA000C8010E94F418109239030DC0C90140E027
:101DB00050E060EA70E40E94180380912F03909134
:101DC00030030E9460028DE00E94CA1820912F0308
:101DD00030913003009751F3C90160E971E00E942E
:101DE0000A0C1092320310923103E0902903F09014
:101DF0002A038E01085F1F4FC8016EEC71E00E943C
:101E00006619C701B80140E050E00E940E05C80104
:101E10000E94F41881E0809339032E960FB6F8944F
:101E2000DEBF0FBECDBFCF91DF911F910F91FF900D
:101E3000EF900895EF92FF920F931F93DF93CF934C
:101E4000CDB7DEB72E970FB6F894DEBF0FBECDBF6D
:101E50000E9406180E943A0C0E94AA0EE0902903E4
:101E6000F0902A038E010F5F1F4FC8016EEC71E0E6
:101E70000E946619C701B80140E050E00E940E05BB
:101E8000C8010E94F4188E01085F1F4F8AE061E0CC
:101E90000E94921880912F039091300360E971E0C5
:101EA0000E940A0C02C00E94AA0E80912F039091FA
:101EB00030030E9472038823B1F78AE060E00E9439
:101EC000921860ED77E080E090E00E94D517809155
:101ED0003103909132030196909332038093310342
:101EE000E0902903F0902A03C8016EEC71E00E9493
:101EF00066194091310350913203C701B8010E9425
:101F00000E05C8010E94F418C1CFEF92FF920F9303
:101F10001F937B018C0120E030E040E05FE40E94F1
:101F2000611387FD11C0C801B70120E030E040E037
:101F30005FE40E9428110E9421149B01AC012050F3
:101F400030404040504806C0C801B7010E942114EB
:101F50009B01AC01B901CA011F910F91FF90EF9055
:101F60000895A0E0B0E0E7EBFFE00C94FF26FC0151
:101F7000EA018081823008F438C1DB019C91923003
:101F800008F430C1843059F4943009F02EC19181A5
:101F900011968C911197981709F021C126C19430A0
:101FA00009F420C19230B1F4823009F01EC1CA0197
:101FB000AF0128E0DA010D90AD01DC010D92CD01F9
:101FC0002150C1F7DB0111968C91119791818923E2
:101FD00089830AC1823009F405C1C280D380DB0144
:101FE00012966D907C90139724813581468157819C
:101FF0001496ED90FD900D911C911797C6018619CE
:1020000097095C0197FF04C0AA24BB24A81AB90A47
:10201000B0E2AB16B1040CF061C0181619066CF5ED
:10202000370148010A2C04C09694879477946794EA
:102030000A94D2F781E090E0A0E0B0E00A2C04C05E
:10204000880F991FAA1FBB1F0A94D2F70197A109F5
:10205000B1098E219F21A023B123EE24FF24870103
:10206000E3940097A105B10519F4EE24FF2487013C
:10207000E628F728082919293CC00097D1F1CA0C95
:10208000DB1C39014A010A2C04C09694879477948A
:1020900067940A94D2F781E090E0A0E0B0E00A2CC7
:1020A00004C0880F991FAA1FBB1F0A94D2F701977B
:1020B000A109B10982239323A423B52321E030E0B1
:1020C00040E050E00097A105B10519F420E030E0B0
:1020D000A90126293729482959290BC06C147D04E8
:1020E00024F4EE24FF24870104C0630120E030E0E3
:1020F000A9018181FB019181891709F445C08823D9
:1021000049F0D801C701821B930BA40BB50B9C01AE
:10211000AD0104C02E193F09400B510B57FD04C0FF
:102120001982DB82CA820BC081E08983DB82CA828A
:1021300050954095309521953F4F4F4F5F4F2C83E1
:102140003D834E835F830DC0880F991FAA1FBB1F5D
:102150008C839D83AE83BF838A819B8101979B8300
:102160008A838C819D81AE81BF819C01AD0121500C
:102170003040404050402F3FEFEF3E07EFEF4E071B
:10218000EFE35E0708F30BC08983DB82CA822E0D62
:102190003F1D401F511F2C833D834E835F8383E08F
:1021A00088832C813D814E815F8157FF1DC0DA01FC
:1021B000C90181709070A070B070569547953795A1
:1021C0002795822B932BA42BB52B8C839D83AE83D9
:1021D000BF838A819B8101969B838A8305C0EBED37
:1021E000F1E003C0FB0101C0FE01CF01CDB7DEB7B6
:1021F000EEE00C941B27A0E2B0E0E1E0F1E10C94EA
:10220000072769837A838B839C832D833E834F8347
:10221000588789E0E82EF12CEC0EFD1ECE010196C8
:10222000B7010E9413168E010F5E1F4FCE01059657
:10223000B8010E941316C701B801AE01475E5F4F97
:102240000E94B10F0E944515A096E6E00C9423274A
:10225000A0E2B0E0EEE2F1E10C94072769837A8313
:102260008B839C832D833E834F8358878E01075F2A
:102270001F4FCE010196B8010E94131691E1E92E7D
:10228000F12CEC0EFD1ECE010596B7010E9413162F
:102290008A8991E089278A8BC801B701AE01475E20
:1022A0005F4F0E94B10F0E944515A096E6E00C9486
:1022B0002327A0E2B0E0EFE5F1E10C94FB2669836F
:1022C0007A838B839C832D833E834F835887CE01F3
:1022D0000196BE01675F7F4F0E941316CE010596DF
:1022E000BE016F5E7F4F0E9413169985923078F081
:1022F00089898230C0F0943019F4823041F4CBC027
:10230000843019F4923079F4C6C0923051F481E0EF
:102310002A859A89291709F480E08A87CE010996CF
:10232000BCC0823051F481E02A859A89291709F4CA
:1023300080E08A8BCE014196B0C06D847E848F840C
:102340009888ED88FE880F89188DE0E2F0E080E043
:1023500090E0DC01AA24BB24650120E030E0A90163
:10236000B3016170707061157105D1F02E0D3F1DC4
:10237000401F511F15012601280E391E4A1E5B1EE3
:1023800081E090E0A0E0B0E02E153F054007510746
:1023900018F080E090E0DC01820D931DA41DB51DB6
:1023A000AA0CBB1CCC1CDD1C17FF09C061E0262E4B
:1023B000312C412C512CA228B328C428D528319780
:1023C00049F0EE0CFF1C001F111F96948794779420
:1023D0006794C6CF6B897C89EB85FC856E0F7F1F68
:1023E0006E5F7F4F7C8F6B8F61E0EA857A89E7179C
:1023F00009F460E06A8F6B8D7C8D10C0FC01E17088
:10240000F070309729F05695479537952795506885
:10241000B695A795979587956F5F7F4FB7FDEECFE0
:102420000CC0880F991FAA1FBB1F57FD8160220F88
:10243000331F441F551F615070408030E0E09E07FD
:10244000E0E0AE07E0E4BE0760F36B8F7C8F6FE7E0
:10245000E62EF12C012D112DE822F9220A231B234F
:1024600060E4E616F1040105110561F487FD0AC078
:10247000211531054105510529F0805C9F4FAF4F73
:10248000BF4F80788D8F9E8FAF8FB8A383E0898FE9
:10249000CE01499602C08BED91E00E944515A096B1
:1024A000E2E10C941727A8E1B0E0E9E5F2E10C9431
:1024B000032769837A838B839C832D833E834F8399
:1024C00058878E01075F1F4FCE010196B8010E9409
:1024D000131681E1E82EF12CEC0EFD1ECE010596BF
:1024E000B7010E9413169985923008F483C0898938
:1024F000823008F47BC02A853A8923272A879430C2
:1025000011F0923021F4981709F06CC071C084303A
:1025100039F41D861E861F86188A1C861B866AC093
:10252000823019F484E0898765C08B859C852B896E
:102530003C89821B930B9C878B872D853E854F851D
:102540005889ED88FE880F89188D2E153F054007A4
:10255000510738F4220F331F441F551F01979C87E2
:102560008B876FE170E0A12CB12CC12CA0E4DA2E96
:1025700080E090E0DC012E153F054007510740F058
:102580008A299B29AC29BD292E193F09400B510BE3
:10259000D694C794B794A794220F331F441F551F96
:1025A0006150704041F76FE7E62EF12C012D112D9F
:1025B000E822F9220A231B2360E4E616F104010550
:1025C000110561F487FD0AC021153105410551054A
:1025D00029F0805C9F4FAF4FBF4F80788D879E87DB
:1025E000AF87B88B8E01075F1F4F04C0870102C001
:1025F0000BED11E0C8010E9445156896EAE00C94C5
:102600001F27A8E1B0E0E7E0F3E10C940727698316
:102610007A838B839C832D833E834F8358878E01DF
:10262000075F1F4FCE010196B8010E94131681E18A
:10263000E82EF12CEC0EFD1ECE010596B7010E948E
:1026400013168985823040F08989823028F0C801CC
:10265000B7010E947C1601C081E06896E6E00C9408
:102660002327A8E1B0E0E7E3F3E10C9407276983AF
:102670007A838B839C832D833E834F8358878E017F
:10268000075F1F4FCE010196B8010E94131681E12A
:10269000E82EF12CEC0EFD1ECE010596B7010E942E
:1026A00013168985823040F08989823028F0C8016C
:1026B000B7010E947C1601C08FEF6896E6E00C948B
:1026C0002327A8E1B0E0E7E6F3E10C94072769834C
:1026D0007A838B839C832D833E834F8358878E011F
:1026E000075F1F4FCE010196B8010E94131681E1CA
:1026F000E82EF12CEC0EFD1ECE010596B7010E94CE
:1027000013168985823040F08989823028F0C8010B
:10271000B7010E947C1601C08FEF6896E6E00C942A
:102720002327A8E1B0E0E7E9F3E10C9407276983E8
:102730007A838B839C832D833E834F8358878E01BE
:10274000075F1F4FCE010196B8010E94131681E169
:10275000E82EF12CEC0EFD1ECE010596B7010E946D
:1027600013168985823040F08989823028F0C801AB
:10277000B7010E947C1601C081E06896E6E00C94E7
:102780002327A8E0B0E0E7ECF3E10C9407277B01F6
:102790008C0183E08983D801C7018827B7FD839521
:1027A0009927AA27BB27282F8A83E114F104010562
:1027B000110519F482E0898337C08EE190E09C8393
:1027C0008B83222389F080E0E81680E0F80680E021
:1027D000080780E8180769F110950095F094E094D7
:1027E000E11CF11C011D111DED82FE820F83188773
:1027F000C801B7010E94EB149C0121503040121611
:10280000130694F4022E04C0EE0CFF1C001F111FCF
:102810000A94D2F7ED82FE820F8318878EE190E052
:10282000821B930B9C838B83CE0101960E944515DE
:1028300004C060E070E080E09FEC2896E6E00C9435
:102840002327ACE0B0E0E7E2F4E10C940B276983C6
:102850007A838B839C83CE010196BE016B5F7F4F91
:102860000E9413168D81823081F1823070F18430A4
:1028700021F48E81882369F10AC02F81388537FDC4
:1028800024C06E812F3131053CF0662311F120E028
:1028900030E040E050E821C08EE190E0821B930BD5
:1028A00029853A854B855C8504C0569547953795B3
:1028B00027958A95D2F7662381F0509540953095FB
:1028C00021953F4F4F4F5F4F08C020E030E0A901F6
:1028D00004C02FEF3FEF4FEF5FE7B901CA012C961D
:1028E000E2E00C942727A8E0B0E0E9E7F4E10C94DB
:1028F00005277B018C011A826115710581059105FF
:1029000019F482E089835FC083E089838EE1C82E59
:10291000D12CDC82CB82ED82FE820F831887C80126
:10292000B7010E94EB14FC013197F7FF3AC0AA27C8
:10293000BB27AE1BBF0B21E030E040E050E00A2E89
:1029400004C0220F331F441F551F0A94D2F7215091
:102950003040404050402E213F214023512361E030
:1029600070E080E090E0211531054105510519F432
:1029700060E070E0CB0104C016950795F794E794EA
:10298000AA95D2F7E62AF72A082B192BED82FE82A8
:102990000F8318878EE190E08E1B9F0B9C838B83A7
:1029A00012C0309781F00E2E04C0EE0CFF1C001FE9
:1029B000111F0A94D2F7ED82FE820F831887CE1A78
:1029C000DF0ADC82CB82CE0101960E944515289653
:1029D000E8E00C942127AF92BF92CF92DF92EF9262
:1029E000FF920F931F937B018C0180E0E81680E03B
:1029F000F80681E0080780E0180758F4EFEFEE16BC
:102A0000F1040105110509F090F480E090E0DC018B
:102A100017C0F0E0EF16F0E0FF06F0E00F07F1E07E
:102A20001F0750F480E190E0A0E0B0E009C088E02A
:102A300090E0A0E0B0E004C088E190E0A0E0B0E069
:102A400020E230E040E050E0281B390B4A0B5B0BE2
:102A50005701680104C0D694C794B794A7948A9587
:102A6000D2F7D601C5018D519E4FFC018081281BF4
:102A7000310941095109C9011F910F91FF90EF9050
:102A8000DF90CF90BF90AF900895EF92FF920F9399
:102A90001F93CF93DF93FC012481358146815781B9
:102AA00061818081823020F44061EFEFF0E0A3C0CB
:102AB000843009F49BC0823009F492C0211531059D
:102AC0004105510509F48FC00280F381E02D8FEF9D
:102AD000E238F8070CF05AC0C2E8DFEFCE1BDF0B7C
:102AE000CA31D1056CF579018A010C2E04C0169506
:102AF0000795F794E7940A94D2F781E090E0A0E07C
:102B0000B0E00C2E04C0880F991FAA1FBB1F0A94A7
:102B1000D2F70197A109B10982239323A423B523F6
:102B200021E030E040E050E00097A105B10519F444
:102B300020E030E0A9012E293F29402B512B03C072
:102B400020E030E0A901DA01C9018F779070A07010
:102B5000B07080349105A105B10539F427FF09C093
:102B6000205C3F4F4F4F5F4F04C0215C3F4F4F4FA2
:102B70005F4FE1E0F0E0203080E0380780E0480778
:102B800080E4580728F5E0E0F0E022C0E038F105E5
:102B90006CF5E158FF4FDA01C9018F779070A07092
:102BA000B07080349105A105B10539F427FF09C043
:102BB000205C3F4F4F4F5F4F04C0215C3F4F4F4F52
:102BC0005F4F57FF05C05695479537952795319626
:102BD00087E056954795379527958A95D1F70BC08D
:102BE000E0E0F0E005C0E0E0F0E005C0EFEFF0E08D
:102BF00020E030E0A9018E2F879588278795942FB4
:102C00009F77679566276795E695E22EA92FA82BF3
:102C1000FE2FF62B622F732F8A2F9F2FCDB7DEB793
:102C2000E6E00C942327DC01FB012C9111963C91EA
:102C3000119712968C911297482F4F7750E0982F4A
:102C4000991F9927991F13966C911397862F880FB8
:102C5000892B90E0661F6627661F6183009739F510
:102C6000211531054105510511F482E029C082E8A2
:102C70009FEF9383828367E0220F331F441F551F0A
:102C80006A95D1F783E0808309C0220F331F441F68
:102C9000551F82819381019793838283203080E046
:102CA000380780E0480780E4580778F320C08F3F5A
:102CB000910579F4211531054105510519F484E098
:102CC0008083089544FF03C081E0808310C0108298
:102CD0000EC08F5790409383828383E0808387E088
:102CE000220F331F441F551F8A95D1F75064248348
:102CF0003583468357830895FC01DB019081923030
:102D000008F449C08C91823008F445C0943051F4E5
:102D100061818430B1F511962C91119730E0261B1A
:102D2000310941C0843021F0923041F48230B1F158
:102D300011968C9111978823A1F12DC06181823069
:102D400001F111968C9111976817D9F42281338182
:102D500012968D919C9113978217930794F02817E0
:102D60003907BCF0248135814681578114968D91B5
:102D70009D910D90BC91A02D82179307A407B507D4
:102D800018F4662341F00DC0281739074A075B077E
:102D900028F4662331F021E030E005C020E030E087
:102DA00002C02FEF3FEFC90108958093E902089513
:102DB0008E3008F08E5087709091E9029295990FAD
:102DC000990F907C982B90937C0080917A0080647E
:102DD00080937A0080917A0086FDFCCF2091780064
:102DE00030917900932F80E030E0282B392BC901F6
:102DF00008951F93CF93DF93182FEB0161E00E949A
:102E00006E18209709F44AC0CF3FD10509F449C094
:102E1000E12FF0E0E255FF4FE491E330C1F0E43000
:102E200028F4E13051F0E230B1F50CC0E63019F190
:102E3000E73049F1E43079F514C084B5806884BD89
:102E4000C7BD33C084B5806284BDC8BD2EC080912B
:102E50008000806880938000D0938900C0938800B0
:102E600024C080918000806280938000D0938B008A
:102E7000C0938A001AC08091B00080688093B0002F
:102E8000C093B30012C08091B00080628093B00004
:102E9000C093B4000AC0C038D1051CF4812F60E093
:102EA00002C0812F61E00E949218DF91CF911F91A3
:102EB00008951F920F920FB60F9211242F933F93F4
:102EC0008F939F93AF93BF9380913E0390913F0365
:102ED000A0914003B0914103309142030196A11D9E
:102EE000B11D232F2D5F2D3720F02D570196A11DE9
:102EF000B11D2093420380933E0390933F03A09320
:102F00004003B093410380913A0390913B03A09119
:102F10003C03B0913D030196A11DB11D80933A037E
:102F200090933B03A0933C03B0933D03BF91AF91BB
:102F30009F918F913F912F910F900FBE0F901F90F7
:102F400018958FB7F89420913E0330913F0340913C
:102F50004003509141038FBFB901CA0108959FB743
:102F6000F89420913A0330913B0340913C035091F7
:102F70003D0386B5A89B06C08F3F21F02F5F3F4FD2
:102F80004F4F5F4F9FBF542F432F322F2227280FC1
:102F9000311D411D511D82E0220F331F441F551F5B
:102FA0008A95D1F7B901CA010895EF92FF920F9364
:102FB0001F93CF93DF937B018C010E94AF17EB012E
:102FC0000FC00E94AF176C1B7D0B83E0683E780733
:102FD00038F00894E108F10801091109C851DC4FE3
:102FE000E114F1040105110561F7DF91CF911F9103
:102FF0000F91FF90EF900895019739F0880F991F76
:10300000880F991F02970197F1F70895789484B576
:10301000826084BD84B5816084BD85B5826085BDD4
:1030200085B5816085BDEEE6F0E0808181608083BA
:10303000E1E8F0E01082808182608083808181609D
:103040008083E0E8F0E0808181608083E1EBF0E064
:10305000808184608083E0EBF0E080818160808308
:10306000EAE7F0E0808184608083808182608083F1
:103070008081816080838081806880831092C1001C
:103080000895833071F0843028F48130A1F08230CB
:1030900021F514C08630B1F08730D1F08430E9F4E6
:1030A00004C0809180008F7703C0809180008F7D65
:1030B00080938000089584B58F7702C084B58F7D9A
:1030C00084BD08958091B0008F778093B0000895FB
:1030D0008091B0008F7D8093B000089590E0FC0156
:1030E000E656FF4F2491FC01EA57FF4FE491EE238F
:1030F000C1F0F0E0EE0FFF1FE859FF4F859194916A
:10310000DC01662341F49FB7F8948C9120958223CB
:103110008C939FBF08959FB7F8948C91822B8C93CA
:103120009FBF08950F931F93DF93CF930F92CDB757
:10313000DEB7282F30E0F901E255FF4F8491F90105
:10314000E656FF4F14912A573F4FF901049100238F
:10315000D9F0882321F069830E9441186981E02F0A
:10316000F0E0EE0FFF1FEE58FF4F85919491DC01C8
:103170009FB7F894662321F48C911095812302C0A7
:103180008C91812B8C939FBF0F90CF91DF911F91DA
:103190000F9108950F931F93282F30E0F901E25506
:1031A000FF4F8491F901E656FF4F04912A573F4F94
:1031B000F9011491112391F0882311F00E94411814
:1031C000E12FF0E0EE0FFF1FE458FF4F859194913F
:1031D000DC018C91802321E030E011F420E030E02C
:1031E000C9011F910F910895FC01808191810E9476
:1031F0004E280895CF93DF93EC0188819981009741
:1032000011F00E944E28198218821D821C821B8296
:103210001A82DF91CF9108950F931F93CF93DF937D
:10322000EC018B016F5F7F4F888199810E94E728B5
:10323000009731F0998388831B830A8381E001C062
:1032400080E0DF91CF911F910F910895CF93DF938D
:10325000EC0188819981009729F08A819B818617EA
:10326000970778F4CE010E940C19882341F08C81D5
:103270009D81009731F4E881F981108202C080E0DD
:1032800001C081E0DF91CF910895EF92FF920F93FB
:103290001F93CF93DF93EC017B018A01BA010E9457
:1032A0002619882321F4CE010E94FA1807C01D8335
:1032B0000C8388819981B7010E94202ACE01DF9179
:1032C000CF911F910F91FF90EF900895CF93DF93CF
:1032D000FC011182108213821282158214821682DE
:1032E0006115710559F0EB0109900020E9F7AE0175
:1032F00041505040461B570B0E944519DF91CF911A
:103300000895EF92FF92CF93DF93EC01FB018617B4
:10331000970761F0608171816115710529F0448121
:1033200055810E94451902C00E94FA18CE01DF9112
:10333000CF91FF90EF900895FC01118210821382CB
:1033400012821582148216820E94811908950F93A9
:103350001F938C016115710561F0DB010D90002058
:10336000E9F7AD0141505040461B570B0E944519EB
:1033700002C00E94FA18C8011F910F910895EF92A0
:10338000FF920F931F93DF93CF93CDB7DEB7A19733
:103390000FB6F894DEBF0FBECDBF7C01CB01BA01E2
:1033A000F701118210821382128215821482168212
:1033B0008E010F5F1F4FA80130E00E94D32AC70182
:1033C000B8010E94A719A1960FB6F894DEBF0FBEF0
:1033D000CDBFCF91DF911F910F91FF90EF90089596
:1033E000EF92FF920F931F93DF93CF93CDB7DEB78A
:1033F000A2970FB6F894DEBF0FBECDBF7C01CB0104
:10340000BA01F7011182108213821282158214828E
:1034100016828E010F5F1F4FA80130E00E948A2A9A
:10342000C701B8010E94A719A2960FB6F894DEBF93
:103430000FBECDBFCF91DF911F910F91FF90EF9005
:103440000895EF92FF920F931F93DF93CF93CDB721
:10345000DEB761970FB6F894DEBF0FBECDBF7C011B
:10346000CB01F7011182108213821282158214821D
:1034700016828E010F5F1F4FB80150E00E94F82A9C
:10348000C701B8010E94A71961960FB6F894DEBF74
:103490000FBECDBFCF91DF911F910F91FF90EF90A5
:1034A0000895EF92FF920F931F93DF93CF93CDB7C1
:1034B000DEB762970FB6F894DEBF0FBECDBF7C01BA
:1034C000CB01F701118210821382128215821482BD
:1034D00016828E010F5F1F4FB80150E00E94692ACB
:1034E000C701B8010E94A71962960FB6F894DEBF13
:1034F0000FBECDBFCF91DF911F910F91FF90EF9045
:103500000895EF92FF920F931F93DF93CF93CDB760
:10351000DEB729970FB6F894DEBF0FBECDBF7C0192
:10352000862FF70111821082138212821582148273
:10353000168290E08E010F5F1F4FB80150E00E948D
:10354000F82AC701B8010E94A71929960FB6F89466
:10355000DEBF0FBECDBFCF91DF911F910F91FF90C6
:10356000EF900895DF93CF9300D0CDB7DEB7FC0185
:10357000118210821382128215821482168269834C
:103580001A82BE016F5F7F4F0E94A7190F900F90A4
:10359000CF91DF910895EF92FF920F931F93CF93F6
:1035A000DF93EC017B010C811D8161157105B9F080
:1035B0004115510591F0040F151FB8010E942619FD
:1035C000882369F0288139818C819D81820F931F26
:1035D000B7010E94202A1D830C8381E001C080E096
:1035E000DF91CF911F910F91FF90EF900895FB0114
:1035F00060817181448155810E94CB1A08956115C3
:10360000710561F0DB010D900020E9F7AD0141503B
:103610005040461B570B0E94CB1A089580E0089536
:10362000DF93CF9300D0CDB7DEB769831A82BE0196
:103630006F5F7F4F41E050E00E94CB1A0F900F90D8
:10364000CF91DF910895EF92FF920F931F93DF9335
:10365000CF9300D000D0CDB7DEB77C01862F90E0AD
:103660008E010F5F1F4FB8014AE050E00E94692AA7
:10367000F80101900020E9F7AF0141505040401B94
:10368000510BC701B8010E94CB1A0F900F900F90F9
:103690000F90CF91DF911F910F91FF90EF900895C0
:1036A000EF92FF920F931F93DF93CF93CDB7DEB7C7
:1036B00027970FB6F894DEBF0FBECDBF7C01CB01BC
:1036C0008E010F5F1F4FB8014AE050E00E94692A47
:1036D000F80101900020E9F7AF0141505040401B34
:1036E000510BC701B8010E94CB1A27960FB6F89468
:1036F000DEBF0FBECDBFCF91DF911F910F91FF9025
:10370000EF900895EF92FF920F931F93DF93CF9363
:1037100000D000D000D0CDB7DEB77C01CB018E0148
:103720000F5F1F4FB8014AE050E00E94F82AF801ED
:1037300001900020E9F7AF0141505040401B510B70
:10374000C701B8010E94CB1A26960FB6F894DEBFC7
:103750000FBECDBFCF91DF911F910F91FF90EF90E2
:103760000895EF92FF920F931F93DF93CF93CDB7FE
:10377000DEB72C970FB6F894DEBF0FBECDBF7C012D
:10378000CB01BA018E010F5F1F4FA8012AE030E084
:103790000E948A2AF80101900020E9F7AF01415008
:1037A0005040401B510BC701B8010E94CB1A2C9608
:1037B0000FB6F894DEBF0FBECDBFCF91DF911F9142
:1037C0000F91FF90EF900895EF92FF920F931F9348
:1037D000DF93CF93CDB7DEB72B970FB6F894DEBF4C
:1037E0000FBECDBF7C01CB01BA018E010F5F1F4F11
:1037F000A8012AE030E00E94D32AF80101900020BD
:10380000E9F7AF0141505040401B510BC701B801CF
:103810000E94CB1A2B960FB6F894DEBF0FBECDBF19
:10382000CF91DF911F910F91FF90EF9008950F932B
:103830001F938C01FB0160817181448155810E943D
:10384000CB1A882319F4C8010E94FA18C8011F91E5
:103850000F9108950F931F938C016115710569F005
:10386000DB010D900020E9F7AD0141505040461BAF
:10387000570B0E94CB1A882319F4C8010E94FA182A
:10388000C8011F910F9108950F931F938C010E94FF
:10389000101B882319F4C8010E94FA18C8011F914F
:1038A0000F9108950F931F938C010E94231B88236F
:1038B00019F4C8010E94FA18C8011F910F910895C8
:1038C0000F931F938C010E94501B882319F4C80189
:1038D0000E94FA18C8011F910F9108950F931F932A
:1038E0008C010E94821B882319F4C8010E94FA18D7
:1038F000C8011F910F9108950F931F938C010E948F
:10390000B11B882319F4C8010E94FA18C8011F913D
:103910000F9108950F931F938C010E94E41B88233D
:1039200019F4C8010E94FA18C8011F910F91089557
:10393000CF93DF93FC01DB0180819181009731F00F
:103940006D917C91119761157105E9F4CD91DC9130
:103950001197209769F014962D913C911597211598
:10396000310531F0288130E0309521953F4F12C06C
:10397000009771F0248135812115310549F0FC0152
:10398000208130E007C00E94172A282F392F02C05B
:1039900020E030E0C901DF91CF910895FC0144811E
:1039A0005581FB01248135814217530729F40E9478
:1039B000981C21E0009709F020E0822F0895FC0177
:1039C00084819581009741F46115710519F081E0BA
:1039D000FB0109C081E008950190F081E02D61159F
:1039E000710531F481E09081992359F080E00895C8
:1039F000CF010E94172A9C0181E02115310509F0B1
:103A000080E008950E94981C892F881F8827881FAE
:103A100008950E94981C21E0181619060CF020E069
:103A2000822F08950E94981C21E0181619060CF4A4
:103A300020E0822F08950E94981C892F8095881F6E
:103A40008827881F0895EF92FF920F931F93CF93BB
:103A5000DF93FC01DB018617970729F184819581AB
:103A600014962D913C91159782179307F1F40097C6
:103A7000D1F000811181CD91DC9111970FC0992770
:103A800087FD90950E94E1297C018991992787FD06
:103A900090950E94E129E816F90639F4F801819120
:103AA0008F01882361F781E001C080E0DF91CF9131
:103AB0001F910F91FF90EF900895FC01DB01CA0167
:103AC00014964D915C91159724813581241B350BFB
:103AD00028173907A0F0208131812115310579F0AF
:103AE0006D917C9111976115710559F0820F931FAB
:103AF0000E94272A9C0181E02115310519F080E000
:103B0000089580E00895FC0144815581FB012481E2
:103B100035814217530728F040E050E00E945D1DB8
:103B2000089580E00895FC01DB018481958114965D
:103B30004D915C91159784179507B0F020813181E4
:103B40002115310589F06D917C91119761157105F1
:103B500069F0841B950B820F931F0E94172A9C010A
:103B600081E02115310519F080E0089580E0089585
:103B7000FC01848195816817790730F40190F08108
:103B8000E02DE60FF71F40830895FC0184819581A5
:103B90006817790720F480819181009729F41092A9
:103BA000430363E473E002C0680F791FCB010895FB
:103BB000FC01848195816817790748F4808191819F
:103BC000009739F0680F791FFB018081089580E02C
:103BD000089580E008950E94D81D08950F931F93C3
:103BE000CF93DF93FC018B0141155105F1F0611575
:103BF0007105D9F0C481D5812C173D0718F0FB0160
:103C0000108213C041505040C21BD30B4C175D07AC
:103C100008F4EA0160817181620F731FC801AE016F
:103C20000E94352AC00FD11F1882DF91CF911F91BA
:103C30000F910895CF93DF93FC01CA012481358150
:103C40004217530778F4C081D181772767FD7095BB
:103C50008C0F9D1F0E940C2A009721F09C012C1BA9
:103C60003D0B02C02FEF3FEFC901DF91CF910895C7
:103C700040E050E00E941A1E0895CF93DF93FC01AC
:103C8000CA01248135814217530778F4C081D1815C
:103C9000FB01608171818C0F9D1F0E944F2A00974C
:103CA00021F09C012C1B3D0B02C02FEF3FEFC901FF
:103CB000DF91CF91089540E050E00E943D1E0895AD
:103CC000DF92EF92FF920F931F93CF93DF93EC015C
:103CD0008C819D8148175907F8F47A010894E11CFA
:103CE000F11CE881F981EE0DFF1DD0801082088162
:103CF0001981772767FD7095C8010E94442A0E0D2F
:103D00001F1DF801D082009739F028813981AC015C
:103D1000421B530B9A0102C02FEF3FEFC901DF9105
:103D2000CF911F910F91FF90EF90DF900895FC01CC
:103D300044815581415050400E94601E0895AF92C9
:103D4000BF92CF92DF92EF92FF920F931F93CF9388
:103D5000DF93FC016B018A01DB0114962D913C91EC
:103D600015972115310551F184819581009731F125
:103D70008217930718F14817590718F08C01015062
:103D80001040E080F180C701CFEFDFEF5701A00EB8
:103D9000B11E10C0F601608171810E944F2A009708
:103DA00079F09C012E193F090217130708F49E01B0
:103DB0000196E901A816B90668F702C0CFEFDFEF58
:103DC000CE01DF91CF911F910F91FF90EF90DF9087
:103DD000CF90BF90AF900895FC0144815581FB01C5
:103DE00024813581421B530B0E949F1E0895AF9280
:103DF000BF92CF92DF92EF92FF920F931F93CF93D8
:103E0000DF93F82EE92E6B018A01E90124173507AB
:103E100048F4342F212F8E01C901A92EE5015E013E
:103E2000B22EE5018F2D9E2D68ED71E00E9466197E
:103E3000D60114968D919C91159780179107D8F013
:103E40008C179D0708F4EC01D601ED91FC911197B8
:103E5000EC0FFD1FB08010826D917C91600F711F7F
:103E60008F2D9E2D0E94A719D601ED91FC911197DF
:103E7000EC0FFD1FB0828F2D9E2DDF91CF911F91F2
:103E80000F91FF90EF90DF90CF90BF90AF9008958B
:103E9000CF93DF93EC01FB01248135810E94F71E53
:103EA000CE01DF91CF910895DC01ED91FC91119746
:103EB000309729F40895861709F44083319680815C
:103EC0008823C9F708952F923F924F925F926F9285
:103ED0007F928F929F92AF92BF92CF92DF92EF929A
:103EE000FF920F931F93CF93DF937C012B016A0105
:103EF000DC0114966D907C9015976114710409F49F
:103F0000D9C0FB01848095808114910409F4D2C04A
:103F1000DA011496AD90BC901597A818B908FC0169
:103F200000811181A114B104F1F413C0D6016C9188
:103F300011967C91119714964D915C911597CE0135
:103F40000E94F129D60114960D911C9115970C0F22
:103F50001D1FF20160817181C8010E944F2AEC018E
:103F6000009721F7A7C0B7FC02C0E30142C0480197
:103F70002DC0E301C01BD10BC401B801AE010E94EA
:103F8000F129C80DD91DD6016C9111967C9111971C
:103F900014964D915C911597CE010E94F129D6019E
:103FA00014968D909C9015978C0E9D1EF2010481A5
:103FB0001581060D171DD70114968D919C911597AB
:103FC0008A0D9B1D15969C938E931497F201608128
:103FD0007181C8010E944F2A3C01009751F6C4012B
:103FE000B8010E94202A66C08C01080D191DCA0D57
:103FF000DB1DD2016D917C91C8010E944F2A009770
:1040000099F7C615D70509F455C0F7018281938148
:104010008C179D0708F045C0C701BE010E940C190E
:10402000882309F447C03DC0C701B201A9010E941D
:104030009F1EEC0197FD3EC0D7016D917C911197B9
:10404000F201848195818C0F9D1F680F791F149652
:104050004D915C911597481B590BCB018A0D9B1D07
:104060000E94FA29D70114968D919C9115978A0D7B
:104070009B1D15969C938E931497ED91FC9111972F
:10408000E80FF91F10822D913C912C0F3D1FF60176
:104090006081718144815581C9010E94F1299E018D
:1040A00005C0D70114962D913C91159721503040B1
:1040B00037FFBACFDF91CF911F910F91FF90EF9013
:1040C000DF90CF90BF90AF909F908F907F906F9038
:1040D0005F904F903F902F900895CF93DF93FC0116
:1040E000C081D181209739F409C0992787FD909527
:1040F0000E94E129899388818823B9F7DF91CF91C4
:104100000895CF93DF93FC01C081D181209739F4CA
:1041100009C0992787FD90950E94E9298993888194
:104120008823B9F7DF91CF910895AF92BF92CF92D4
:10413000DF92EF92FF920F931F93CF93DF936C0167
:10414000DC01ED90FC901197E114F10409F443C0F7
:104150001496AD90BC901597A114B104E1F18701BC
:10416000E80188810F5F1F4F992787FD90950E9476
:10417000D9290097A9F78501015010400E0D1F1D88
:10418000F8018081992787FD90950E94D929009791
:1041900031F00C171D0718F001501040F1CF0F5FE0
:1041A0001F4F0C1B1D0BD60115961C930E931497D5
:1041B000EC16FD0628F4C701BE01A8010E94F129F2
:1041C000D601ED91FC91119714968D919C911597C4
:1041D000E80FF91F1082DF91CF911F910F91FF908F
:1041E000EF90DF90CF90BF90AF900895FC01808159
:1041F0009181009729F00E94B2299B01AC0103C074
:1042000020E030E0A901B901CA0108950E94B42755
:1042100008950E944E28089521E030E0FC0180813D
:10422000882311F020E030E0C901089521E0FC016D
:104230002083089508950895CF92DF92EF92FF9220
:104240000F931F93CF93DF936C017B018A01C0E032
:10425000D0E00FC0D7016D917D01D601ED91FC91A9
:104260000190F081E02DC6010995C80FD91F0150BA
:1042700010400115110571F7CE01DF91CF911F910B
:104280000F91FF90EF90DF90CF900895DB010D909C
:104290000020E9F7AD0141505040461B570BDC01AF
:1042A000ED91FC910280F381E02D09950895EF9244
:1042B000FF920F931F93CF93DF937C01062F172F4D
:1042C000C0E0D0E0F8010F5F1F4F6491662351F00A
:1042D000F701A081B181ED91FC91C7010995C80F4B
:1042E000D91FF0CFCE01DF91CF911F910F91FF9099
:1042F000EF900895AF92BF92CF92DF92EF92FF922C
:104300000F931F93CF93DF937C016B01C0E0D0E04C
:1043100000E010E010C0D701ED91FC91A080B180C9
:10432000C601BE010E94D81D682FC701F50109957D
:10433000080F191F2196F60184819581C817D907A6
:1043400050F3C801DF91CF911F910F91FF90EF9033
:10435000DF90CF90BF90AF9008950E9446210895BE
:10436000DC01ED91FC910190F081E02D099508951B
:104370009C01CB01DB01ED91FC910190F081E02DDE
:10438000B901099508950F931F93CF93DF93EC0123
:104390006DE00E94B0218C01CE016AE00E94B02144
:1043A000080F191FC801DF91CF911F910F91089538
:1043B0000F931F93CF93DF93EC010E9457218C0141
:1043C000CE010E94C321080F191FC801DF91CF91B0
:1043D0001F910F9108950F931F93CF93DF93EC01DB
:1043E0000E947A218C01CE010E94C321080F191F5F
:1043F000C801DF91CF911F910F9108950F931F93E3
:10440000CF93DF93EC010E9446218C01CE010E94E4
:10441000C321080F191FC801DF91CF911F910F9180
:1044200008950F931F93CF93DF93EC010E94B02167
:104430008C01CE010E94C321080F191FC801DF9112
:10444000CF911F910F9108950F931F93CF93DF93F7
:10445000EC010E94B8218C01CE010E94C321080FFB
:10446000191FC801DF91CF911F910F9108958F926D
:104470009F92AF92BF92CF92DF92EF92FF920F93F3
:104480001F93DF93CF93CDB7DEB7A1970FB6F89404
:10449000DEBF0FBECDBF6C01042FE52FCB01122F65
:1044A00019A2223008F41AE021E2E22EF12CEC0EDF
:1044B000FD1E812E9924AA24BB2403C0022FE32FC2
:1044C000CA01602F7E2FA50194010E94D926129F58
:1044D000802D1124081B0894E108F1080A3014F417
:1044E000005D01C0095CF70100832115310541051C
:1044F000510521F7C601B7010E944621A1960FB6CA
:10450000F894DEBF0FBECDBFCF91DF911F910F9109
:10451000FF90EF90DF90CF90BF90AF909F908F90E3
:1045200008952115310549F4DC01ED91FC910190CC
:10453000F081E02D642F099508950E943722089597
:104540000F931F93CF93DF93EC010E9491228C0174
:10455000CE010E94C321080F191FC801DF91CF911E
:104560001F910F9108959A01AB0160E070E00E94E5
:10457000912208950F931F93CF93DF93EC019A013B
:10458000AB0160E070E00E9491228C01CE010E949C
:10459000C321080F191FC801DF91CF911F910F91FF
:1045A00008959A01462F50E060E070E00E94912249
:1045B00008950F931F93CF93DF93EC019A01462F39
:1045C00050E060E070E00E9491228C01CE010E94D8
:1045D000C321080F191FC801DF91CF911F910F91BF
:1045E0000895CF92DF92EF92FF920F931F93CF9394
:1045F000DF93EC017A018B012115310541F4E8814B
:10460000F9810190F081E02D642F09951AC02A30BC
:104610003105A9F477FF12C06DE20E94B0216C0150
:1046200044275527BA014E195F09600B710BCE0163
:104630002AE00E943722C80ED91E04C02AE00E9438
:1046400037226C01C601DF91CF911F910F91FF902E
:10465000EF90DF90CF9008950F931F93CF93DF9348
:10466000EC010E94F1228C01CE010E94C321080FAF
:10467000191FC801DF91CF911F910F9108959A01E1
:10468000FB01AF01662757FD6095762F0E94F1224E
:1046900008950F931F93CF93DF93EC019A01CB0101
:1046A000AC01662757FD6095762FCE010E94F1225E
:1046B0008C01CE010E94C321080F191FC801DF9190
:1046C000CF911F910F9108956F927F929F92AF9219
:1046D000BF92CF92DF92EF92FF920F931F93CF93EF
:1046E000DF933C017A018B01C22ECB01BA0120E09D
:1046F00030E0A9010E94911387FF0AC0C3016DE257
:104700000E94B021EC0117FB109517F9109502C01B
:10471000C0E0D0E0DD2450E040E030E02FE311C005
:10472000DA01F9016B2F742F8F2F922F20E030E0E8
:1047300040E251E40E945312562F472F382F292F61
:10474000D394DC1468F3C801B701DA01F9012B2F07
:10475000342F4F2F5E2F0E94FB105B01F82E992EF5
:104760007B2D0E94850F162FD72EE82E092F0E9431
:1047700073149B01AC016A2D7B2D8F2D992D0E9406
:104780002811962EA72EB82EF92EC301412F5D2D8C
:104790006E2D702F2AE030E00E949122C80FD91FA1
:1047A000CC20B9F1C30169ED71E00E944621C80F28
:1047B000D91F2FC0692D7A2D8B2D9F2D20E030E041
:1047C00040E251E40E945911D62EB72EA82E992E00
:1047D0000E9421147B010027F7FC0095102FC301D4
:1047E000B801A7012AE030E00E94F122C80FD91FCA
:1047F000C801B7010E94C1139B01AC016D2D7B2D37
:104800008A2D992D0E942811962EA72EB82EF92EAA
:10481000CA94CC2079F6CE01DF91CF911F910F91F0
:10482000FF90EF90DF90CF90BF90AF909F907F90E0
:104830006F9008950E94642308950F931F93CF9360
:10484000DF93EC010E9464238C01CE010E94C321FE
:10485000080F191FC801DF91CF911F910F91089583
:10486000FC0184859585FC01E05CFF4F208131814E
:104870008E5B9F4FFC0180819181281B390B2F7328
:104880003070C9010895FC0184859585FC01E05CC8
:10489000FF4F40815181FC01EE5BFF4F2081318150
:1048A0004217530741F00190F081E02DE80FF91F06
:1048B000208130E002C02FEF3FEFC9010895FC01D5
:1048C00084859585FC01E05CFF4F40815181FC01AE
:1048D000EE5BFF4F208131814217530771F0A081B9
:1048E000B181A80FB91F2C918081918101968F739E
:1048F00090709183808330E002C02FEF3FEFC901B9
:104900000895DC011E968D919C911F97FC01E05C3F
:10491000FF4F8E5B9F4F40815181DC012D913C9177
:10492000119742175307B9F708951F93FC01162FEB
:1049300026853785D901A05CBF4F8D919C9101964A
:1049400060E470E00E94C626D901AE5BBF4F4D9176
:104950005C91119784179507D1F3D901A05CBF4FE3
:104960000D90BC91A02DA20FB31F1C93A685B785F7
:10497000A05CBF4F11969C938E93A689B7892C910A
:1049800081E090E0058C02C0880F991F0A94E2F73D
:10499000282B2C9381E090E01F910895FB01E05CAF
:1049A000FF4F208131812F5F3F4F2F733070DB012C
:1049B000AE5BBF4F4D915C9111972417350739F0CD
:1049C000A081B181A60FB71F8C93318320830895F6
:1049D00008951F920F920FB60F9211242F933F93B9
:1049E0004F935F936F937F938F939F93AF93BF93F7
:1049F000EF93FF938091C60064E473E00E94CE249D
:104A0000FF91EF91BF91AF919F918F917F916F91A6
:104A10005F914F913F912F910F900FBE0F901F907C
:104A200018958CEC93E00E943024009711F00E94BE
:104A3000E82408951F920F920FB60F9211242F931E
:104A40003F935F936F937F938F939F93AF93BF93A6
:104A5000EF93FF932091C8033091C9038091CA035B
:104A60009091CB032817390731F48091C1008F7DD5
:104A70008093C10016C0E091CA03F091CB03E857C0
:104A8000FC4F20818091CA039091CB03019660E492
:104A900070E00E94C6269093CB038093CA032093B4
:104AA000C600FF91EF91BF91AF919F918F917F9140
:104AB0006F915F913F912F910F900FBE0F901F90BC
:104AC00018958F92AF92BF92CF92DF92EF92FF92A2
:104AD0000F931F93DF93CF93CDB7DEB7FC01138203
:104AE000128288EE93E0A0E0B0E084839583A683F1
:104AF000B78386EF92E091838083758764875787B9
:104B00004687318B208B138B028BF58AE48AD78AF8
:104B1000C68AB18EA08E828E8E85838F8F85848F7C
:104B20008889858F8989868FCF91DF911F910F9119
:104B3000FF90EF90DF90CF90BF90AF908F9008954F
:104B4000DF92EF92FF920F931F93CF93DF93EC01CD
:104B50007A018B01DD24D394403081EE580780E048
:104B6000680780E0780749F4DD24EC89FD8910822C
:104B700060E874E88EE190E00FC0EC89FD8981E087
:104B800090E00E8C02C0880F991F0A94E2F7808390
:104B900060E079E08DE390E0A80197010E94D926BA
:104BA00021503040404050405695479537952795C5
:104BB00080E12030380710F0DD20B1F6E889F9896E
:104BC0003083EA89FB892083EE89FF89408181E077
:104BD00090E09C010A8C02C0220F331F0A94E2F776
:104BE000422B4083EE89FF8940819C010B8C02C0DF
:104BF000220F331F0A94E2F7422B4083EE89FF898C
:104C000040819C010C8C02C0220F331F0A94E2F7F2
:104C1000422B4083EE89FF8920810D8C02C0880FD2
:104C2000991F0A94E2F7809582238083DF91CF91C8
:104C30001F910F91FF90EF90DF900895CF93DF9336
:104C4000FC0186859785DC01A05CBF4F8E5B9F4F82
:104C50004D915C911197EC012881398142175307DE
:104C6000B9F7A689B7894C9181E090E09C01028C4C
:104C700002C0220F331F0A94E2F7209524232C93BD
:104C8000A689B7894C919C01038C02C0220F331F67
:104C90000A94E2F7209524232C93A689B7894C9196
:104CA0009C01048C02C0220F331F0A94E2F7209566
:104CB00024232C93A689B7892C91058C02C0880FD8
:104CC000991F0A94E2F7809582238C9384859585B9
:104CD000FC01EE5BFF4F20813181805C9F4FFC0126
:104CE00031832083DF91CF9108951092CF031092EA
:104CF000CE0388EE93E0A0E0B0E08093D0039093E1
:104D0000D103A093D203B093D303EEECF3E086EF8C
:104D100092E09293829384E493E09587848788E875
:104D200093E09787868785EC90E0918B808B84EC6D
:104D300090E0938B828B80EC90E0958B848B81EC60
:104D400090E0978B868B86EC90E0918F808F84E04B
:104D5000828F83E0838F87E0848F85E0858F81E079
:104D6000868F0895AA1BBB1B51E107C0AA1FBB1F5A
:104D7000A617B70710F0A61BB70B881F991F5A95E7
:104D8000A9F780959095BC01CD01089597FB092E58
:104D900007260AD077FD04D0E5DF06D000201AF4FC
:104DA000709561957F4F0895F6F7909581959F4F87
:104DB0000895A1E21A2EAA1BBB1BFD010DC0AA1F5C
:104DC000BB1FEE1FFF1FA217B307E407F50720F074
:104DD000A21BB30BE40BF50B661F771F881F991FEF
:104DE0001A9469F760957095809590959B01AC0138
:104DF000BD01CF0108952F923F924F925F926F9223
:104E00007F928F929F92AF92BF92CF92DF92EF925A
:104E1000FF920F931F93CF93DF93CDB7DEB7CA1BDB
:104E2000DB0B0FB6F894DEBF0FBECDBF09942A8806
:104E3000398848885F846E847D848C849B84AA84AE
:104E4000B984C884DF80EE80FD800C811B81AA813B
:104E5000B981CE0FD11D0FB6F894DEBF0FBECDBF06
:104E6000ED010895EE0FFF1F0590F491E02D0994D8
:104E700011F40EF44DC03EC05DD0D0F39923D9F3A8
:104E8000CEF39F57550B87FF46D00024A0E640EA9B
:104E9000900180585695979528F4805C660F771F8F
:104EA000881F20F026173707480730F4621B730B62
:104EB000840B202931294A2BA69517940794202585
:104EC00031254A2758F7660F771F881F20F02617CD
:104ED0003707480730F4620B730B840B200D311D2C
:104EE000411DA09581F7B901842F9158880F96959F
:104EF000879508959F3F31F0915020F487957795DD
:104F00006795B795880F911D9695879597F90895A0
:104F10009FEF80EC089591505040660F771F881FD7
:104F2000D2F7089557FD9058440F551F59F05F3F31
:104F300071F04795880F97FB991F61F09F3F79F0BB
:104F400087950895121613061406551FF2CF46953D
:104F5000F1DF08C0161617061806991FF1CF8695BF
:104F60007105610508940895CF93DF938230910510
:104F700010F482E090E0E091ED03F091EE0340E068
:104F800050E020E030E026C0608171816817790729
:104F9000E0F06817790781F482819381211531054A
:104FA00031F0D90113969C938E9312972BC0909356
:104FB000EE038093ED0326C04115510519F06417E7
:104FC000750718F4AB01E901DF019F01728163816C
:104FD000E72FF62F3097C1F64115510501F1481B17
:104FE000590B4430510580F412968D919C91139782
:104FF000209719F09B838A8304C09093EE038093DB
:10500000ED03FD01329646C0FD01E40FF51F8193CB
:1050100091934250504011965C934E933BC0209127
:10502000EB033091EC032115310541F42091E502A9
:105030003091E6023093EC032093EB032091E702DA
:105040003091E8022115310541F42DB73EB740916A
:10505000E3025091E402241B350BE091EB03F09145
:10506000EC03E217F307A0F42E1B3F0B28173907B8
:1050700078F0AC014E5F5F4F2417350748F04E0FB4
:105080005F1F5093EC034093EB038193919302C015
:10509000E0E0F0E0CF01DF91CF910895CF93DF936F
:1050A000009709F491C0FC0132971382128260913B
:1050B000ED037091EE036115710581F4208131815A
:1050C000280F391F8091EB039091EC03821793070F
:1050D00099F5F093EC03E093EB0376C0DB0180E0FD
:1050E00090E002C0CD01D901AE17BF0748F4129677
:1050F0002D913C91139721153105A1F7CD0121C0C8
:10510000B383A283EF01499159919E01240F351F6A
:10511000A217B30779F42D913C911197240F351FF5
:105120002E5F3F4F3183208312962D913C91139730
:1051300033832283009729F4F093EE03E093ED0389
:1051400043C0DC011396FC93EE9312974D915D9151
:10515000A40FB51FEA17FB0769F420813181240FE2
:10516000351F2E5F3F4FEC01398328832281338125
:105170003B832A83E0E0F0E002C0FB01BC01DB01DD
:1051800012968D919C9113970097B9F79B012E5F12
:105190003F4F8D919C911197820F931F4091EB038C
:1051A0005091EC034817590779F4309729F410927D
:1051B000EE031092ED0302C013821282225030409F
:1051C0003093EC032093EB03DF91CF910895A0E09F
:1051D000B0E0EDEEF8E20C9401278C01CB01011553
:1051E000110529F40E94B427082F192FB5C0D80142
:1051F00012979801260F371F2A173B0708F4AAC0F9
:10520000ED90FC901197E616F706D0F045E0E41615
:10521000F10408F4A1C0A7014450504046175707B5
:1052200008F49AC0A70142505040461B570BF901A1
:10523000419351936D937C93CF010E944E288CC073
:105240005B01AE18BF0848018E0C9F1CE091ED0376
:10525000F091EE03CC24DD24C0E0D0E041C0E8159D
:10526000F90599F560817181AB014E5F5F4F4A1579
:105270005B0558F1AB014A195B09CC24DD24689425
:10528000C1F8C40ED51E8280A380E5E0CE16D104FD
:1052900048F0F9018282A3825183408311969C9346
:1052A0008E9309C0C7010296860F971F11969C9393
:1052B0008E93E82DFA2D209719F0FB83EA834CC0DA
:1052C000F093EE03E093ED0347C040815181C41693
:1052D000D50608F46A01EF0152814381E52FF42FCE
:1052E000309709F0BCCF4091EB035091EC03481587
:1052F0005905E9F4C816D906D0F44091E702509157
:10530000E8024115510541F44DB75EB76091E302E3
:105310007091E402461B570B24173507D8F43093DD
:10532000EC032093EB0311969C938E9315C00E947F
:10533000B427C82EE6016E01D92EE601209751F060
:105340008C2DB801A7010E94F129C8010E944E28A6
:10535000860102C000E010E0C801CDB7DEB7ECE086
:105360000C941D271F93FC0199278827BC01E89402
:1053700011911032E9F3193010F01E30C8F31B32CE
:1053800051F01D3249F4689406C00E94BE2A610F94
:10539000711D811D911D119110531A30B0F33EF40F
:1053A00090958095709561957F4F8F4F9F4F1F917E
:1053B0000895911133C1803219F089508550D0F78A
:1053C00008959111089581548A5108F4805E855A98
:1053D00008959111089581568A5108F48052855894
:1053E0000895FB01DC0102C001900D924150504034
:1053F000D8F708956817790768F4FB01DC01E40F1A
:10540000F51FA40FB51F02C002900E9241505040EC
:10541000D8F708950C94F129FC018191861721F0A9
:105420008823D9F7992708953197CF010895FB0173
:10543000DC018D91019080190110D9F3990B089529
:10544000FB01DC0101900D920020E1F70895FB01C2
:10545000DC014150504030F08D910190801919F4D9
:105460000020B9F7881B990B0895FB01DC0141501E
:10547000504048F001900D920020C9F701C01D92E4
:1054800041505040E0F70895FC0181E090E0019028
:10549000061609F4CF010020D1F701970895FB010A
:1054A00051915523A9F0BF01DC014D9145174111E0
:1054B000E1F759F4CD010190002049F04D914015DC
:1054C0004111C9F3FB014111EFCF81E090E0019759
:1054D0000895FB019F01E8944230C4F04532B4F4D2
:1054E0004A3029F497FB1EF4909581959F4F642FC5
:1054F00077270E94B226805D8A330CF0895D819304
:10550000CB010097A1F716F45DE251931082C90117
:105510000C94112BFA01CF93FF93EF93223044F1B7
:10552000253234F5C22FE894CA3049F497FB3EF493
:1055300090958095709561957F4F8F4F9F4F2C2F41
:10554000332744275527FF93EF930E94D926EF91E5
:10555000FF91605D6A330CF0695D6193B901CA0126
:10556000605070408040904051F716F4CDE2C193F6
:1055700010828F919F91CF910C94112B592F482F0E
:10558000372F262F660F771F881F991F660F771FEB
:10559000881F991F620F731F841F951F660F771F47
:1055A000881F991F0895FA01CF93FF93EF9322303C
:1055B000CCF02532BCF4C22F2C2F3327442755279B
:1055C000FF93EF930E94D926EF91FF91605D6A33BC
:1055D0000CF0695D6193B901CA0160507040804070
:1055E000904051F710828F919F91CF910C94112B85
:1055F000FB019F01423074F0453264F4642F772739
:105600000E94B226805D8A330CF0895D8193CB01C4
:105610000097A1F71082C9010C94112B99278827B4
:105620000895DC01FC01672F71917723E1F7329730
:1056300004C07C916D9370836291AE17BF07C8F36D
:065640000895F894FFCF6D
:10564600000000008C00B90030010C01D0005501AB
:105656004D6F64653A004672616D65733A000000ED
:105666000000FC051C210000400014005400FF004F
:105676000000008C00B90030010C01D00055014932
:105686006E697469616C697365204C434400496EA8
:10569600697469616C6973652050574D00496E697C
:1056A6007469616C697365204443206D6F746F7211
:1056B60000496E697469616C6973652073746570FD
:1056C600706572206D6F746F7200496E69746961DE
:1056D6006C697365206C6566742050444300496E9E
:1056E600697469616C6973652072696768742050B2
:1056F600444300496E697469616C6973652050445E
:105706002074696D6572004D616E75616C004F7035
:1057160065726174696F6E00002E00000000000063
:10572600000000000102020303030304040404044E
:105736000404040505050505050505050505050516
:1057460005050506060606060606060606060606F6
:1057560006060606060606060606060606060606E3
:1057660006060607070707070707070707070707C6
:1057760007070707070707070707070707070707B3
:1057860007070707070707070707070707070707A3
:105796000707070707070707070707070707070793
:1057A6000707070808080808080808080808080876
:1057B6000808080808080808080808080808080863
:1057C6000808080808080808080808080808080853
:1057D6000808080808080808080808080808080843
:1057E6000808080808080808080808080808080833
:1057F6000808080808080808080808080808080823
:105806000808080808080808080808080808080812
:105816000808080808080808080808080808080802
:105826000808082000EF03000001000000001B210B
:105836001C210000000095241C2130245F244324F1
:105846008124000000001B211C211B211B211B2180
:025856001B2114
:00000001FF
